:020000040800F2
:10000000F80D0024B10200087333000845320008DF
:100010007133000893040008314900080000000013
:100020000000000000000000000000002B4100085C
:100030009504000800000000753300082D410008F9
:10004000CB020008CB020008CB020008CB0200085C
:10005000CB020008CB020008CB020008CB0200084C
:10006000CB020008CB020008CB020008CB0200083C
:10007000CB020008CB020008CB020008CB0200082C
:10008000CB020008CB020008CB020008CB0200081C
:10009000CB020008CB020008CB020008CB0200080C
:1000A000CB020008CB020008CB020008CB020008FC
:1000B000CB020008CB020008CB020008CB020008EC
:1000C000CB020008CB020008CB020008CB020008DC
:1000D000CB020008CB020008CB020008CB020008CC
:1000E000CB020008CB02000800000000CB02000891
:1000F000CB020008CB020008CB020008CB020008AC
:10010000CB020008CB020008CB020008CB0200089B
:10011000CB020008CB020008CB020008CB0200088B
:10012000CB020008CB020008CB020008CB0200087B
:10013000CB020008CB020008CB020008CB0200086B
:1001400000000000000000000000000000000000AF
:10015000CB020008CB020008CB020008CB0200084B
:10016000CB020008CB020008CB020008CB0200083B
:10017000CB020008CB020008CB0200080000000000
:10018000CB020008CB020008CB020008CB0200081B
:10019000CB020008CB020008CB020008CB0200080B
:1001A000CB020008CB020008CB020008CB020008FB
:1001B000CB020008CB020008CB020008CB020008EB
:1001C000CB020008CB020008CB020008CB020008DB
:1001D000CB020008CB020008CB020008CB020008CB
:1001E000CB020008CB020008CB020008CB020008BB
:1001F000CB020008CB020008CB020008CB020008AB
:10020000CB020008CB020008CB020008CB0200089A
:10021000CB020008CB020008CB020008CB0200088A
:10022000CB020008CB020008CB020008000000004F
:10023000B9350008CB02000800000000CB0200081E
:10024000CB020008CB020008CB020008CB0200085A
:10025000CB020008CB020008CB020008CB0200084A
:10026000CB020008CB020008CB020008CB0200083A
:10027000CB020008CB020008CB02000800000000FF
:10028000CB020008CB020008CB02000800000000EF
:1002900000000000CB020008DFF810D000F092F858
:1002A00000480047E1600008AFF30080F80D00242B
:1002B0000648804706480047FEE7FEE7FEE7FEE700
:1002C000FEE7FEE7FEE7FEE7FEE7FEE71142000875
:1002D000990200082DE9F05F0546002092469B46F2
:1002E00088460646814640241BE02846414647464C
:1002F000224600F057F853465A46C01A914110D38F
:1003000011461846224600F03EF82D1A67EB010808
:100310004F4622460120002100F035F817EB000976
:100320004E41201EA4F10104DFDC484631462A4636
:100330004346BDE8F09FD2B201E000F8012B491E10
:10034000FBD270470022F6E710B513460A46044672
:100350001946FFF7F0FF204610BD30B50B460146A9
:1003600000202022012409E021FA02F59D4205D354
:1003700003FA02F5491B04FA02F52844151EA2F1FE
:100380000102F1DC30BD202A04DB203A00FA02F140
:10039000002070479140C2F1200320FA03F3194373
:1003A00090407047202A04DB203A21FA02F0002115
:1003B000704721FA02F3D040C2F120029140084375
:1003C00019467047064C074D06E0E06840F001030F
:1003D00094E8070098471034AC42F6D3FFF760FF6B
:1003E000546B0008746B00080146014802F04EB9D6
:1003F0005C000024044810B502F05AF9042801D02A
:10040000012010BD002010BD5C00002410B500F0DC
:1004100015F8012801D0022010BD074802F0E4FAC7
:10042000040006D104484FF4804101F08BFF00B175
:100430000124204610BD00005C00002408B5012006
:100440008DF800009DF8000008BD000038B50024BC
:10045000009313460A460146034802F0CBFB00B165
:100460000124204638BD00005C00002470470000D5
:1004700038B50024009313460A460146034802F0AB
:10048000A3FC00B10124204638BD00005C0000241C
:100490007047FEE7704772B6FEE70022AFF30080B8
:1004A0000E4B70B505465C7A0120002C14D15E7AA3
:1004B00003F108009C555E7A03EB860675605D7A51
:1004C0002A54587A421C5A723A232F22303008702C
:1004D0004B7020468A70CC7070BD0000EC0900247F
:1004E000002100F001B800000B49024610B54B7A1C
:1004F0000120002B0ED01278303AD2B201EB8203E9
:100500005C68002C06D00A440020586010724A7AB9
:10051000521E4A7210BD0000EC09002470B504465A
:1005200000F032F90546601C02D00448007804440B
:1005300000F02AF9401BA042FAD370BD3C00002411
:100540002DE9F84F03247D4D00234FF001094FF0B2
:10055000B04B4FF00F0AE9E009FA03F73A4076D0C2
:100560000E7906F00306012E01D0022E18D1D0F824
:1005700008C04FEA430ECE6804FA0EF82CEA080CC5
:1005800006FA0EF646EA0C068660D0F804C00E792C
:100590002CEA070CC6F300169E4046EA0C0646609D
:1005A0000E79F643B6070BD0C6684FEA43088F684A
:1005B00004FA08FC26EA0C0607FA08F73743C76076
:1005C0000E7906F00306022E12D1DE080F694FEAFB
:1005D000437C00EB8606B646366A4FEADC6C0AFAC4
:1005E0000CF807FA0CF726EA08063743CEF8207015
:1005F0000F7906684FEA430807F0030704FA08FC7E
:1006000007FA08F726EA0C06374307604E6816F427
:10061000403F1CD04A4E376847F0020737603668C3
:100620009F0706F00206009623F0030606F1B04687
:10063000B6463F0FD6F80864DFF808810AFA07FCCF
:10064000404526EA0C0603D14FF0000C41E06CE077
:10065000DFF8F4C0604502D14FF0010C39E0DFF85B
:10066000ECC0604502D14FF0020C32E0DFF8E0C090
:10067000604502D14FF0030C2BE0DFF8D8C0604595
:1006800002D14FF0040C24E0DFF8CCC0604502D169
:100690004FF0050C1DE0DFF8C4C0604502D14FF0FB
:1006A000060C16E0DFF8B8C0604502D14FF0070C29
:1006B0000FE0DFF8B0C0604502D14FF0080C08E051
:1006C000DFF8A4C0604502D14FF0090C01E04FF003
:1006D0000A0C0CFA07FC4CEA060CCEF808C44F686A
:1006E000DBF80060FF0226EA020600D516435F46EB
:1006F000CBF80060D1F804C0DBF804605FEA8C2C12
:1007000026EA020600D516437E606E684F6826EA28
:100710000206BF0300D516436E602E684F6826EAB6
:100720000206FF0300D516432E605B1C0A6832FAEE
:1007300003F67FF411AFBDE8F88F00008000005889
:10074000F4440258000002580004025800080258FD
:10075000000C0258001002580014025800180258E9
:10076000001C02580020025800240258426921EA65
:1007700002030A4043EA0241816170470148006870
:10078000000C70470010005C014880687047000052
:100790003C0000240248816802781144816070475F
:1007A0003C000024032010B500F086F801F068FA40
:1007B0000F4A104914681368C4F3032203F00F03AF
:1007C0008A5CC95C02F01F0201F01F01D0400A4A96
:1007D00020FA01F11160094908600F2000F010F8BB
:1007E00008B1012010BD00F02BF8002010BD000062
:1007F00018440258A86A00084C000024480000244D
:1008000070B50D4D04462878A0B14FF47A71B1FB54
:10081000F0F00A490968B1FBF0F002F0C3FB48B9F7
:10082000102C07D200222146501E00F025F800208F
:100830006C6070BD012070BD3C00002448000024A5
:10084000054808B5016841F002010160006800F048
:100850000200009008BD0000F4440258002809DBA3
:10086000410900F01F028900012001F1E0219040C0
:10087000C1F80001704700000E4BF0B41B680D4634
:10088000C3F30223C3F10706042E00D90426191D61
:10089000072901D2002300E0DB1E012404FA06F13F
:1008A0009C40491E2940641E994014402143F0BCDD
:1008B00004F050B80CED00E0064900F0070210B556
:1008C0004FF6FF040868044B204040EA022018431A
:1008D000086010BD0CED00E00000FA05134970B58A
:1008E0000A68D243520705D5096801F00701814221
:1008F00013D118E00A6822F0070202430A60FFF7EA
:1009000043FF0A4D4FF47A760446083D07E000BFE6
:10091000FFF73AFF001BB04201D9012070BD2868E3
:10092000C0438004F4D4002070BD00000C4802587D
:1009300010B501F05FF905490968054AC1F30211D4
:10094000515C01F01F01C84010BD00002044025856
:10095000A86A00084A4930B5494C0B1D0A680C3496
:1009600009681D68246802F0030305F00102C1F361
:100970000511C4F3CC04002914FB02F200EE102A86
:10098000F8EE400A76D0414A9FED3E1ADFED3E1A5E
:10099000B7EE000A23B1012B5AD0022B18D15CE02C
:1009A000374C283C23689B0612D5394B246801EE4E
:1009B000901A1168C4F3C104F8EE612AE34001EE15
:1009C000903AC1F30801F8EE611A81EEA22A07E01D
:1009D00002EE101A1168F8EE422A81EEA22A45E0D2
:1009E00001EE901A1168F8EE611A40EE811A71EE6C
:1009F000800A62EE200AC1F3462101EE101AB8EE19
:100A0000411A31EE001AC0EE811ABCEEE11A80EDF7
:100A1000001A1168C1F3064101EE101AB8EE411A2E
:100A200031EE001AC0EE811ABCEEE11A80ED011A17
:100A30001168C1F3066101EE101AB8EE411A31EEE9
:100A4000000A80EE801ABCEEC10A80ED020A30BDB9
:100A500001EE901ADFED0F2A03E001EE901ADFEDB0
:100A60000E2A1168F8EE611A82EEA12AC1F308017C
:100A7000B6E7FFE7002101604160816030BD000002
:100A800028440258000000390024744C30440258B5
:100A90000090D0030024744A20BCBE4B494930B5B5
:100AA000484C0B1D0A68143409681D68246802F05C
:100AB0000303C5F30012C1F30531C4F3CC040029CC
:100AC00014FB02F200EE102AF8EE400A75D03F4AFD
:100AD0009FED3D1AB7EE000A6BB1DFED3D1A012B19
:100AE00001D0022B64D002EE101A1168F8EE422AEF
:100AF00081EEA22A21E0334C283C23689B0612D5C4
:100B0000344B246801EE901A1168C4F3C104F8EE66
:100B1000612AE34001EE903AC1F30801F8EE611A50
:100B200081EEA22A0BE001EE901ADFED2B2A00BF26
:100B3000F8EE611A116882EEA12AC1F3080101EEF4
:100B4000901A1168F8EE611A40EE811A71EE800A6F
:100B500062EE200AC1F3462101EE101AB8EE411AE6
:100B600031EE001AC0EE811ABCEEE11A80ED001AD7
:100B70001168C1F3064101EE101AB8EE411A31EEC8
:100B8000001AC0EE811ABCEEE11A80ED011A11685C
:100B9000C1F3066101EE101AB8EE411A31EE000AF7
:100BA00080EE801ABCEEC10A80ED020A30BD04E07E
:100BB00001EE901ADFED092ABAE7002101604160D9
:100BC0008160F3E728440258000000393844025895
:100BD0000024744A0090D0030024744C20BCBE4B07
:100BE000494930B5484C0B1D0A681C3409681D681A
:100BF000246802F00303C5F30022C1F30551C4F3D6
:100C0000CC04002914FB02F200EE102AF8EE400A90
:100C100075D03F4A9FED3D1AB7EE000A6BB1DFED8C
:100C20003D1A012B01D0022B64D002EE101A11687C
:100C3000F8EE422A81EEA22A21E0334C283C2368B8
:100C40009B0612D5344B246801EE901A1168C4F348
:100C5000C104F8EE612AE34001EE903AC1F30801C5
:100C6000F8EE611A81EEA22A0BE001EE901ADFED98
:100C70002B2A00BFF8EE611A116882EEA12AC1F397
:100C8000080101EE901A1168F8EE611A40EE811A1F
:100C900071EE800A62EE200AC1F3462101EE101ABD
:100CA000B8EE411A31EE001AC0EE811ABCEEE11A1C
:100CB00080ED001A1168C1F3064101EE101AB8EE7A
:100CC000411A31EE001AC0EE811ABCEEE11A80ED35
:100CD000011A1168C1F3066101EE101AB8EE411A4B
:100CE00031EE000A80EE801ABCEEC10A80ED020AE5
:100CF00030BD04E001EE901ADFED092ABAE70021C9
:100D0000016041608160F3E7284402580000003927
:100D1000404402580024744A0090D0030024744CCC
:100D200020BCBE4B2DE9F04FAC4A0546DFF8A8A227
:100D300080F48070DFF8AC9289B01311AA4C08439C
:100D4000A748AAF104064FF0805C4FF000582CD061
:100D500085F400770F4357D0DFF87CB285F48067C5
:100D60000F430BF1080B61D085F400670F4374D07B
:100D700085F480570F436ED085F400570F434FF42E
:100D800080394FF4003E67D085F400270F4371D0BF
:100D900085F480370F436ED085F480460E436BD0C8
:100DA00085F400420A4368D02AE0DAF8001001F026
:100DB0000701052924D2DFE801F075BC7D25B100CB
:100DC00006A8FFF7C7FD079809B0BDE8F08F684691
:100DD000FFF764FE0098F7E703A8FFF701FF039809
:100DE000F2E72068C0F3C10022FA00F0ECE72268C5
:100DF000D20571D561456FD11846E5E74145E3D08D
:100E00000020E1E74846DFE7DAF8001001F4E0717E
:100E100080294FD004DC002944D04029F0D188E05B
:100E2000C029EFD0B1F5807FEAD177E0DBF8001080
:100E300001F46001B1F5800F3CD004DC91B3B1F551
:100E4000001FDDD175E0B1F5C00FDBD0B1F5000FAB
:100E5000D6D163E001E018E030E0DBF8001001F0EB
:100E6000E061B1F1007F25D008DCD9B1B1F1807F1C
:100E7000C6D15EE049E06CE079E09CE0B1F1407FF2
:100E8000C0D0B1F1806FBBD148E0DAF8001001F4B6
:100E9000E041B1F5005F0DD005DC19B1B1F5805F1F
:100EA000AED146E094E0B1F5405FABD0B1F5804FF4
:100EB000A6D133E020688000A2D58DE7DAF80010D3
:100EC00001F4E021B1F5403F6CD006DC61B1494549
:100ED0007AD0714594D157E037E0B1F5802F65D0D5
:100EE000B1F5A02F8CD10CE000F0A6FE6CE76846AF
:100EF000FFF7D4FD019867E703A8FFF771FE049898
:100F000062E721688903F1D47AE7DBF8001011F475
:100F100040310ED0494510D07145F5D13168256872
:100F200001F040516D077FF562AF00297FF45FAF9C
:100F300057E720680001E7D549E720688000E3D53E
:100F400003A8FFF74DFE05983EE722689203DBD524
:100F500054E7306810F480303AD04845D4D1206846
:100F60000001D1D56846FFF799FD02982CE7DBF820
:100F7000001001F0E041B1F1405F13D008DC71B125
:100F8000614521D04145BFD120688000B4D437E706
:100F9000B1F1804F0AD0B1F1A04FB2D030E7FFF7E6
:100FA000C7FC11E720684007AED51AE72068C005E6
:100FB000AAD521E708E0DAF8001011F04051A0D0DE
:100FC000614505D041459FD1206800018FD417E7C6
:100FD0002068800198D5F3E6504402580090D00371
:100FE00040787D010080BB00004402582DE9FE4F8F
:100FF0000546DFF8E48350F8081B0024F64FC94388
:10100000019005F12800264608F124080090080107
:101010001DD4A86E50B1B0F5801F0CD0B0F5001FE4
:101020000ED0B0F5401F1ED001240FE0386840F408
:101030000030386017E00198022102F09DF903E0CA
:101040000098022102F028FA04000CD026462888D5
:10105000C043C00523D4A86D05281ED2DFE800F0E8
:101060000C11161B1B00AA6ED8F8001021F44011B9
:101070001143C8F80010EAE7386840F400303860DF
:1010800009E00198002102F077F903E000980021BF
:1010900002F002FA044674B100E0012426462888D2
:1010A000C043800528D4E86D80281ED00CDC90B1A8
:1010B00040280ED114E0AA6DD8F8001021F00701E5
:1010C0001143C8F80010EAE7C02813D0B0F5807FBC
:1010D00010D001240FE0386840F40030386009E097
:1010E0000198002102F048F903E00098002102F085
:1010F000D3F904469CB126462888DFF8DC92C04329
:1011000009F12C0940052CD4D5F8A800B0F5800FC2
:1011100020D00DDCA0B1B0F5001F0FD115E0EA6DB5
:10112000D8F8001021F4E0711143C8F80010E3E78B
:10113000B0F5C00F13D0B0F5000F10D001240FE0B0
:10114000386840F40030386009E00198002102F06E
:1011500013F903E00098002102F09EF904467CB1E7
:1011600026462888C04300052DD4D5F8AC00B0F140
:10117000007F21D00EDCA8B1B0F1807F10D116E045
:10118000D5F8A820D9F8001021F460011143C9F85E
:101190000010E6E7B0F1407F13D0B0F1806F10D0BF
:1011A00001240FE0386840F40030386009E001980D
:1011B000002102F0E1F803E00098002102F06CF950
:1011C000044674B126462868C04380011FD4E86CE9
:1011D000D8B110280FD0202812D0302815D00124E3
:1011E00014E0D5F8AC20D9F8001021F0E0611143EB
:1011F000C9F80010E7E7386840F40030386004E0D0
:101200000198022102F0B8F8044674B126462888F5
:10121000C043C0042BD4286EB0F5005F20D00DDC95
:10122000A0B1B0F5805F0FD115E06B48EA6C2030BB
:10123000016821F0300111430160E8E7B0F5405F3B
:1012400013D0B0F5804F10D001240FE0386840F47F
:101250000030386009E00198002102F08DF803E0C9
:101260000098002102F018F904468CB1264628881F
:10127000C043800429D4686EB0F5403F23D010DC11
:1012800008B3B0F5803F14D0B0F5003F0FD115E0A2
:101290002A6ED8F8001021F4E0411143C8F800107C
:1012A000E5E7B0F5802F0ED0B0F5A02F0BD00124CC
:1012B0000AE00198012102F05FF803E000980121A3
:1012C00002F0EAF8044694B126462888C043400458
:1012D0002AD4D5F8B000B0F1405F23D010DC08B3B9
:1012E000B0F1805F14D0B0F1005F0FD115E06A6EED
:1012F000D8F8001021F4E0211143C8F80010E4E709
:10130000B0F1804F0ED0B0F1A04F0BD001240AE015
:101310000198012102F030F803E00098012102F069
:10132000BBF8044674B126462888C04300041FD485
:10133000286FD8B1B0F1805F0ED0B0F1005F10D04F
:10134000012414E0D5F8B020D9F8001021F0E041D4
:101350001143C9F80010E7E7386840F400303860FE
:1013600004E00198012102F007F8044674B1264612
:101370002868C043C0011ED4A86CD0B101280ED08B
:10138000022811D0032814D0012413E02A6FD8F8C2
:10139000001021F040511143C8F80010E8E7386808
:1013A00040F40030386004E00198022101F0E4FFCD
:1013B0000446ACB126462868DFF81CB0C043ABF148
:1013C0001C0B400252D40548016841F48071016051
:1013D000FFF7DAF9824611E02C440258004802581F
:1013E000FA48AA6C016821F0030111430160E2E7A9
:1013F000FFF7CAF9A0EB0A00642835D8F448006862
:10140000C005F5D58CBBDFF8C4A3B5F8B4100AF15C
:10141000240ADAF8000001F4407100F440708842B8
:1014200011D0DAF80010DAF8002021F4407142F40B
:101430008032CAF80020DAF8002022F48032CAF89C
:101440000020CAF80010D5F8B400B0F5807F1AD19A
:10145000FFF79AF9029012E0FFF796F90299411A04
:1014600041F2883081420AD9032426462878DFF8E1
:101470005CA3C0430AF1080AC00721D03CE0DAF8B7
:1014800000008007E8D5D5F8B410C1F30120032887
:1014900058460DD0016821F47C510160B5F8B420A4
:1014A000DAF80010C2F30B021143CAF80010DDE7AE
:1014B000C84A036802EA111223F47C511143ECE795
:1014C000E86F182816D005DCA0B1082808D010282D
:1014D00004D10AE020280DD028280BD001240AE0EE
:1014E0000198012101F048FF03E00098012101F07B
:1014F000D3FF044664B126462878C04380071ED433
:10150000A86F062819D2DFE800F0160C111616167F
:10151000EA6FDAF8001021F038011143CAF8001020
:10152000EAE70198012101F027FF03E0009801217B
:1015300001F0B2FF04467CB100E001242646287881
:10154000C04340071FD4D5F89400062819D2DFE81D
:1015500000F0160C11161616AA6FDAF8001021F01A
:1015600007011143CAF80010E9E70198012101F0D1
:1015700003FF03E00098012101F08EFF0446A4B1AF
:1015800000E0012426462878C04380062BD4D5F8F5
:101590009000B0F1405F24D011DC10B3B0F1805F57
:1015A00015D0B0F1005F10D116E0D5F89420D9F82D
:1015B000001021F007011143C9F80010E3E7B0F172
:1015C000804F0ED0B0F1A04F0BD001240AE001985B
:1015D000002101F0D1FE03E00098022101F05CFF40
:1015E000044694B126462878C04340062BD4D5F84B
:1015F0009C00B0F5406F24D011DC10B3B0F5806FC3
:1016000015D0B0F5006F10D116E0D5F89020DAF8BB
:10161000001021F0E0411143CAF80010E3E7B0F5F3
:10162000805F0ED0B0F5A05F0BD001240AE00198D6
:10163000002101F0A1FE03E00098022101F02CFF3F
:10164000044694B126462878C04300062BD4D5F82A
:10165000A000B0F5C04F24D011DC10B3B0F5005F8E
:1016600015D0B0F5804F10D116E0D5F89C20D9F8F0
:10167000001021F4E0511143C9F80010E3E7B0F580
:10168000004F0ED0B0F5204F0BD001240AE0019896
:10169000002101F071FE03E00098022101F0FCFE40
:1016A000044654B126462878C04300071ED4D5F816
:1016B0008400B0F5805F0AD00FE0D5F8A020D9F8FB
:1016C000001021F460411143C9F80010EBE70098C5
:1016D000022101F0E1FE00B10126D5F88420DAF8FC
:1016E000001021F440511143CAF800102878C0437B
:1016F000C00613D4D5F89800B0F5807F05D10098C6
:10170000022101F0C9FE00B10126D5F89820D9F8D0
:10171000001021F440711143C9F800102868C0433B
:10172000000316D4D5F8A40038B1B0F5803F09D035
:10173000B0F5003F0BD001240AE00198002101F030
:101740001BFE03E00098022101F0A6FE04468CB1C6
:1017500026462868C043400322D4D5F88800B0F557
:10176000801F11D0B0F5001F13D0B0F5401F15D069
:10177000012414E0D5F8A420D9F8001021F4403158
:101780001143C9F80010E4E7386840F400303860CD
:1017900004E00098012101F07FFE04465CB126467A
:1017A0002868C043C00323D4286DA8B1B0F5803F9A
:1017B00017D001241BE0D5F88820DAF8001021F4B6
:1017C00040111143CAF80010EAE700004C440258E7
:1017D00000480258CFFFFF00386840F400303860FE
:1017E00004E00198022101F0C7FD0446E4B1264659
:1017F0002868C043800005D40098022101F04CFE07
:1018000000B101262868C04380031BD4D5F88000AE
:10181000B0B1B0F5807F0FD0B0F5007F10D0B0F53B
:10182000407F0DD001240CE05A482A6D016821F454
:10183000803111430160DBE7386840F400303860E4
:10184000ECB326462868C043C00207D46A6FD8F8B4
:10185000001021F000411143C8F800102868C0436F
:10186000C00008D4D5F8B820DBF8001021F480417E
:101870001143CBF800102868C043800207D4EA6EF9
:10188000D8F8001021F080711143C8F800102868C2
:10189000C04340000CD4DBF8001021F40041CBF829
:1018A0000010DBF80010D5F8BC201143CBF8001075
:1018B0002868C04308D437486A6D016800E018E022
:1018C00021F04051114301602868C043000208D450
:1018D000D5F88C20DAF8001021F440011143CAF841
:1018E000001028790024C04300F0010020430AD0F2
:1018F0000FE0D5F88020DAF8001021F44071114390
:10190000CAF800109EE70198002101F035FD00B1F2
:1019100006462879C04300F00200204305D1019813
:10192000012101F029FD00B106462879C04300F0ED
:101930000400204305D10198022101F01DFD00B1F2
:1019400006462879C04300F00800204305D10098DE
:10195000002101F0A1FD00B106462879C04300F046
:101960001000204305D10098012101F095FD00B140
:1019700006462879C04300F02000044304D10098B3
:10198000022101F089FD00B916B10120BDE8FE8FEA
:101990000020FBE74C4402582DE9F05F04000F469D
:1019A0007ED0DFF83882D8F8000000F00F00B8428F
:1019B0000CD2D8F8001021F00F013943C8F80010FC
:1019C000D8F8000000F00F00B84269D12078844DAB
:1019D00040070AD52069296801F07001884204D9BE
:1019E000296821F070010143296020787C4E361D62
:1019F00000070AD56069316801F07001884204D996
:101A0000316821F07001014331602078C0060AD5A9
:101A1000A069316801F4E061884204D9316821F499
:101A2000E061014331602078DFF8B4B180060BF14A
:101A3000080B0CD5E1695846DBF8002002F0700273
:101A4000914204D9026822F070020A4302602078B1
:101A500080070AD5E068296801F00F01884204D99F
:101A6000296821F00F01014329602078C0073ED08A
:101A70005B49A2682868183920F470601043286018
:101A80006068022818D0032819D00968012819D0E5
:101A9000490700294ADADFF848A1AAF1080A00E05C
:101AA00044E0DAF8002022F007020243CAF80020DE
:101AB000FEF76AFE814612E009688903E9E70968D2
:101AC0008901E6E7C905E4E7FEF75EFEA0EB090140
:101AD00041F28830814202D90320BDE8F09F61685D
:101AE000DAF8000000F03800B0EBC10FECD120783C
:101AF00080070AD5E068296801F00F01884204D206
:101B0000296821F00F0101432960D8F800104046F0
:101B100001F00F01B9420BD9016821F00F013943DF
:101B20000160006800F00F00B84201D00120D4E746
:101B3000207840070AD52069296801F070018842A1
:101B400004D2296821F07001014329602078000740
:101B50000AD56069316801F07001884204D23168A9
:101B600021F07001014331602078C0060AD5A069D8
:101B7000316801F4E061884204D2316821F4E06107
:101B800001433160207880060CD5E1695846DBF8C6
:101B9000002002F07002914204D2026822F070022A
:101BA0000A43026000F06CF80E492A682B68C2F301
:101BB000032203F00F038A5CC95C02F01F0201F0EC
:101BC0001F01D040084A20FA01F11160074908605E
:101BD00007480068BDE8F05FFEF712BE0020005223
:101BE00018440258A86A00084C0000244800002449
:101BF0004000002430B500F043F80B4A0B490C4B71
:101C000015681468C5F3032204F00F048A5C095DAB
:101C100002F01F0201F01F01D040064A20FA01F134
:101C200019601060084630BD18440258A86A0008C0
:101C30004C0000244800002400B5FFF7DBFF0549F5
:101C40000968054AC1F30211515C01F01F01C84047
:101C500000BD00001C440258A86A000800B5FFF748
:101C6000C9FF05490968054AC1F30221515C01F029
:101C70001F01C84000BD00001C440258A86A0008AB
:101C8000454970B545480968434B103B11F038028F
:101C900008D00111082A03D0102A0BD0182A0BD023
:101CA000084670BD19688906FBD51968C1F3C101E2
:101CB000C84070BD3A4870BD3749374D18310C1DCA
:101CC00024350A68096826682D6802F0030406F0C6
:101CD0000102C1F30511C5F3CC0515FB02F200EEBC
:101CE000102AB8EE400AE9B32F4ADFED2E0AB7EE0C
:101CF000001A6CB1DFED2D1A012C01D0022C43D05B
:101D000002EE101A1068F8EE422A81EEA22A1EE0B6
:101D10001C68A40611D51B6801EE901A1168C3F364
:101D2000C103F8EE612AD84001EE900AC1F3080021
:101D3000F8EE611A81EEA22A0BE001EE901ADFEDB7
:101D40001C2A00BFF8EE611A106882EEA12AC0F3C7
:101D5000080001EE900AF8EE611A40EE201A31EE0A
:101D6000810A00E015E022EE000A1068C0F3462068
:101D7000401C00EE900AF8EE600A80EE201ABCEEDD
:101D8000C10A10EE100A70BD01EE901ADFED092AAB
:101D9000D8E7002070BD0000104402580090D00326
:101DA00040787D0100000039304402580024744A14
:101DB0000024744C20BCBE4B2DE9F05F04007DD0A4
:101DC000FF4F2078FE4D1837DFF8F493103DC00721
:101DD00048D0D9F80000396800F03800102815D034
:101DE000182803D101F0030002280FD06068B0F575
:101DF000803F12D010B1B0F5A02F18D0286820F481
:101E000080302860286820F4802009E0286880035A
:101E100028D560680028D2D024E0286840F48030BB
:101E20002860606888B1FEF7AFFC064609E02868C4
:101E300040F480202860F0E7FEF7A6FC801B6428B1
:101E40006FD828688003F7D50CE0FEF79DFC0646A6
:101E500005E000BFFEF798FC801B6428F0D82868D6
:101E60008003F7D4207841F20308D54E0C3E80075A
:101E700069D5D9F80000396810F038000ED018285C
:101E800001D188070AD0E06890B3296821F01901D0
:101E900001432960FEF778FC824631E0286840075C
:101EA00002D5E06800288AD0E168286820F019008F
:101EB00008432860FEF768FC824607E0DFE000BFC9
:101EC000FEF762FCA0EB0A000228B9D82868400798
:101ED000F6D500BFFEF752FC40451BD820694028CC
:101EE00012D0316821F47C3141EA003030602AE0C0
:101EF00018E000BFFEF748FCA0EB0A0002289FD8BC
:101F000028684007F6D5E5E7306820F47C3040F4D7
:101F10000030EBE7207C316821F0FE4141EA0060AF
:101F2000E4E70DE1286820F001002860FEF72CFCB2
:101F3000824605E0FEF728FCA0EB0A0002288DD8B7
:101F400028684007F6D42078C0065DD5D9F800008F
:101F5000DFF86CB2396800F03800ABF1040B0828E8
:101F600010D0182803D101F0030001280AD0E0693D
:101F70000028286838D040F080002860FEF704FC74
:101F8000824623E02868C00523D5E069802876D101
:101F90001FE0206A202821D0316821F0F84141EA71
:101FA0008060306030E000BF94F82010DBF8002043
:101FB00022F07C5242EA0161CBF8001024E000BF1D
:101FC000FEF7E2FBA0EB0A00022898D82868C005BB
:101FD000F6D5FEF7D3FB4045E6D8DAE7306820F0C7
:101FE000F84040F08040DCE720F080002860FEF7F9
:101FF000CBFB064605E000BFFEF7C6FB801B0228B0
:102000009DD82868C005F7D42078000729D56C48EA
:102010006169643000298046016811D041F00101F6
:102020000160FEF7B1FB064605E000BFFEF7ACFB22
:10203000801B0228C9D8D8F800008007F6D510E028
:1020400021F001010160FEF79FFB064605E000BF9D
:10205000FEF79AFB801B022872D8D8F80000800790
:10206000F6D42078800623D5A0690028286810D0EF
:1020700040F480502860FEF787FB064605E036E115
:10208000FEF782FB801B02285AD828688004F7D507
:102090000EE020F480502860FEF776FB064604E050
:1020A000FEF772FB801B02284AD828688004F7D408
:1020B000207840074FD5DFF80C81D8F8001041F4A4
:1020C0008071C8F80010FEF75FFB064605E000BF10
:1020D000FEF75AFB801B642832D8D8F80000C005F0
:1020E000F6D5374EA068603601280AD008B1052819
:1020F00013D0306820F001003060306820F0040018
:1021000002E0306840F001003060A06841F2883A97
:1021100090B1FEF739FB80460AE0306840F00400D9
:102120003060EEE7FEF730FBA0EB0801514507D821
:1021300030688007F6D50EE0FEF726FB804607E004
:1021400084E000BFFEF720FBA0EB080151457DD8DD
:1021500030688007F6D4606AB0B3DFF86480D9F8DD
:10216000001008F120084FF6F87B08F10409C1F3CC
:10217000C2010329A8F1040A69D00228286820F0C6
:102180008070286003D0FEF7FFFA044684E0FEF773
:10219000FBFA064605E000BFFEF7F6FA801B0228B0
:1021A00077D828688001F7D4E26A40F2F3313868C2
:1021B00054F8283F884340EA02101843386004E08E
:1021C0001044025800480258B5E0217B434622895A
:1021D0004FF4FE0C208A4FF0FE474902267D521E26
:1021E000401EA1F50071C2F308088AB2761E0CEAFF
:1021F000004042EA08020243504607EA06610A43E9
:102200001A60DAF8002022F00102CAF80020D9F89A
:102210000020266A22EA0B0242EAC602C9F8002020
:10222000DAF80010A26921F00C011143CAF800107D
:102230000168E26921F0020111430160016841F483
:1022400080310160016841F4003101E021E027E0C4
:102250000160016841F480210160016841F00101E1
:102260000160286840F080702860FEF78DFA04460F
:1022700005E000BFFEF788FA001B022809D828688D
:102280008001F7D557E000BFFEF77EFA001B022859
:1022900002D90320BDE8F09F28688001F4D44AE009
:1022A00039680128D8F8000021D0A26A01F00303A0
:1022B00093421CD1E26AC1F305118A4217D1216B06
:1022C000C0F30802491E8A4211D1616BC0F3462255
:1022D000491E91420BD1A16BC0F30642491E9142A7
:1022E00005D1E16BC0F30660491E814201D0012097
:1022F000D0E7A16C4E46D9F80000C0F3CC00814273
:1023000019D0DAF80000554620F00100CAF80000A4
:10231000FEF73AFA4FEA0007FEF736FAB842FBD06A
:10232000A26C306820EA0B0040EAC20030602868E6
:1023300040F0010028600020ACE77047704770470C
:10234000704700002DE9FC5F0446806B0E460321B8
:1023500084F83010002703285CD0B6F5004F59D020
:10236000B6F5804F4FF000054FF400684FF08069DC
:1023700004D006B3606B40F000603FE000950021A0
:102380000195206801F06AFC80011CD46946204652
:1023900001F0ACFC70BB019840032DD5B4F844109B
:1023A0002068090401F00EF920BB206802211DE01D
:1023B000606B284322E0009500210195206801F020
:1023C0004DFC800101D54546F2E76946204601F003
:1023D0008DFC78B90198C0030ED5B4F8441020687C
:1023E000090401F0EFF828B92068002101F034F960
:1023F0000028DDD00546DBE74D46D9E76063606B1A
:102400004FF4007BDFF8B8A040B121680127C1F884
:1024100038A042E0606B40F08050EFE700214FF4BD
:102420008030FEF77FFC010032D0264D3346D4E9E0
:1024300004C0B1FBF5F8D4E90192804510D9A66D2E
:102440005E450DD0B6F5807F11D04FEA6506E0B14C
:102450004FEA4008B1FBF8F8B04501D9B1FBF5F0FF
:102460004946CDE900C0206801F0FCFB15E0164E9E
:1024700030B14FEA4008B1FBF8F8A84502D8EFE7C1
:10248000A942EDD9B1FBF6F0EAE7B142E6D8E7E7B9
:10249000606B012740F0006060632068594601F0DE
:1024A000C2F830B122680127C2F838A0616B01433D
:1024B0006163012084F830003846BDE8FC9F0000CD
:1024C000FF0FE01F80F0FA0200E1F5057047000001
:1024D000F0B5C26D920F0A70C26DC2F383624A708A
:1024E000C26DC2F301628A70C26D120CCA70B0F87C
:1024F0005C20120A0A7190F85C204A71026E120D7B
:10250000CA80026EC2F303420A72B0F86020C2F3BE
:10251000C0324A72B0F86020C2F380328A72B0F8DA
:102520006020C2F34032CA72B0F860200026C2F3C5
:1025300000320A734E730122836B4FF4007463B14F
:10254000012B3AD0036850499963416B41F08051A7
:10255000416380F830200120F0BDB0F86030456E56
:102560009B051B0D43EA95730B61436EC3F3C26376
:102570000B75436EC3F302634B75436EC3F3425353
:102580008B75436EC3F38243CB75436EC3F3C23383
:102590000B760D696D1C85640B7E03F007039B1C95
:1025A0009D4085640B7A446503F00F0302FA03F340
:1025B0005F0A7D43C0E913350EE090F86050436E2A
:1025C000AD06AD0A45EA13430B610B695B1C9B0228
:1025D0008364C0E913434465B0F86430C3F38033C7
:1025E0004B76B0F86430C3F3C6138B7690F8643042
:1025F00003F07F03CB76836EDB0F0B77836EC3F321
:1026000041734B77836EC3F382638B77836EC3F31F
:102610008353CB77836EC3F3405381F8203081F826
:102620002160836EC3F3004381F82230B0F8683034
:10263000C3F3C03381F82330B0F86830C3F380337C
:1026400081F82430B0F86830C3F3403381F8253086
:10265000B0F86830C3F3003381F82630B0F8683042
:10266000C3F3812381F82730B0F86830C3F3012326
:1026700081F8283090F86800C0F3460081F82900FE
:1026800081F82A200020F0BDFF0FE01F826B0A6056
:10269000C26B4A60026C8A60426CCA60826C0A61DA
:1026A000C26C4A61026D8A61406DC861002070474A
:1026B00070B5B0F84410002504460068090401F024
:1026C000B8F818B1616B0143616304E02068002130
:1026D00001F0C4FA0546C5F3432070BD2DE9F04171
:1026E000054690F8300090B00C460026032810D024
:1026F0006946284601F042FC2A4F4FF0010860B1BC
:102700002A68012697636A6B02436A6385F8308002
:1027100039E0012010B0BDE8F08100994FF47F400E
:10272000C1F3811121700099C1F3401161700099CA
:1027300000EA112242EA11616180019909BA6160DF
:10274000029921720299090A61720299C1F3035137
:10275000A172DDE9022100EA1240C9B20843A0815A
:102760000398C0F38520A0730398C0F30120E073A1
:102770000398C0F303102074039800F00F006074F6
:102780000498000EA07428684FF4007100F04BFF0D
:1027900028B12A6801269763686385F8308030463F
:1027A000B8E70000FF0FE01F2DE9F843044600687A
:1027B000E56A416B09041BD5290719D5D4E90950ED
:1027C000202813D30026206801F062FA020A28703C
:1027D000010C6A70030EA970761CEB70082E05F1CF
:1027E0000405F0D3A06A2038C4E90950BDE8F88395
:1027F000416B0127DFF8EC810026C90551D539026C
:102800004CF23A12816329072068C16B21EA020168
:10281000C1632068C16B21F08051C1632068C16829
:1028200021F04001C16018D515F0220F09D02068B1
:1028300001F04CF828B1616B014361632046FFF75A
:1028400045FE2168AA07C1F8388084F83070E66236
:1028500023D1204600F0B4FAC8E72806C6D5206880
:1028600015F0220F86622068C6622068066509D0CE
:10287000206801F02BF828B1616B014361632046A9
:10288000FFF724FE15F0300F84F83070E66202D0B6
:10289000204600F095FAA807A8D0204600F08CFA50
:1028A000A4E7416B490421D529071FD5D4E9075076
:1028B00020289BD3002628780090697840EA0120E0
:1028C0000090A97840EA01400090E9782D1D40EA87
:1028D000016000902068694601F0F2F9761C082E2C
:1028E000E9D3206A2038C4E907507FE7416B11F033
:1028F0003A0F416B58D0890703D5616B41F0020153
:102900006163416B090703D5616B41F008016163A5
:10291000416B890603D5616B41F020016163416B16
:10292000C90603D5616B41F010016163C0F83880BE
:102930002068C16B21F49D71C1632068C16821F0DA
:102940004001C1602068C16A41F40051C162206841
:10295000C16841F08001C160206800F0B7FF626B80
:102960002B074FF4006140EA020060632068C268F0
:1029700022F08002C2602068816303D584F8307041
:10298000E6620DE028068BD5606B002888D02068B1
:10299000C16B21F08051C1632068066584F83070F6
:1029A0002046FFF793FD21E7C9009ED54FF08051E7
:1029B00081632068006D40074FEA856008D40028D5
:1029C000204602DAFFF7BCFC10E7FFF7B7FC0DE783
:1029D0000028204602DAFFF7B2FC07E7FFF7ADFC5C
:1029E00004E700003A0F0018F0B5040085B020D0CD
:1029F00094F83000002518B92046257600F098F8A4
:102A0000042084F83000204600F03CF888B969467C
:102A10002046FFF763FE60B99DF81010A26B9DF889
:102A20001100012A08D0A5652046E168FFF78AFC5D
:102A300058B1012005B0F0BD014302D04FF4007041
:102A400001E04FF48070A065EEE7FDF79DFE0127E1
:102A5000064604E0FDF798FE801B401C0AD0204685
:102A6000FFF726FE0428F5D16563E56284F830702F
:102A70000020DFE74FF00040606384F830700320EF
:102A8000D8E700002DE9FC414FF0000804464FF460
:102A900080304146FEF746F905004FF0010723D08C
:102AA0002048434642464146B5FBF0F6CDE9008654
:102AB000206801F0D7F8206801F0E4F81EB170003A
:102AC000B5FBF0F52DB11848B0FBF5F0401CFDF753
:102AD00025FD204601F0F8F960B100BF84F83070A0
:102AE000616B0143616319E04FF0006084F830705E
:102AF000606313E0204601F06BF90028EED12068F6
:102B00004FF4007100F08FFD002808D022680749BB
:102B10009163616B0143616384F830700120BDE80B
:102B2000FC81000000350C0010210100FF0FE01FA8
:102B300070B5B6B00446142130A8FDF703FCC021DF
:102B40006846FDF7FFFB27492068884248D10020EE
:102B500014904FF480310446CDE900106846FEF72A
:102B600045FA08B1FDF797FC1F48016841F4007170
:102B70000160006800F4007035901B48001D01687A
:102B800041F002010160016801F002013591016824
:102B900041F008010160006809210225329400F02B
:102BA0000800359003264CF21800CDE93361CDE9D9
:102BB00030050E4830A9FDF7C3FC0B213294C0202C
:102BC000CDE93361CDE93005094830A9FDF7B8FCFE
:102BD00000227C201146FDF74FFE7C20FDF73EFED3
:102BE00036B070BD00240248DC440258000402588C
:102BF000000C02582DE9F04F87B0994617460D4654
:102C00000446FDF7C1FD06903DB194F8300001285F
:102C100007D0606B40F000500DE0606B40F000604A
:102C200009E0226D002007EB09016063914204D99D
:102C3000606B40F000706063A8E0032184F83010FE
:102C40002168C862A16B012900D07F024FF0020AFF
:102C5000CDE903A090264FF0FF324FEA49230590BB
:102C60008DE84C0080462068694600F08DFE2068A3
:102C7000B9F1010F4FF00106C16841F04001C16098
:102C800006D9C4F82CA03946206800F03DFD04E0C8
:102C9000E6623946206800F051FDDFF814A150B11A
:102CA0002368C3F838A0616B0143616384F8306026
:102CB000C4F82C806AE0DDF804B01FE0406B00042B
:102CC00014D5BBF1200F11D30027206800F0E0FFDE
:102CD000020A2870010C6A70030EA9707F1CEB7049
:102CE000082F05F10405F0D3ABF1200BFDF74CFDE7
:102CF0000699411A1098814221D200B32068416B95
:102D000011F4957FDAD0C16821F04001C1602068DC
:102D1000416BC90522D5B9F1010F1FD9A16B032958
:102D20001CD000F0D3FDC8B12368C3F838A0626B93
:102D30000243626384F83060C4F82C8026E0226885
:102D4000C2F838A0606B40F00040606384F83060E7
:102D5000C4F82C80032007B0BDE8F08F2068416BD9
:102D6000090706D5C0F838A0616B404641F008015C
:102D700008E0416B89070BD5C0F838A0616B40466D
:102D800041F00201616384F83060E0620120E2E713
:102D9000416B890606D5C0F838A0616B404641F00A
:102DA0002001EFE70349816384F830600020D2E717
:102DB000FF0FE01F3A0F001810B5FDF757FB10BDCD
:102DC00010B5FDF765FB10BD2DE9F04F89B09A46AF
:102DD00016460D460446FDF7D7FC06903DB194F823
:102DE0003000012807D0606B40F000500DE0606BB0
:102DF00040F0006009E0226D002006EB0A016063EC
:102E0000914204D9606B40F000706063B2E003212E
:102E100084F830102168C862A16B012900D07602C5
:102E20004FF0FF314FEA4A22059090230490CDE9FC
:102E30000230CDE9001280462068694600F0A4FD0A
:102E40002068C168BAF1010F41F04002C26006D9A2
:102E50002020E0622068314600F062FD05E010208D
:102E6000E0622068314600F075FDDFF830B1060001
:102E70004FF001090AD02368C3F838B0606B3043C3
:102E8000606384F83090C4F82C8073E00198089057
:102E900027E0406B40041CD50898202819D3002750
:102EA00028780790697840EA01200790A97840EADD
:102EB00001400790E9782D1D40EA016007902068E5
:102EC00007A900F0FDFE7F1C082FE9D308982038E1
:102ED0000890FDF759FC0699411A1298814221D2B7
:102EE00000B32068416B11F48D7FD2D0C16821F00E
:102EF0004001C1602068416BC90521D5BAF1010FBD
:102F00001ED9A16B03291BD000F0E0FCC0B12568DD
:102F1000C5F838B0616B0143616384F83090C4F840
:102F20002C8027E02368C3F838B0626B32436263B9
:102F300084F83090C4F82C80032009B0BDE8F08FED
:102F40002068416B090707D54946C0F838B0626B65
:102F5000404642F0080209E0416B89070CD549461A
:102F6000C0F838B0626B404642F00202626384F8F7
:102F70003010E0620120E0E7416BC90607D5494601
:102F8000C0F838B0626B404642F01002EEE7044AE7
:102F9000826384F830900020CFE70000FF0FE01F2D
:102FA0003A0F0018401EB0F1807F10B501D3012008
:102FB00010BD4FF0E02460610F21601701F0CAFCE2
:102FC0000020A0610721216110BD30B590F8841068
:102FD000012918D0012280F884202421C0F888100B
:102FE0000022202401680B680D6823F0005325F0AF
:102FF00001050D60426601680B60C0F8884080F8EA
:103000008420104630BD022030BD70B5044690F8D3
:10301000840001281DD0012284F884202420C4F8D3
:10302000880020680568026822F0010202602068BA
:10303000826822F060620A438260204601F056F9FD
:103040002268202100201560C4F8881084F88400CC
:1030500070BD022070BD70B5044690F88400012850
:103060001DD0012284F884202420C4F88800206820
:103070000568026822F0010202602068826822F07E
:1030800060420A438260204601F030F92268202124
:1030900000201560C4F8881084F8840070BD0220F8
:1030A00070BD10B5040003D0D4F8880010B107E05B
:1030B000012010BD002084F88400204600F026F88E
:1030C0002420C4F888002068016821F00101016013
:1030D000204601F011FA0128EBD0A06A10B1204679
:1030E00001F026F92068416821F490414160206890
:1030F000816821F02A0181602068016841F00101A6
:1031000001602046BDE8104001F076B910B5B6B0B8
:103110000446142130A8FDF715F9C0216846FDF7D3
:1031200011F91949206888422BD100201F900121F4
:103130000446CDE900106846FDF758FF08B1FDF7D9
:10314000AAF91248016841F010010160006800F01E
:10315000100035900D481038016841F00101016000
:10316000006830AB022100F0010035904FF4C060E0
:10317000072283E81300064830A9CDE93342FDF762
:10318000DFF936B010BD000000100140F0440258D5
:10319000000002582DE9F8430446D0F8880098460C
:1031A00016460D46202802D00220BDE8F883A5B1BE
:1031B0009EB10021C4F890102120C4F88800183472
:1031C000FDF7E2FA814654F8100CA687E68720271F
:1031D000183CB0F5805F02D003E00120E5E72069EC
:1031E00010B12E46002510E000260EE0802120467A
:1031F00001F058FBC0B9DEB116F8010B21688862F6
:10320000B4F85600401EA4F85600B4F856004B46D9
:103210004FF00002CDF800800028E7D14FF04001C8
:10322000204601F03FFB48B1C4F888700320BCE79A
:1032300035F8020B2168C0F30800E0E7C4F8887095
:103240000020B2E7FEE700000449054810B5FDF78D
:1032500024F90249891E087010BD000006000024F0
:103260006C6A000800B587B014216846FDF76AF85B
:103270001A48016841F004010160016801F004018D
:103280000591016841F080010160016801F0800151
:103290000591016841F002010160016801F002013D
:1032A0000591016841F001010160016801F001012F
:1032B0000591016841F008010160006803210022C6
:1032C00000F0080005904FF400508DE80700044816
:1032D0006946FDF735F907B000BD0000E04402582B
:1032E00000080258074800214FF4804310B5044CF1
:1032F0001722C0E90041C0E90213C0E9041210BD61
:10330000002402485C0000241848002110B5164C27
:103310000C224FF4E1330460C0E90131C160C0E91F
:1033200004128161C161016241628162FFF7B9FEED
:1033300008B1FDF7B0F80D480021FFF78CFE08B189
:10334000FDF7A9F809480021FFF75FFE08B1FDF776
:10335000A2F80648FFF739FE002803D0BDE8104068
:10336000FDF799B810BD000000100140D8000024FE
:10337000FEE7FEE7704700002DE9F047454D0446A3
:1033800089464FF0000A2868C04380070AD0414EA2
:10339000283E306820F080603060FDF7F5F9074680
:1033A000B04608E00120BDE8F08700BFFDF7ECF96A
:1033B000C01B022867D8D8F800000001F6D42068A6
:1033C00029684FF4FE0721F47C313E0241EA0030C7
:1033D0002860207AA389B4F804C040022D4D2D49FD
:1033E0005B1E227CACF1010C1035091DA0F50070AC
:1033F00080B2521ECCF3080C07EA034340EA0C00EB
:10340000184306EA0262104328600868626920F0E7
:10341000C000104308600A68A06922F0200202433D
:103420000A60281D0A6822F010020A6002684FF63E
:10343000F873E4699A4342EAC40202600868B9F189
:10344000000F40F010020A6011D00868B9F1010FB6
:1034500011D040F400100860D8F80000444640F055
:103460008060C8F80000FDF78FF905460DE0086898
:1034700040F40020EFE740F48010ECE7FDF784F91A
:10348000401B022801D903208DE720680001F5D5F3
:10349000504688E7284402582DE9F047454D044638
:1034A00089464FF0000A2868C04380070AD0414E81
:1034B000283E306820F080503060FDF765F90746FF
:1034C000B04608E00120BDE8F08700BFFDF75CF9D9
:1034D000C01B022867D8D8F800008000F6D42088E6
:1034E00029684FF4FE0721F07C713E0241EA00504A
:1034F0002860207AA389B4F804C040022D4D2D49DC
:103500005B1E227CACF1010C1835091DA0F5007082
:1035100080B2521ECCF3080C07EA034340EA0C00C9
:10352000184306EA0262104328600868626920F4C2
:103530004060104308600A68A06922F400720243E8
:103540000A60281D0A6822F480720A6002684FF639
:10355000F873E4699A4342EAC40202600868B9F168
:10356000000F40F480720A6011D00868B9F1010FB1
:1035700011D040F080700860D8F80000444640F058
:103580008050C8F80000FDF7FFF805460DE0086818
:1035900040F48000EFE740F40000ECE7FDF7F4F8BA
:1035A000401B022801D903208DE720688000F5D553
:1035B000504688E7284402580148FFF7F5B8000054
:1035C0005C00002430B585B0044637204FF480728B
:1035D0000DF1080CCDE900100023694615012046C5
:1035E0008CE82C0000F058FB372141F2883220464D
:1035F00000F0DEF905B030BD30B585B004462920B5
:103600004FF480720DF1080CCDE9001000236946DB
:10361000150120468CE82C0000F03EFB204600F00F
:1036200083FA05B030BD30B50446102085B00DF1E9
:10363000080C02010502CDE90010002369468CE860
:103640002C00204600F028FB102141F28832204651
:1036500000F0AEF905B030BD30B585B004460620A7
:103660004FF480720DF1080CCDE90010002369467B
:10367000150120468CE82C0000F00EFB062141F2DB
:103680008832204600F094F905B030BD30B585B0E1
:103690000546002469464FF480500094019402943A
:1036A000CDE90340284600F0F7FA0B4A4FF4FA50F0
:1036B00041F288311268B2FBF0F04843401E03D259
:1036C0004FF0004005B030BD696B0906F6D50349DF
:1036D0002046A963F6E7000048000024C50020004A
:1036E00030B50821044685B04FF4D5704A01002357
:1036F0004D028DE82F006946204600F0CDFA2046A5
:1037000000F07CFA05B030BD30B585B0044612201B
:103710004FF480720DF1080CCDE9001000236946CA
:10372000150120468CE82C0000F0B6FA122141F277
:103730008832204600F03CF905B030BD30B585B088
:10374000044611204FF480720DF1080CCDE90010F1
:1037500000236946150120468CE82C0000F09CFAF5
:10376000112141F28832204600F022F905B030BD27
:1037700030B585B0044607204FF480720DF1080C77
:10378000CDE9001000236946150120468CE82C0085
:1037900000F082FA072141F28832204600F008F951
:1037A00005B030BD10B585B00446002102204FF4AD
:1037B0004072C3020493CDE90010CDE902216946AD
:1037C000204600F069FA204600F084F905B010BDEB
:1037D00030B585B0044609200DF1080C0023CDE971
:1037E00000104FF4407269464FF4805520468CE833
:1037F0002C0000F051FA204600F06CF905B030BD05
:1038000010B585B00446002133204FF48072CDE915
:103810000221CDE90010130169462046049300F00F
:103820003BFA332141F28832204600F0C1F805B05E
:1038300010BD30B585B004460D204FF480720DF1F7
:10384000080CCDE9001000236946150120468CE8DC
:103850002C0000F021FA0D2141F28832204600F0C0
:10386000A7F805B030BD30B585B00C46002105463F
:1038700003204FF48072CDE90221CDE9001013013D
:1038800069462846049300F007FA03212246284699
:1038900000F06EF905B030BD10B585B004460021CA
:1038A0000D204FF48072CDE90221CDE90010130103
:1038B00069462046049300F0EFF90D2141F2883269
:1038C000204600F075F805B010BD000010B585B0B9
:1038D00004464FF4807200200C2113018DE807008C
:1038E000CDE90303E06840F08000E060E06820F08C
:1038F0004000E0606946204600F0CEF9074A0C21FE
:10390000204600F055F8E168B0F1007F21F0800119
:10391000E16000D1002005B010BD000000E1F50518
:1039200030B585B0044619204FF480720DF1080CB3
:10393000CDE9001000236946150120468CE82C00D3
:1039400000F0AAF9192141F28832204600F030F83F
:1039500005B030BD30B585B0044618204FF48072F4
:103960000DF1080CCDE90010002369461501204631
:103970008CE82C0000F090F9182141F288322046A2
:1039800000F016F805B030BD70B50A6842624A68AA
:103990008262C46AD1E90225D1E9043624F0FF012C
:1039A0002A4333431A431143C162002070BD000013
:1039B00030B5464D4FF4FA53434C2D68B5FBF3F345
:1039C00053435B1E02D24FF0004030BD426B224297
:1039D000F7D09204F5D4426B520703D504218163DA
:1039E000084630BD426BD20702D00121816306E058
:1039F000354A803282630269D2B28A4201D0012004
:103A000030BD002100F02AF93149084201D10020DF
:103A100030BD002802DA4FF0007030BD410001D502
:103A2000402030BD810001D5802030BDC10002D5CD
:103A30004FF4807030BD010102D54FF4007030BDED
:103A4000410102D54FF4806030BDC10102D54FF471
:103A5000006030BD010202D54FF4805030BD4102FC
:103A600002D54FF4005030BD810202D54FF48040A2
:103A700030BDC10202D54FF4004030BD410302D534
:103A80004FF4003030BD810302D54FF4802030BDAB
:103A9000C10302D54FF4002030BD010402D54FF41C
:103AA000801030BD410402D54FF4001030BD8104B8
:103AB00002D54FF4800030BD000702D54FF400005E
:103AC00030BD4FF4803030BD450020004800002458
:103AD00008E0FFFD124B4FF4FA5141F288321B68A7
:103AE000B3FBF1F15143491E02D24FF00040704741
:103AF000426B12F0450FF6D09204F4D4416B4907A3
:103B000003D50421816308467047416BC90703D080
:103B10000121816308467047024981630020704794
:103B200048000024C50020000F4B4FF4FA5141F229
:103B300088321B68B3FBF1F15143491E02D24FF0AA
:103B400000407047426B12F0450FF6D09204F4D457
:103B5000416B490703D50421816308467047034937
:103B6000816300207047000048000024C500200049
:103B700030B5204D4FF4FA5341F288342D68B5FB2F
:103B8000F3F363435B1E02D24FF0004030BD446B41
:103B900014F0450FF6D0A404F4D4436B5B0703D5AF
:103BA00004218163084630BD436BDB0702D001214D
:103BB000816303E00369DBB28B4201D0012030BD99
:103BC0000D498163002100F049F810F4604F04D0E2
:103BD000410406D54FF4005030BD000C1080002089
:103BE00030BD000402D54FF4805030BD4FF480301A
:103BF00030BD000048000024C5002000144B4FF4E5
:103C0000FA5141F288321B68B3FBF1F15143491E6E
:103C100002D24FF000407047426B12F0450FF6D0D1
:103C20009204F4D4416B490703D50421816308460B
:103C30007047416BC90703D0012181630846704773
:103C4000416B490601D54021816300207047000087
:103C500048000024006800F00300704708444069F1
:103C60007047000030B511434268DDE903542B432F
:103C7000034D194321432A400A434260002030BDCE
:103C8000002CC0FF016841F0030101600020704773
:103C9000D0F880007047000070B5084D0A68826057
:103CA000C368D1E90126D1E903412B4032430C43DB
:103CB00022431343C360002070BD0000C0E0FEFF3C
:103CC0000968C0F8801000207047000010B5064C4D
:103CD00001202070FCF78EFB18B9207820F001003D
:103CE0002070207810BD0000000000242DE9F04F66
:103CF00087B00D460446FCF747FD00260690206875
:103D00000821B3463746FFF78EFC002833D1B4F8BC
:103D1000441020680904FFF755FC00282BD1431EEE
:103D20004FF008094FF0020A4FF0300C4FF0010835
:103D3000CDF80CA08DE80812CDE90468206869462A
:103D4000FFF722FE2068FFF75BFD002813D140F249
:103D50002A582068416B11EA080F06D1416B09030C
:103D600015D4BBF1000F09D011E0416B090717D53D
:103D7000C0F83890082007B0BDE8F08FFFF788FF43
:103D800006462068FFF784FF07464FF0010BFCF75B
:103D9000FBFC0699401A401CDBD14FF00040EAE7DB
:103DA000416B890703D5C0F838A00220E3E7416BD7
:103DB000890603D5202181630846DCE7034A39BA26
:103DC00033BA82630020C5E90013D4E73A0F001824
:103DD00070B58CB004460020ADF82C00FCF7D4FC84
:103DE00005462068FFF736FF002853D0A06B032854
:103DF00041D02068FFF7D6FC002849D12068002177
:103E0000FFF72CFFE06604212068FFF727FF2067FB
:103E100008212068FFF722FF60670C212068FFF768
:103E20001DFFA16BA067032925D041F2883600BF92
:103E3000BDF82C0088B3A06B03281CD0BDF82C1053
:103E4000616420680904FFF7C3FC002820D12068C2
:103E50000021FFF703FFE06504212068FFF7FEFE65
:103E6000206608212068FFF7F9FE60660C212068B3
:103E7000FFF7F4FEA06604212068FFF7EFFE000DB7
:103E8000694620642046FEF723FBA8B14FF080501E
:103E90000CB070BD4FF08060FAE7FFE720680BA917
:103EA000FFF7E1FC0028F3D1FCF76EFC401BB042A9
:103EB000BED34FF00040EBE7B4F84410206809048B
:103EC000FFF756FCE4E700002DE9F84F0026044612
:103ED0003546B04600960068FFF7D8FB002829D188
:103EE0002068FFF7FDFBB0F1004F4FF001094FF0E4
:103EF000805B4FF6FF7702D0C4F83C9008E0E663A1
:103F00002068FFF7C3FB002814D1E06B01281ED105
:103F100020680021FFF756FB58B918E020680021FF
:103F2000FFF750FB002805D120685146FFF764FBDE
:103F300010B15846BDE8F88F20680021FFF78EFECB
:103F40004FEAD07805460098401C009002E0DFF868
:103F500028A00098B84202D2B8F1000FDED0009835
:103F6000B84202D34FF08070E4E76800A66301D541
:103F7000C4F838900020DDE7000010C12DE9F041C1
:103F800086B00D460446FCF7FFFB0021074620687B
:103F9000FFF764FE800104D54FF4006006B0BDE871
:103FA000F08120684021FFF73EFBC0B9B4F844100F
:103FB00020680904FFF706FB88B940214FF0FF3065
:103FC00060224FF0010C022300268DE84F1020687C
:103FD0006946FFF7D9FC2068FFF75EFC98B1616B7A
:103FE0006163DBE7406B000407D500262068FFF71C
:103FF0004FFE761C082E01C5F8D3FCF7C5FBC01B8D
:10400000401C02D127E04FF000482068416B11F4BA
:10401000957FE7D0416B090701D50820BEE7416BCA
:10402000890701D50220B9E7406B80060AD5202018
:10403000B4E700BFFFF72CFE01C5FCF7A5FBC01BD2
:10404000401C08D02068416BC904F3D401460348E2
:1040500088630020A2E74046A0E700003A0F00185E
:1040600070B5064C054601202070FCF7CFF918B951
:104070002846FFF72BFE2070207870BD000000243A
:10408000144810B58AB014460078C00702D0032047
:104090000AB010BD39B1012907D002290BD003297C
:1040A00010D00420F4E70020F2E76846FCF79CF902
:1040B000069900200CE06846FCF796F90799002065
:1040C0002180E5E76846FCF78FF907990020490A47
:1040D0002160DDE70000002470B501241D4616466E
:1040E0000846A31E2A463146FCF7B0F928B900BF9E
:1040F000FCF780F90028FBD10024204670BDFFF7B3
:10410000E5BD000070B501241D4616460846A31EF5
:104110002A463146FCF7ACF928B900BFFCF76AF92A
:104120000028FBD10024204670BD7047FCF732BB4D
:1041300070B59CB04C216846FCF704F9202113A807
:10414000FCF700F90220FCF7C9FB2E4900242E4899
:104150000A6822F001020A600A68026842F44042DA
:104160000260026802F440421B9202689204FCD58D
:10417000264A136843F002031360126802F0020239
:104180001B92026842F44042026002680A6842F0F0
:1041900001020A60096801F001011B9101688904AC
:1041A000FCD5022009900DF1280C01260096C103D0
:1041B00001910522C02304268CE80D00CDE90D06EF
:1041C00008250F90CDE9105468461294FDF7F4FDD0
:1041D00008B172B6FEE740201A903F210301CDE9F5
:1041E00016500322CDE9180313AB13A883E8160079
:1041F0000421FDF7D1FB002801D072B6FEE71CB008
:1042000070BD00002C04005818480258F4440258AD
:104210002C48F0B52C4A016841F470010160106827
:1042200000F00F00072804D2106820F00F00C01D16
:10423000106026490020254C10340B68244D43F0B3
:1042400001030B6020600B682B400B60136803F0C8
:104250000F03072B04D9136823F00F03DB1D136032
:104260001A4C1C4A18341C4B261D371D2060174C55
:104270001A4D28343060261D3860371D23603B1DE1
:1042800035601C1D3A60251D2E1D1860331D2260EF
:104290002860326018600A680C4B114C22F48022AE
:1042A00060330A60186020686FF30F00B0F1005FA0
:1042B00003D20C490120C1F8080143F2D2000A4997
:1042C0000860F0BD88ED00E0002000520044025874
:1042D0007FEDF6EA80020101000202020000FF0108
:1042E0000010005C008000510040005230B5416E6B
:1042F000B9B101680D4B03F108048A688968C2F3FB
:104300004262490F5D5C615C2D01B5FBF1F1A0F8E3
:104310006A10995CA25C0901B1FBF2F1A0F8681087
:1043200030BD0121A0F86A10F8E70000986A000883
:1043300090F82810C90706D00168C36A4A6822F4B9
:1043400000321A434A6090F82810890706D50168A0
:10435000036B4A6822F480321A434A6090F82810AE
:10436000490706D50168436B4A6822F480221A4344
:104370004A6090F82810090706D50168836B4A68DF
:1043800022F400421A434A6090F82810C90606D564
:104390000168C36B8A6822F480521A438A6090F8DD
:1043A0002810890606D50168036C8A6822F4005239
:1043B0001A438A6090F82810490611D50168436CA9
:1043C0004A6822F480121A434A60416CB1F5801F9A
:1043D00006D10168836C4A6822F4C0021A434A601D
:1043E00090F82810090606D50168C26C486820F4C8
:1043F00000201043486070472DE9F843002504462B
:10440000C0F89050FCF7C0F98046206820266FF075
:104410007E470068000713D500224346310420463A
:10442000009700F03FFA58B1216851E8000F20F0E2
:10443000800041E80002002AF6D1C4F8886021E03B
:1044400020680068400722D5002243464FF48001CF
:104450002046009700F026FAC8B1206850E8001FF7
:1044600021F4907140E80012002AF6D1206808304B
:1044700050E8001F21F0010140E80012002AF5D1A8
:10448000C4F88C60032084F88450BDE8F883C4F835
:104490008860C4F88C60E5662567002084F8845045
:1044A000F3E7000010B5026852E8001F21F4907194
:1044B00042E80013002BF6D10E4B0268083252E896
:1044C000001F194042E80014002CF6D1C16E0129EA
:1044D00008D1026852E8001F21F0100142E80013E1
:1044E000002BF6D100212022C0F88C20C166416744
:1044F00010BD0000FEFFFFEF2DE9F0430446806889
:10450000D84E87B0D84B2168D4E90427D4F81CC012
:1045100010430A68002547EA0C073843324002433B
:104520000A602068E268416821F44051114341600B
:104530002268A1699A4201D0206A01439768DFF896
:104540002CC3CB4ECB4807EA0C070F43976021687A
:10455000676ACA6A22F00F023A43CA622268B2420C
:104560000ED1006800F03800182873D047DCB8B3CB
:10457000082879D010286FD178E028287ED17BE0F8
:10458000BD498A4209D1006800F00700062875D2AB
:10459000DFE800F0546A6C6E7072B8498A4209D143
:1045A000006800F00700062868D2DFE800F0475DE9
:1045B0005F616365B2498A4209D1006800F0070073
:1045C00006285BD2DFE800F03A5052545658AD4905
:1045D0008A420BD1006800F0070006284ED200E0A6
:1045E00010E0DFE800F02B4143454749A6498A42E5
:1045F0000AD1006800F03800182839D0B7DD20282B
:10460000BBD13CE001203AE0A0498A4209D10068D0
:1046100000F00700062831D2DFE800F01026282A33
:104620002C2E9B498A420BD1006800F00700062817
:1046300024D2DFE800F003191B1D1F2100201EE01B
:104640009A421BD18B48001D006800F00700062825
:1046500014D202E00CE007E010E0DFE800F0030510
:1046600007090B0D02200AE0042008E0082006E0FC
:10467000102004E0202002E0402000E08020854956
:10468000DFF814829A42854A4FF400434FEA21171B
:104690004FF000064ED110281AD006DC022809D0AF
:1046A00004280BD008287CD10DE020283ED04028DB
:1046B00077D13DE0FCF73CF9014610E06846FCF795
:1046C000EDF901990BE003A8FCF78AFA049906E0DA
:1046D0001068800605D51068C0F3C100C1400029EC
:1046E00070D0606A676838F8102007EB4703B1FBA9
:1046F000F2F0834255D8B0EB073F52D8002308466A
:104700001946FBF7E7FD02467808130E120243EA4A
:10471000012110183A4671410023FBF7DBFD604A86
:10472000A0F5407191423CD821688FE03946D8E726
:104730001946D6E7D4F81CC04FF6EF799C4546D110
:10474000082819D005DC58B101280CD0042875D1EF
:104750000DE0102815D0202835D040286ED134E047
:10476000FDF76AFA01E0FDF779FA014610E06846C4
:10477000FCF794F901990BE003A8FCF731FA0499CE
:1047800006E01068800604D51068C0F3C100C1407F
:10479000C1B1636A606838F81330B1FBF3F14900C6
:1047A00000E04BE001EB5001B1FBF0F0A0F1100193
:1047B000494543D84FF6F0732168C0F342021840D0
:1047C000104343E043E03946E3E71946E1E70828B0
:1047D00019D005DC58B101280CD004282ED10DE0E9
:1047E000102815D020282BD0402827D12AE0FDF70B
:1047F00023FA01E0FDF732FA014610E06846FCF7C3
:104800004DF901990BE003A8FCF7EAF9049906E0D9
:104810001068800604D51068C0F3C100C140B1B172
:10482000636A606838F81330B1FBF3F101EB5001B3
:10483000B1FBF0F0A0F11001494505D9012506E0D2
:104840003946EDE71946EBE7216880B2C8600120E0
:10485000A4F86A00A4F8680028466667A66707B04F
:10486000BDE8F083F369FFCF000C0058FFF4FF119F
:1048700000100140544402580044004000480040E9
:10488000004C0040005000400014014000780040FF
:10489000007C00400090D003806A00080044025869
:1048A000FFFC0F002DE9F047994617460E460446D7
:1048B000089D4FF000082FE0681C2DD0FBF764FF27
:1048C000A0EB0900A84214D89DB1206801684907EF
:1048D00022D5C169C94309070DD4082505622046C0
:1048E000FFF7E0FDC4F89050012084F88480BDE813
:1048F000F0870320FBE7C069C04300050CD42168A2
:104900004FF4006008622046FFF7CCFD2021C4F878
:10491000901084F88480ECE72068C06936EA0000D3
:1049200004D00020B842C7D00020E0E70120F9E71A
:10493000FEE700000FB4054B10B503A9044A029826
:1049400000F028F810BC5DF814FB0000015F0008BF
:1049500058000024090700284FEA116104DB00F128
:10496000E02080F80014704700F00F0000F1E02014
:1049700080F8141D704702E008C8121F08C1002A01
:10498000FAD170477047002001E001C1121F002AD0
:10499000FBD170472DE9FF4F8BB09A460F46054675
:1049A000002606E025280BD052460D9990476D1C35
:1049B000761C28780028F5D10FB03046BDE8F08F7E
:1049C0000024A0460122604900E0044315F8013F9D
:1049D000203B02FA03F00842F7D128782E2817D19D
:1049E00015F8010F44F004042A280ED06FF02F02AE
:1049F0002878A0F1300109290AD808EB880102EBD8
:104A0000410100EB01086D1CF2E757F8048B6D1CA7
:104A1000287869283ED006DC0028CDD063280BD04A
:104A2000642804D136E0732810D075284BD0524644
:104A30000D999047761C85E017F8040B8DF800005F
:104A400000208DF80100E946012003E057F8049B9F
:104A50004FF0FF3061074FF0000401D40AE0641CFE
:104A600044450DDA8442FADB19F804100029F6D126
:104A700006E0641C8442FCDB19F804100029F8D11C
:104A8000264404E019F8010B52460D999047641E24
:104A9000F8D257E001CF4FF00A0B002802DA40426B
:104AA0002D2102E0210504D52B218DF824100121B0
:104AB00003E0E10705D02021F7E70DF12009089177
:104AC0000CE00021F9E701CF4FF00A0BF9E7594656
:104AD000FBF743FC01F1300209F8012D0028F6D163
:104AE000ADEB090000F1200B600701D44FF0010885
:104AF000D84502DDA8EB0B0000E000208046002432
:104B000006E009A85246005D0D999047641C761C8A
:104B100008988442F5DB04E0302052460D99904716
:104B2000761CB8F10001A8F10108F5DC05E019F8E0
:104B3000010B52460D999047761CBBF10001ABF179
:104B4000010BF4DC6D1C34E70928010010B50446A4
:104B50000022501EE270E062204601F0FAFA08B12D
:104B6000042010BD04F22E2001F0B4FAA0F52A4171
:104B7000553901D0032010BD94F83000E92805D044
:104B8000EB2814D194F83200902810D104F166007B
:104B900001F095FA0749B1EB002F06D004F182002D
:104BA00001F08DFA0449884201D1002010BD022095
:104BB00010BD00000046415446415433F0B5154D38
:104BC0000022134605EB021426685EB10768BE4258
:104BD00009D166688768BE4205D1A4684669B442B7
:104BE00004D000E00123521C022AEBD3022A01D098
:104BF00069B904E04BB9022907D01220F0BD05EBDA
:104C000002108089B0F5807F01D00020F0BD102017
:104C1000F0BD0000CC09002430B5064B002421462D
:104C200003EB01121568854200D11460491C02296A
:104C3000F6D330BDCC090024C26A490A0068408915
:104C4000B1FBF0F0121D02CA19B1884203D3401A19
:104C5000F8E7002070471168084470474269891ED0
:104C6000921E8A4201D800207047826A408901FB67
:104C7000002070472DE9F04105680F00804606D0FE
:104C800001F04AF9022809D20120BDE8F081EE685E
:104C900016B16869B04207D8012605E0411CF4D07E
:104CA00069698142F1D83E4634466869641CA04275
:104CB00003D8022E4FF002040AD32146404601F0E9
:104CC0002BF938B10128E0D0411CDED0B442ECD140
:104CD0000020DAE74FF0FF3621463246284601F041
:104CE00077FB30B957B122463946284601F070FBB0
:104CF00020B101280FD001242046C6E7D5E90401E0
:104D0000EC60891E884201D8401E2861287940F055
:104D100001002871F0E73446EEE700002DE9F0418C
:104D200024300D680B220E462021044601F00AFAB9
:104D300000204FF0080C01462A5C401C202A13D9A1
:104D40002F2A0CD05C2A0AD02E2A01D0614516D316
:104D5000BCF10B0F20D02E2A1ED10CE0401C2B5C86
:104D60002F2BFBD05C2BF9D028443060A1B12078E8
:104D7000E5281DD01EE008214FF00B0CDCE7802A4F
:104D800003D3104B1A4412F8802C0FA300E05B1CD5
:104D90001F7827B19742FAD10620BDE8F081A2F131
:104DA0006103192B01D8203AD2B26254491CC3E7DF
:104DB00005202070202A01D8042000E00020E072A5
:104DC0000020EAE7B86A0008222A2B2C3A3B3C3D37
:104DD0003E3F5B5D7C7F0000401E022812D20A49E4
:104DE00001EB00118889B0F5807F05D008B1401E25
:104DF00080B2888110B103E00020FAE7002008604B
:104E00000020704702207047CC0900242DE9F041B2
:104E100005680021044600F0DAF8002827D1E1698E
:104E2000284601F096F9020020D1206A0178A1B14C
:104E3000C17A01F03F01A171C17A090710D40B2397
:104E400004F1240110F8016B5B1E11F8017BA6EB45
:104E5000070604D0002EF5D002E0042206E02EB1B1
:104E60000021204600F006F80200D8D01046BDE828
:104E7000F08100002DE9F04705464769C069894681
:104E800020372C6810B1B7F5001F02D30420BDE80D
:104E9000F087F90560D1A969401C4FF00008E8616E
:104EA00029B16089401E10EA572F05D054E02089AF
:104EB000B0EB571F1DD94FE0284601F02DF801280F
:104EC00006461BD9701C33D06069B0423ED8B9F198
:104ED000000F0ED0A9692846FFF7CCFE06000BD0C4
:104EE000012E0BD0701C23D0204601F07BFDF8B9B9
:104EF00006E0C5F81C80C9E70720C8E70220C6E71E
:104F000000214FF4007204F1300001F01BF94FF062
:104F1000000831462046FFF7A1FE4FF00109E0628C
:104F20000DE000BF204684F8039001F05BFD08B15E
:104F30000120ACE7E16A08F10108491CE1626189DE
:104F40004145EFD8E16AA1EB0800E0623146204616
:104F5000AE61FFF783FEE861C7F3080020446F618C
:104F600030302862002092E770B5066800210446C0
:104F700000F02DF80DE0E169304601F0EAF850B993
:104F8000206A0078E52809D040B101212046FFF7CA
:104F900071FF0028EFD0042807D007E0E169304610
:104FA00001F0D7F8050003D00FE0072005460CE01C
:104FB000206A2022002101F0C5F8206A0B2204F1AA
:104FC000240101F0B5F80120F070284670BD2DE9EC
:104FD000F0410768B1F5001F0E46054636D2F006CF
:104FE00034D1AC686E6124B93878032805D37C6A63
:104FF0001CB178894FEA402812E03889B0EB561F7F
:1050000024D9786A12E0284600F086FF0446401C46
:105010001AD0022C1AD37869A04217D9A6EB080639
:1050200021464645EFD23846FFF718FEC5E906404F
:1050300060B100EB5622C6F30801C8193030C5E94B
:1050400007200020BDE8F0810120FBE70220F9E7FE
:105050000849002210B50B5C4BB901220A5401EB40
:10506000800208445168007A096888470246104661
:1050700010BD0000EC090024044B30B403EB8004A5
:1050800018446368007A1B6930BC1847EC09002497
:1050900030B4054C04EB800520446C68007AA468A9
:1050A000A44630BC60470000EC090024034901EB32
:1050B000800208445168007A49680847EC090024D6
:1050C00030B4054C04EB800520446C68007AE46839
:1050D000A44630BC60470000EC09002438B5044603
:1050E00000F09AFC00280CD16946204601F0A3FC90
:1050F000002806D12069FFF76FFE002801D10021AA
:10510000216038BD2DE9FF4F91B01D464FF4007668
:10511000144611A81E9F00F060FF002803DA0B2040
:1051200015B0BDE8F08FF94951F8201009B10022FF
:105130000A70C0B20490FFF78BFFC10701D00320B3
:10514000EEE7400701D50A20EAE7049803210FAAF9
:10515000FFF792FF38B90F9828B1B0F5004F02D889
:10516000411E084201D001200F90B24624B154459F
:105170003AD3B4F1807F37D8601E044234D1B7FBF4
:10518000FAFBB4FBFAF72C465FEA4B2010907DD077
:105190000498012109AAFFF76FFF002877D1129820
:1051A000010709986FEAA1114FEA916948456DD34B
:1051B000A0EB090009908028864667D3802F13D87A
:1051C00012984FF6F57240F6F5738007129807D5DE
:1051D00000F0070002287DD01298C0077AD001E0C5
:1051E000C00701D002269AE0132099E73D000ED1B6
:1051F0000020C74901254FEA5E4801E06D00401CD0
:1052000031F810C0BCF1000F01D0C445F6D9BEFB87
:10521000F5F020210D9100210C9190420AEB8001C4
:1052200001F10701B1FBFAF830D9BA4988422DD80B
:105230002AE0B74900204FEA1E380E39012501E067
:105240006D00401C31F810C0BCF1000F01D0C44506
:10525000F6D9BEFBF5F0984203D9042101EB4000DA
:1052600006E00321012600EB4000401C01EB50004A
:1052700000EB0A0101200D90491E4FF4804CB1FB58
:10528000FAF8BCFBFAF00C900D9801E05AE03CE112
:1052900048440B9000EB080C0C980F99032E6044C7
:1052A000A1F1010C0144A1F1010121EA0C01A1EBE2
:1052B00000011BD008EB010800EB0511A1EB09016F
:1052C00071453FD80D99032E0C98AEEB0101A1EB6F
:1052D000080100E029E0A1EB0000B0FBF5F001902F
:1052E0000ED0022E13D0012E2AD02DE0DDF834C0CE
:1052F0008C44CDF834C0DDF82CC061440B91DBE761
:10530000904221D8F7B96F087FF470AF1AE090424D
:1053100011D93FB94020B0EB450F03D36F003D00DA
:1053200097D186E71298800707D503265EE76F00BE
:10533000802FF4D906E0984206D8002FF7D001E07C
:10534000984201D90E20EBE600215246204600F09B
:10535000F9FE0B22204670A100F0EAFE04F10B00DA
:10536000514601F0F7FA65730D9881B204F10E0011
:1053700001F0F0FA01202074032E0FD04FEA0A0149
:1053800004F1110001F0E6FA0999B1F5803F07D266
:1053900089B204F1130001F0DDFA05E00021EFE726
:1053A00004F1200001F0CEFAF82060753F2104F1ED
:1053B000180001F0CFFAFF2104F11A0001F0CAFA37
:1053C00004F11C00494601F0BDFA8027032E27D0C6
:1053D00000F001FE014604F1270001F0B3FA1FFAC4
:1053E00088F104F1160001F0B5FA292084F8247040
:1053F000132284F826004BA104F12B0000F098FE44
:1054000004F5FF704AF655210D9001F0A3FA0498B7
:1054100001234A462146FFF753FE002875D124E0B8
:1054200000F0D9FD014604F1430001F08BFA04F1CC
:105430002400414601F086FA022104F12C0001F01B
:1054400081FA012104F1300001F084FA062104F10F
:10545000320001F07FFA292084F84070132284F88A
:10546000420035A104F14700C8E7032E32D1049869
:10547000012309F106022146FFF722FE00215246D0
:10548000204600F05FFE3149204601F05BFA3049CA
:1054900004F5F27001F056FA019904F5F470491E12
:1054A00001F050FA022104F5F67001F04BFA0D9864
:1054B0004AF6552101F04EFA0498012309F107023A
:1054C0002146FFF7FDFD0498012309F10102214661
:1054D000FFF7F6FD109A0021204600F033FE0B98EE
:1054E000032E6FF00701059002D0012E32D032E07A
:1054F000204601F027FA201D4FF0FF3101F022FA7B
:105500006FF0704104F1080026E073E054000024BD
:10551000466B0008F5FFFF0FEBFE904D53444F53D1
:10552000352E30004E4F204E414D45202020204644
:1055300041542020202020004E4F204E414D452038
:105540002020204641543332202020005252614115
:10555000727241614049204601F0F4F947465846CD
:105560005F4500D83846214680460346DDE90402FF
:10557000FFF7A6FDF0BB00215246204600F0E2FDF9
:105580000598B7EB080740440590E8D1032E00D0FA
:105590000C9D58465D4501D9074600E02F4621463F
:1055A000DDE904023B46FFF78BFD18BB0598ED1BB8
:1055B00038440590EDD1032E05D00998B0F5803F11
:1055C00003D3062604E00C2602E0022E38D0012682
:1055D0001298000736D400215246204600F0B2FD52
:1055E0000D984AF6552101F0B5F90020012104F586
:1055F000DF7500E02EE0287043F6C162E870FE23FC
:105600006970A9703F212E71099E6B7109EB06002C
:10561000B0FBF2F041EA9001A9714946E87105F149
:10562000080001F08FF9099905F10C0001F08AF9E1
:105630000498012300222146FFF742FD50B901E002
:105640000426C5E7002204981146FFF715FD00283F
:105650003FF476AD012063E5F8FFFF002DE9F74147
:1056600081B0904602980090684600F0B6FC0400B5
:1056700003D50B2004B0BDE8F0810D4E002756F88D
:1056800024501DB12846FFF7C7FA2F700198002853
:1056900000D0077046F8240002D0B8F1010F01D005
:1056A0000020E7E7002201A902A800F0C3FAE1E721
:1056B000540000242DE9F743050092B00BD002F00E
:1056C0003F06694613A8324600F0B4FA04004FF0D2
:1056D000000804D0EDE0092015B0BDE8F083009883
:1056E000049004A8139900F0D1FB04000ED19DF89A
:1056F0003F00000601D5062408E0700801D0012112
:1057000000E0002104A8FFF759FA044616F01C0F28
:105710005DD04FF00109C4B1042C10D168490020BC
:1057200002E0401C022804D201EB00121268002A99
:10573000F7D1022807D004A8FFF716FC044646F06C
:1057400008065CB1B5E01224B3E09DF8160010F035
:10575000110F47D1700701D50824AAE0300747D5BB
:1057600000F039FC07460C9839460E3001F0EAF893
:105770000C983946163001F0E5F80C982021C172DA
:105780000C99009800F088FC0C99002207460098BC
:1057900001F0C4F80C9800211C3001F0D3F80099F6
:1057A00081F8039017B3D1F82C90002204A8394651
:1057B00000F086FE04007CD10098494600F0C9FC48
:1057C00004000098A7F10107C7600DD071E0E4BBA9
:1057D0009DF81600C10601D504246AE0B10703D57F
:1057E000C00701D0072464E0300701D546F0400629
:1057F0000098C06A68620C98A862700801D0012104
:1058000000E0002104A800F007FC2861C0B30C9957
:10581000009800F041FCA8600C981C3000F04FFC90
:10582000C5F82C800146E96005F1300000994FF47D
:105830000072296081460099C988A98000212E75CF
:1058400085F81580C5F8208000E032E0C5F81880A2
:1058500000F078FCB0062ED5EE6866B3AE61009815
:10586000A968408947020FE0284600F055FB01284F
:10587000014600D80224481C03D0F61B24B105E0E1
:105880001BE00124F61B01E0BE42EDD8E96184B9BA
:10589000F00510D00098FFF7E1F970B100EB562247
:1058A0002A620098012349464078FFF7F1FB10B1C6
:1058B0000124C5F8008020460EE70224F9E7000025
:1058C000CC0900242DE9F04F89B0154600229946F5
:1058D0000446884603A91A6001F0ADF8002812D1E9
:1058E000607D00280FD1207DC0070BD0A269012761
:1058F000E16804F1300B4FF0020A881A854200D9A2
:10590000054684E0072009B0BDE8F08FA169C8050D
:1059100065D103984089401E10EA512611D129B162
:10592000E06A28B12046FFF787F905E0A06803E0A8
:10593000E169204600F0F0FA02281BD3411C49D04F
:10594000E061E1690398FFF789F998B1690A049168
:105950003044019025D00398721841898A4201D9B8
:10596000891B049140784146049B019AFFF790FB04
:1059700080BB03E0022084F815A0C4E7207D000668
:105980000CD5216A0198081A0499884206D208EBBE
:10599000402059464FF4007200F0CAFB04984602BA
:1059A0002BE0226A824218D0207D00060AD5039897
:1059B000012359464078FFF783FB58B9207D00F05A
:1059C0007F00207503980123019A59464078FFF71C
:1059D0005FFB10B10120677595E701982062208B6D
:1059E000C0F30800C0F50076AE4200D92E4601197A
:1059F00032463031404600F09BFBA169AD1BB044FC
:105A00008819A061D9F800008119C9F80010002D8B
:105A10007FF47CAF002076E7F8B50446694601F0D4
:105A20000AF800280ED1217D4A060BD508060ED5AE
:105A300000980123226A04F130014078FFF740FB0F
:105A400008B10120F8BD207D00F07F00207500F036
:105A5000C2FA616A0646009800F07BFB0028F1D18B
:105A6000A56A2946E87A40F02000E872A26820681A
:105A700000F054FFE16805F11C0000F063FF05F140
:105A80001600314600F05EFF002105F1120000F023
:105A900061FF00980121C17000F060FF217D01F0DD
:105AA000BF012175F8BD2DE9F04F89B015460022E0
:105AB00099460446884602A91A6000F0BCFF0028F7
:105AC00006D1607D002803D1207D800703D4072004
:105AD00009B0BDE8F08FA069012704F1300B4FF049
