:020000040800F2
:1000000050780024790300080B42000809390008E1
:1000100009420008C9050008354E0008000000002C
:10002000000000000000000000000000B90200080D
:10003000790600080000000015030008414500088B
:100040009303000893030008930300089303000838
:100050009303000893030008930300089303000828
:100060009303000893030008930300089303000818
:100070009303000893030008930300089303000808
:1000800093030008930300089303000893030008F8
:1000900093030008930300089303000893030008E8
:1000A00093030008930300089303000893030008D8
:1000B00093030008930300089303000893030008C8
:1000C00093030008930300089303000893030008B8
:1000D00093030008930300089303000893030008A8
:1000E0009303000893030008000000009303000836
:1000F0009303000893030008930300089303000888
:100100008106000893030008930300089303000886
:100110009303000893030008930300082147000895
:100120009303000893030008930300089303000857
:100130009303000893030008930300089303000847
:1001400000000000000000000000000000000000AF
:100150009303000893030008930300089303000827
:100160009303000893030008930300089303000817
:100170009303000893030008930300089303000807
:1001800093030008930300089303000893030008F7
:1001900093030008930300089303000893030008E7
:1001A000393C0008930300086D060008930300081B
:1001B00049420008930300089303000893030008D2
:1001C00093030008930300089303000893030008B7
:1001D00093030008930300089303000893030008A7
:1001E0009303000893030008930300089303000897
:1001F0009303000893030008930300089303000887
:100200009303000893030008930300089303000876
:100210009303000893030008930300089303000866
:1002200093030008930300089303000800000000F4
:10023000930300080539000800000000930300083C
:100240009303000893030008930300089303000836
:100250009303000893030008930300089303000826
:100260009303000893030008930300089303000816
:1002700093030008930300089303000800000000A4
:100280009303000893030008930300080000000094
:100290000000000093030008DFF818D000F056F9C2
:1002A00000F0D2F800480047C5E00008AFF3008036
:1002B00000F02BF9507800242C4B19680868B0E83E
:1002C000F04F80F30988BFF36F8F4FF0000080F389
:1002D000118870470000000008480068006880F33B
:1002E00008884FF0000080F3148862B661B6BFF34F
:1002F0004F8FBFF36F8F00DF00BF00BF08ED00E03E
:10030000DFF80C00016841F470010160704700BF24
:1003100088ED00E0EFF30980BFF36F8F134B1A688D
:100320001EF0100F08BF20ED108A20E9F04F10607A
:1003300009B44FF0500080F31188BFF34F8FBFF323
:100340006F8F0FF04FF84FF0000080F3118809BC59
:1003500019680868B0E8F04F1EF0100F08BFB0EC45
:10036000108A80F30988BFF36F8F7047480000241C
:10037000EFF30580704700000648804706480047B5
:10038000FEE7FEE7FEE7FEE7FEE7FEE7FEE7FEE745
:10039000FEE7FEE73D460008990200082DE9F05F00
:1003A0000546002092469B468846064681464024E4
:1003B0001BE0284641464746224600F091F8534646
:1003C0005A46C01A914110D311461846224600F0F1
:1003D00078F82D1A67EB01084F46224601200021CC
:1003E00000F06FF817EB00094E41201EA4F1010444
:1003F000DFDC484631462A464346BDE8F09F40EAE6
:1004000001039B0703D009E008C9121F08C0042A92
:10041000FAD203E011F8013B00F8013B521EF9D279
:100420007047D2B201E000F8012B491EFBD27047A1
:100430000022F6E710B513460A4604461946FFF7B0
:10044000F0FF204610BD000070B5054C054D03E0DF
:10045000206820448047241DAC42F9D170BD0000C3
:10046000908D0208A08D02082DE9F041074615463F
:100470000E4610200DF0C0FE04000AD06760C4E9EB
:10048000026500F03DF80168216004600020BDE8CD
:10049000F0810120FBE730B50B4601460020202209
:1004A000012409E021FA02F59D4205D303FA02F581
:1004B000491B04FA02F52844151EA2F10102F1DCE1
:1004C00030BD202A04DB203A00FA02F100207047F8
:1004D0009140C2F1200320FA03F319439040704782
:1004E000202A04DB203A21FA02F00021704721FA89
:1004F00002F3D040C2F120029140084319467047F0
:10050000004870474802002470472DE9F041064634
:10051000FFF7F6FF8046454613E016B1E068B042AB
:100520000ED120682860D4E90101D8F8007088470E
:1005300020460DF0FFFCD8F80000B842EBD100E0F7
:1005400025462C68002CE8D1BDE8F081064C074D0B
:1005500006E0E06840F0010394E807009847103493
:10056000AC42F6D3FFF79CFE448D0208648D02086E
:10057000704770B58C1810F8015B15F0070301D1B6
:1005800010F8013B2A1106D110F8012B03E010F8F6
:10059000016B01F8016B5B1EF9D12B0705D4002319
:1005A000521E0DD401F8013BFAE710F8013BCB1ABB
:1005B000921C03E013F8015B01F8015B521EF9D5B0
:1005C000A142D8D3002070BDFEE70000214A30B51B
:1005D000136823F0010313601F4A1368C3F30B145D
:1005E0000123A4F54065243D06D01268C2F30B1226
:1005F000A2F54064273C17D1184A1268A2B9184ADC
:1006000014684FF08A45B5EB045F18D01468C4F342
:100610000B04A4F58065833D11D01268C2F30B0270
:10062000A2F58064853C0AD00E4A93609368002B43
:10063000FCD110601068884209D0002030BD0A4A01
:1006400013601368002BFCD1074A083AF1E7012038
:1006500030BD0000002000E000ED00E0002004E0DC
:100660000010005C00300240084C0258014800F0C5
:10067000C9B900008C020024704772B6FEE7000082
:10068000014802F048BE0000F4020024F0B5D1E9B0
:100690000843CD690A68C2B10268254322F4F842D2
:1006A00013431D430560D1E90125D1E903364C69A7
:1006B0002A434568334389691A43EB0B2243DB0322
:1006C0000A431A4342600020F0BDD1E9012ED1E96E
:1006D000036CD1E9057142EA0E0246EA0C06324388
:1006E0003A430A4301682A4322431A436FF30E0137
:1006F0000A430260E7E7426943F6FE739A4342EA1F
:10070000410141610020704770B591E81C00C96843
:100710006FF01F0506691A4305EB441444EA4121B2
:100720000A4306EA45431A430261002070BD0000F7
:100730002DE9F04F8B8A6FF00F05264C4FF07F4B61
:10074000D1F80C9004EB03536FF0FF044FEA042A36
:100750001AB386684FEA09321F4FA2F580521A4336
:100760003E4032438260D1E900278E68521E05EB7D
:1007700007150F8A2A43C56804EB06240E7E0AEB90
:10078000074322431A430BEB06610A4305F070430B
:100790001A43C2600020BDE8F08F91E804110F4EAB
:1007A000521E0F8A05EB08152A4304EB0C2C06EBAE
:1007B00009350E7E42EA0C022A4385680AEB07449B
:1007C00022431A430BEB06610A4305F070431A43B8
:1007D0008260DFE70000F0FFFF0F0FFF00F0FFFF78
:1007E0007CB50D46144600210191020A8DF80500E2
:1007F000FF2608480223BA218DF8042001AA00969A
:1008000000F002FD0348BB2123462A46009600F073
:1008100069FC7CBD280300241CB50022030A019258
:10082000FF248DF8043003238DF8050001AA044845
:100830008DF80610BA21009400F0E6FC1CBD000003
:1008400028030024F0B50446C8074FF0000010D07C
:100850001E23012603F01F0706FA07F50D4201D1FA
:100860005B1EF7D27AB1082A0BD0102A06D0182ABC
:1008700001D00120F0BD072BFBD204E0082BF8D2F9
:1008800001E0102BF5D22368596121688B6823F0B1
:10089000180313438B60F0BD10B5040010D0607FC7
:1008A00020B900202077204600F032F8217902207C
:1008B000607739B1D4E902122046FFF7C3FF48B18F
:1008C000012010BD2168114848612068816821F02D
:1008D000180181606079A0B1216820690861012256
:1008E00020686369816821F0600119438160206894
:1008F000A369816821F0800119438160627700203B
:1009000010BD21684FF0FF30E8E70000B71DC104BB
:1009100008B500680649884208D10648016841F4D4
:1009200000210160006800F40020009008BD000074
:10093000004C0258E044025870470000F0B590F8AF
:100940006020012A22D0C1EBC102012780F860702B
:10095000022380F8613000EB8202284D138F168E3F
:10096000B2F83CC0D46A1B05283244EA064643EA82
:100970004C530A2C46EA03060AD0092C08D0137BF4
:1009800046EA036349B10B2C1AD01DE00220F0BDEA
:10099000D36803F07F433343F4E701684C6AAC4308
:1009A0001C434C62016813688B6151680A2901D0AD
:1009B00009291BD1D168026821F07F41916215E0BD
:1009C000118B0F4D43EA81430168CC69AC431C4352
:1009D000CC61016813680B6151680A2901D00929AB
:1009E00004D1D168026821F07F411162002180F8B2
:1009F000617080F860100846F0BD00000F0033FF02
:100A00000F003FFF2DE9F0470446006800274FF034
:100A100004084FF0010946680568F10714D0E9059C
:100A200012D5036823F480730360606E40F0010008
:100A300060662068C0F8089084F8618084F860706F
:100A4000616A09B120468847B00615D5A80413D5B8
:100A500020682022036823F400530360206882602A
:100A6000606E40F00200606684F8618084F8607017
:100A7000616A09B120468847300715D5280513D586
:100A800020680822036823F4006303602068826002
:100A9000606E40F00400606684F8618084F86070E5
:100AA000616A09B12046884770070CD568050AD5E8
:100AB0002068026822F4806202602068C0F8088022
:100AC000204600F071F8B00713D5A80511D52068AD
:100AD0000222036823F40073036020688260606E62
:100AE000606684F8619084F86070216A09B12046DC
:100AF0008847F00612D5E80410D52068016821F473
:100B000080510160226810219160616E616684F8F5
:100B10006190204684F86070FFF70EFFBDE8F08713
:100B20002DE9F041040004D094F86100002518B1CB
:100B300007E00120BDE8F081204684F8605000F015
:100B400035F8184E022084F861000123D4E9001022
:100B5000D4F81CC040F207120F6840EA0C0037407E
:100B6000384308602068A769A168466B39439643FB
:100B7000314341632068E268016C6FF30F01114358
:100B800001642068218AA28A466B090541EA425124
:100B900026F4401211434163656684F861300020F9
:100BA000C8E70000BFFFF8FF7047000008B5006805
:100BB0000B49884212D10B48016841F010010160D5
:100BC00000680022052100F0100000905A2000F07B
:100BD00021FFBDE808405A2000F00EBF08BD00000C
:100BE00000100052D444025870B5044600F0B0F929
:100BF0000546601C02D004480078044400F0A8F9BF
:100C0000401BA042FAD370BD14000024F0B5B7B069
:100C1000142130A8FFF70CFC3148016800295CD191
:100C200001210160C0216846FFF702FC00201290FC
:100C30004FF080710446CDE90010684601F096F946
:100C400008B1FFF71AFD2748016841F4805101609F
:100C50000068022532AA00F4805035904FF6837068
:100C6000CDE93005032620480C2782E8D00030A9C2
:100C700000F044F832AA48F23710CDE930051B489D
:100C800030A982E8D00000F039F832AA4CF20370A3
:100C9000CDE93005164830A982E8D00000F02EF8E2
:100CA00032AA4FF63F00CDE93005124830A982E85C
:100CB000D00000F023F82C2032AACDE930050E48F0
:100CC00030A982E8D00000F019F800220521302078
:100CD00000F0A0FE302000F08FFE37B0F0BD000025
:100CE0000C000024D4440258001002580018025886
:100CF000000C025800140258001C02582DE9F84F4D
:100D000003247D4D00234FF001094FF0B04B4FF00D
:100D10000F0AE9E009FA03F73A4076D00E7906F0B7
:100D20000306012E01D0022E18D1D0F808C04FEAD8
:100D3000430ECE6804FA0EF82CEA080C06FA0EF6FA
:100D400046EA0C068660D0F804C00E792CEA070C3F
:100D5000C6F300169E4046EA0C0646600E79F6433E
:100D6000B6070BD0C6684FEA43088F6804FA08FC40
:100D700026EA0C0607FA08F73743C7600E7906F033
:100D80000306022E12D1DE080F694FEA437C00EB06
:100D90008606B646366A4FEADC6C0AFA0CF807FAA1
:100DA0000CF726EA08063743CEF820700F7906685C
:100DB0004FEA430807F0030704FA08FC07FA08F7AC
:100DC00026EA0C06374307604E6816F4403F1CD0F5
:100DD0004A4E376847F00207376036689F0706F0CB
:100DE0000206009623F0030606F1B046B6463F0F12
:100DF000D6F80864DFF808810AFA07FC404526EABD
:100E00000C0603D14FF0000C41E06CE0DFF8F4C0B9
:100E1000604502D14FF0010C39E0DFF8ECC06045CD
:100E200002D14FF0020C32E0DFF8E0C0604502D1A1
:100E30004FF0030C2BE0DFF8D8C0604502D14FF033
:100E4000040C24E0DFF8CCC0604502D14FF0050C63
:100E50001DE0DFF8C4C0604502D14FF0060C16E07B
:100E6000DFF8B8C0604502D14FF0070C0FE0DFF8A3
:100E7000B0C0604502D14FF0080C08E0DFF8A4C014
:100E8000604502D14FF0090C01E04FF00A0C0CFA5A
:100E900007FC4CEA060CCEF808C44F68DBF800608B
:100EA000FF0226EA020600D516435F46CBF8006033
:100EB000D1F804C0DBF804605FEA8C2C26EA020655
:100EC00000D516437E606E684F6826EA0206BF03AF
:100ED00000D516436E602E684F6826EA0206FF03AF
:100EE00000D516432E605B1C0A6832FA03F67FF4C5
:100EF00011AFBDE8F88F000080000058F44402589C
:100F0000000002580004025800080258000C025861
:100F1000001002580014025800180258001C025811
:100F20000020025800240258426921EA02030A40C4
:100F300043EA0241816170470AB181617047090447
:100F4000FBE7000001480068000C70470010005CDF
:100F500001488068704700001400002470470000BA
:100F6000064810B50C30054900680A680B1D82431D
:100F70000A601860FFF7F2FF10BD0000006502581C
:100F800030B590F84120202A24D190F84020012A41
:100F900020D0012380F84030242280F841202023F3
:100FA00000240268156825F00105156002681568BF
:100FB00025F480551560026815680D4315600168B9
:100FC0000A6842F001020A6080F8413080F840402F
:100FD000002030BD022030BD30B590F84120202ADD
:100FE00022D190F84020012A1ED0012380F8403001
:100FF000242280F84120202400250268136823F071
:10100000010313600268136823F4706343EA01214B
:10101000116001680A6842F001020A6080F84140EC
:1010200080F84050002030BD022030BD70B5040073
:1010300004D094F84100002510B106E0012070BDF5
:10104000204684F8405000F071F9242084F84100D3
:101050002068016821F001010160D4E9001020F04E
:10106000706008612068816821F400418160E06857
:1010700021680128A06806D040F404408860E06838
:10108000022803D006E040F40040F7E721684FF45F
:101090000060486020212068114A43681343436080
:1010A0002068C26822F40042C26054F8106B0DCC74
:1010B000104340EA0320F06054F81C3CD4E90002DD
:1010C0001043186054F81C0D026842F001020260DF
:1010D000656484F84110256384F84250002070BD97
:1010E000008000022DE9F84F044690F841001F46A9
:1010F0009046DDF828A08B4620287ED194F8400049
:1011000001287AD0012084F84000FFF721FF012256
:10111000064619230090D103204602F0A7FCE0BB4D
:101120000025222184F84110102084F842006564D3
:101130006785618DFF2732484FF00079C4F824801D
:10114000FF294FF08078656303D927853A460090E0
:1011500039E0618D218500903AE05946204602F041
:101160006DFC13E002F0BAFCB8B92068616A406A0D
:101170000870606A401C6062208D401E81B221852B
:10118000608D401E6085608D00B169B1608D324612
:10119000514600282046E5D100E002E002F0F2FCD2
:1011A000D0B10120BDE8F88F0022534680212046AF
:1011B000009602F05BFC0028F3D1608DFF2804D973
:1011C00027853A4600954346C7E7608D2085009500
:1011D0004B4694F82820C0E720682021094AC161C5
:1011E000206843681340436084F8411084F84250FB
:1011F000002084F84050D5E7FFE70220D2E7000046
:101200000024008000E800FE2DE9F84F044690F825
:1012100041001F469046DDF828A08B4620287ED14D
:1012200094F8400001287AD0012084F84000FFF7AC
:101230008FFE0122064619230090D103204602F0BA
:1012400015FCE0BB0025212184F84110102084F812
:10125000420065646785618DFF2732484FF0007951
:10126000C4F82480FF294FF08078656303D927856F
:101270003A46009039E0618D218500903AE0594668
:10128000204602F0DBFB13E002F0A8FCB8B9606A6C
:10129000216800788862606A401C6062608D401E30
:1012A0006085208D401E80B22085618D01B168B1BE
:1012B000608D3246514600282046E5D100E002E02C
:1012C00002F060FCD0B10120BDE8F88F0022534647
:1012D00080212046009602F0C9FB0028F3D1608DE2
:1012E000FF2804D927853A4600954346C7E7608D15
:1012F000208500954B4694F82820C0E720682021DF
:10130000094AC161206843681340436084F8411072
:1013100084F84250002084F84050D5E7FFE70220CF
:10132000D2E700000020008000E800FE70B5B6B0F3
:101330000446142130A8FFF77BF8C0216846FFF768
:1013400077F82249206888423DD1214C206840F03E
:101350008000206020681E4D00F080003590143D14
:10136000286840F0080028602868102100F0080074
:101370003590002026900646CDE90010684600F022
:10138000F5FD08B1FFF779F9286840F008002860FA
:1013900028680DF1C00C122100F0080035904FF4C0
:1013A000405004238CE8430002220A48CDE933234D
:1013B00030A9FFF7A3FC206840F08000206020687F
:1013C00000F08000359036B070BD0000001C005861
:1013D000F4440258000C0258024881680278114413
:1013E0008160704714000024032010B500F032FB28
:1013F00001F034FC0F4A104914681368C4F3032247
:1014000003F00F038A5CC95C02F01F0201F01F01A8
:10141000D0400A4A20FA01F1116009490860002011
:1014200000F010F808B1012010BD00F0C9FA00204A
:1014300010BD0000184402582005010824000024B3
:101440002000002410B5102804468AB02CD20022B7
:101450000146372000F0DEFA372000F0CDFA1748B9
:1014600004601748016841F020010160006809A983
:1014700000F020000890684601F07CFB0598B0B1B0
:1014800001F0C8FB40000F4900220F4CB0FBF1F106
:101490000E4840F2E7330460C0E90332491EC0E958
:1014A000011201F0AAFF28B101200AB010BD01F01D
:1014B000B1FBE8E7054801F0D3FFF6E71800002488
:1014C000E844025840420F00001400400405002484
:1014D0002DE9F041044690F8A00016460F46012879
:1014E0001DD0012584F8A050022084F8A10006EB4D
:1014F000860000EBC600342204EB80003830FEF793
:101500007EFF32463946204602F09CFB21680020CF
:101510004D6284F8A15084F8A000BDE8F08102205B
:10152000FBE770472DE9F0410446006800274FF0C3
:101530000408856B466B690715D5710713D5426B97
:1015400022F0040242632068C0F83C80D4F8A40072
:1015500040F00100C4F8A40084F8A180204684F87B
:10156000A070FFF7DEFFA80716D5B00714D52068D6
:101570000222436B23F0020343632068C263D4F862
:10158000A40040F00200C4F8A40084F8A180204622
:1015900084F8A070FFF7C5FF05EA06004FF00108C8
:1015A000C0070ED021684A6B22F001024A6321680D
:1015B000C1F83C8084F8A180204684F8A07000F037
:1015C00091F8280710D530070ED520680822436B04
:1015D00023F0080343632068C26384F8A180204697
:1015E00084F8A07000F08AF9BDE8F0812DE9F0419F
:1015F000040004D094F8A100002518B107E00120F0
:10160000BDE8F081204684F8A05000F09BF83448F3
:10161000022184F8A110012202CC8B6923F07043CF
:101620008B6194E84A001943E3681E4354F8043D73
:1016300031439E693143996121688B6803408B6017
:101640002168A68AA7698B683B4343EA06438B60FF
:101650002168CB680340CB602168A38B276ACE68E2
:101660003E4346EA0346CE6021680B6903400B61A6
:101670002368A68CA76A1969394341EA06411961B2
:1016800021684B6903404B612068A38D266B41693B
:10169000314341EA03414161236894F8351094F8DD
:1016A0003600DE6A000406F07F46DE62236840EA08
:1016B000012094F83460D96A31430143D96220682B
:1016C000416B41F0060141632068816941F00101ED
:1016D0008161C4F8A45084F8A120002090E70000A4
:1016E00000F800F010B5144C2168002923D01349EC
:1016F000134A0B6C11888B4212D1518800F0DCF830
:10170000206890F86A10491C80F86A1004F04EF8BE
:10171000206806F07BF8BDE81040002007F0D7B83D
:1017200000F0CAF820680168096A8847BDE81040DF
:10173000002007F0CEB810BD2C020024001000508D
:1017400034000024F0B5B7B00446142130A8FEF7E9
:101750006FFEC0216846FEF76BFE50492068884244
:101760007ED10DF1280C002102250C46192296236A
:101770008CE82C0040040D950626CDE90E61071576
:10178000CDE90001CDE91071684600F0EFFB08B12A
:10179000FEF773FF4248016841F0080101600068EC
:1017A00000F0080035903E48001F016841F04001FC
:1017B0000160016801F040013591016841F48071D8
:1017C0000160016801F480713591016841F0800188
:1017D0000160016801F080013591016841F001016B
:1017E0000160016801F001013591016841F02001BB
:1017F0000160006809212B4F00F0200035904FF464
:10180000A0503090CDE93154CDE9334130A938466C
:10181000FFF774FA0E2640F2E760309030A9CDE968
:1018200031542148CDE93346FFF768FA4FF43E4082
:101830003090CDE931541D4830A9CDE93346FFF74A
:101840005DFA0D214FF480703090CDE93154CDE92F
:101850003341174830A9FFF751FAC020309000E01B
:101860001AE0CDE93154CDE9334630A93846FFF7C7
:1018700045FA4FF480603090CDE931540D4830A9DD
:10188000CDE93346FFF73AFA00220521582000F04F
:10189000C1F8582000F0B0F837B0F0BD001000508B
:1018A000E44402580018025800200258001C025854
:1018B000000002580014025870B590F8A020012AC8
:1018C00018D00D4D012380F8A030022280F8A1200D
:1018D000002450F8A02B566B26F0010656632964AD
:1018E00050F8A01C4A6B42F001024A634370047036
:1018F000204670BD022070BD00100050704728B116
:1019000090F83D10022903D08021816601207047A4
:10191000042180F83D100068C16821F00101C16018
:1019200000207047F0B5154C4378211D0A1D236037
:101930000378F3B143680B60057BC67A817A437BF9
:101940002D07847B45EA0665C77B90F809C0067AB7
:1019500090F800E045EAC14040EA834040EA444054
:1019600040EA074040EA0C2040EA460040EA0E0008
:1019700001E0002008601060F0BD000098ED00E07C
:10198000BFF35F8F044800210368034A23F48033C8
:10199000036070321160704724ED00E0074A40F0A8
:1019A0000100064970321060086840F48030086019
:1019B000BFF34F8FBFF36F8F7047000024ED00E03F
:1019C0000C4808B5016841F002010160006800227E
:1019D0000F2100F002000090901E00F01BF8002282
:1019E00005217D2000F016F8BDE808407D2000F0BC
:1019F00003B80000F4440258002809DB410900F054
:101A00001F028900012001F1E0219040C1F800018E
:101A1000704700000E4BF0B41B680D46C3F3022361
:101A2000C3F10706042E00D90426191D072901D287
:101A3000002300E0DB1E012404FA06F19C40491E4D
:101A40002940641E994014402143F0BC0CF0E6B8D4
:101A50000CED00E0064900F0070210B54FF6FF0458
:101A60000868044B204040EA02201843086010BD7B
:101A70000CED00E00000FA05134970B50A68D24386
:101A8000520705D5096801F00701814213D118E01A
:101A90000A6822F0070202430A60FFF759FA0A4D6A
:101AA0004FF47A760446083D07E000BFFFF750FA8E
:101AB000001BB04201D9012070BD2868C0438004DA
:101AC000F4D4002070BD00000C48025870477047E5
:101AD0007047704770B50446006882680168530714
:101AE00034D54B0332D594F84110203012290FD051
:101AF00094F8411022291BD01EE0E16A01B3616A0B
:101B000009780170616A491C6162E16A491EE162FB
:101B1000216889684907F0D40EE0A16B81B1017892
:101B2000226B1170216B491C2163A16B491EA163BB
:101B3000216889684907F0D42046FFF7CAFF70BDC5
:101B40002068016821F480210160F5E793074FF0D8
:101B500001056CD58B036AD50221C160206801683C
:101B600021F4E021016094F84100122815D094F886
:101B70004100222825D094F84100022849D094F849
:101B800041000828DBD12068416921F040614161B2
:101B900084F84150606CD8B345E02068016849077B
:101BA00009D5016821F004010160E06B0068C1689B
:101BB00021F00101C16084F84150204600F07FF817
:101BC00070BD2068016849070AD5016821F0040149
:101BD0000160E06B0068C16821F00101C16011E0A3
:101BE00020300AE0A16B69B10178226B1170216B82
:101BF000491C2163A16B491EA1632168896811F406
:101C00007C5FEFD184F84150204600F055F870BD5C
:101C100005E084F841502046FFF759FFF7E72046DA
:101C2000FFF754FFF3E72046FFF752FFEFE71307F4
:101C300011D50B030FD50821C16020680168490246
:101C400005D5016821F41021016084F84150204637
:101C500000F033F8DBE7D30722D0CB0320D5C560F3
:101C60002068016821F470210160606C40F002007E
:101C700060642068016849070FD5016821F00401FC
:101C80000160E16B0B488865E06BFFF738FE0028C8
:101C9000BDD0606C40F00400606484F84150C2E73D
:101CA000D206B4D5C902B2D51021C160204600F0D9
:101CB00005F8ACE70D420008704770477047704761
:101CC00010B500F085FF05490968054AC1F3021106
:101CD000515C01F01F01C84010BD000020440258B3
:101CE00020050108494930B5484C0B1D0A681434D9
:101CF00009681D68246802F00303C5F30012C1F3EC
:101D00000531C4F3CC04002914FB02F200EE102AC2
:101D1000F8EE400A75D03F4A9FED3D1AB7EE000A33
:101D20006BB1DFED3D1A012B01D0022B64D002EE26
:101D3000101A1168F8EE422A81EEA22A21E0334CF3
:101D4000283C23689B0612D5344B246801EE901A78
:101D50001168C4F3C104F8EE612AE34001EE903A41
:101D6000C1F30801F8EE611A81EEA22A0BE001EE40
:101D7000901ADFED2B2A00BFF8EE611A116882EE8F
:101D8000A12AC1F3080101EE901A1168F8EE611A58
:101D900040EE811A71EE800A62EE200AC1F34621FC
:101DA00001EE101AB8EE411A31EE001AC0EE811A97
:101DB000BCEEE11A80ED001A1168C1F3064101EE94
:101DC000101AB8EE411A31EE001AC0EE811ABCEEBC
:101DD000E11A80ED011A1168C1F3066101EE101AD3
:101DE000B8EE411A31EE000A80EE801ABCEEC10A4C
:101DF00080ED020A30BD04E001EE901ADFED092A01
:101E0000BAE70021016041608160F3E7284402588D
:101E100000000039384402580024744A0090D0036E
:101E20000024744C20BCBE4B494930B5484C0B1DB6
:101E30000A681C3409681D68246802F00303C5F3AE
:101E40000022C1F30551C4F3CC04002914FB02F2B3
:101E500000EE102AF8EE400A75D03F4A9FED3D1A79
:101E6000B7EE000A6BB1DFED3D1A012B01D0022B5A
:101E700064D002EE101A1168F8EE422A81EEA22A0E
:101E800021E0334C283C23689B0612D5344B246850
:101E900001EE901A1168C4F3C104F8EE612AE34020
:101EA00001EE903AC1F30801F8EE611A81EEA22A20
:101EB0000BE001EE901ADFED2B2A00BFF8EE611A5D
:101EC000116882EEA12AC1F3080101EE901A11688F
:101ED000F8EE611A40EE811A71EE800A62EE200A75
:101EE000C1F3462101EE101AB8EE411A31EE001A84
:101EF000C0EE811ABCEEE11A80ED001A1168C1F340
:101F0000064101EE101AB8EE411A31EE001AC0EE89
:101F1000811ABCEEE11A80ED011A1168C1F3066165
:101F200001EE101AB8EE411A31EE000A80EE801A66
:101F3000BCEEC10A80ED020A30BD04E001EE901A49
:101F4000DFED092ABAE70021016041608160F3E713
:101F50002844025800000039404402580024744AC2
:101F60000090D0030024744C20BCBE4B2DE9FE4FE2
:101F70000546DFF8E48350F8081B0024F64FC943F8
:101F8000019005F12800264608F124080090080178
:101F90001DD4A86E50B1B0F5801F0CD0B0F5001F55
:101FA0000ED0B0F5401F1ED001240FE0386840F479
:101FB0000030386017E00198022102F04BF903E08D
:101FC0000098022102F0D6F904000CD02646288899
:101FD000C043C00523D4A86D05281ED2DFE800F059
:101FE0000C11161B1B00AA6ED8F8001021F440112A
:101FF0001143C8F80010EAE7386840F40030386050
:1020000009E00198002102F025F903E00098002181
:1020100002F0B0F9044674B100E001242646288895
:10202000C043800528D4E86D80281ED00CDC90B118
:1020300040280ED114E0AA6DD8F8001021F0070155
:102040001143C8F80010EAE7C02813D0B0F5807F2C
:1020500010D001240FE0386840F40030386009E007
:102060000198002102F0F6F803E00098002102F048
:1020700081F904469CB126462888DFF8DC92C043EB
:1020800009F12C0940052CD4D5F8A800B0F5800F33
:1020900020D00DDCA0B1B0F5001F0FD115E0EA6D26
:1020A000D8F8001021F4E0711143C8F80010E3E7FC
:1020B000B0F5C00F13D0B0F5000F10D001240FE021
:1020C000386840F40030386009E00198002102F0DF
:1020D000C1F803E00098002102F04CF904467CB1FD
:1020E00026462888C04300052DD4D5F8AC00B0F1B1
:1020F000007F21D00EDCA8B1B0F1807F10D116E0B6
:10210000D5F8A820D9F8001021F460011143C9F8CE
:102110000010E6E7B0F1407F13D0B0F1806F10D02F
:1021200001240FE0386840F40030386009E001987D
:10213000002102F08FF803E00098002102F01AF964
:10214000044674B126462868C04380011FD4E86C59
:10215000D8B110280FD0202812D0302815D0012453
:1021600014E0D5F8AC20D9F8001021F0E06111435B
:10217000C9F80010E7E7386840F40030386004E040
:102180000198022102F066F8044674B126462888B8
:10219000C043C0042BD4286EB0F5005F20D00DDC06
:1021A000A0B1B0F5805F0FD115E06B48EA6C20302C
:1021B000016821F0300111430160E8E7B0F5405FAC
:1021C00013D0B0F5804F10D001240FE0386840F4F0
:1021D0000030386009E00198002102F03BF803E08C
:1021E0000098002102F0C6F804468CB126462888E3
:1021F000C043800429D4686EB0F5403F23D010DC82
:1022000008B3B0F5803F14D0B0F5003F0FD115E012
:102210002A6ED8F8001021F4E0411143C8F80010EC
:10222000E5E7B0F5802F0ED0B0F5A02F0BD001243C
:102230000AE00198012102F00DF803E00098012165
:1022400002F098F8044694B126462888C04340041A
:102250002AD4D5F8B000B0F1405F23D010DC08B329
:10226000B0F1805F14D0B0F1005F0FD115E06A6E5D
:10227000D8F8001021F4E0211143C8F80010E4E779
:10228000B0F1804F0ED0B0F1A04F0BD001240AE086
:102290000198012101F0DEFF03E00098012102F026
:1022A00069F8044674B126462888C04300041FD448
:1022B000286FD8B1B0F1805F0ED0B0F1005F10D0C0
:1022C000012414E0D5F8B020D9F8001021F0E04145
:1022D0001143C9F80010E7E7386840F4003038606F
:1022E00004E00198012101F0B5FF044674B12646CF
:1022F0002868C043C0011ED4A86CD0B101280ED0FC
:10230000022811D0032814D0012413E02A6FD8F832
:10231000001021F040511143C8F80010E8E7386878
:1023200040F40030386004E00198022101F092FF8F
:102330000446ACB126462868DFF81CB0C043ABF1B8
:102340001C0B400252D40548016841F480710160C1
:10235000FEF7FEFD824611E02C4402580048025868
:10236000FA48AA6C016821F0030111430160E2E719
:10237000FEF7EEFDA0EB0A00642835D8F4480068AB
:10238000C005F5D58CBBDFF8C4A3B5F8B4100AF1CD
:10239000240ADAF8000001F4407100F44070884229
:1023A00011D0DAF80010DAF8002021F4407142F47C
:1023B0008032CAF80020DAF8002022F48032CAF80D
:1023C0000020CAF80010D5F8B400B0F5807F1AD10B
:1023D000FEF7BEFD029012E0FEF7BAFD0299411A27
:1023E00041F2883081420AD9032426462878DFF852
:1023F0005CA3C0430AF1080AC00721D03CE0DAF828
:1024000000008007E8D5D5F8B410C1F301200328F7
:1024100058460DD0016821F47C510160B5F8B42014
:10242000DAF80010C2F30B021143CAF80010DDE71E
:10243000C84A036802EA111223F47C511143ECE705
:10244000E86F182816D005DCA0B1082808D010289D
:1024500004D10AE020280DD028280BD001240AE05E
:102460000198012101F0F6FE03E00098012101F03E
:1024700081FF044664B126462878C04380071ED4F5
:10248000A86F062819D2DFE800F0160C11161616F0
:10249000EA6FDAF8001021F038011143CAF8001091
:1024A000EAE70198012101F0D5FE03E0009801213F
:1024B00001F060FF04467CB100E001242646287844
:1024C000C04340071FD4D5F89400062819D2DFE88E
:1024D00000F0160C11161616AA6FDAF8001021F08B
:1024E00007011143CAF80010E9E70198012101F042
:1024F000B1FE03E00098012101F03CFF0446A4B1C5
:1025000000E0012426462878C04380062BD4D5F865
:102510009000B0F1405F24D011DC10B3B0F1805FC7
:1025200015D0B0F1005F10D116E0D5F89420D9F89D
:10253000001021F007011143C9F80010E3E7B0F1E2
:10254000804F0ED0B0F1A04F0BD001240AE00198CB
:10255000002101F07FFE03E00098022101F00AFF54
:10256000044694B126462878C04340062BD4D5F8BB
:102570009C00B0F5406F24D011DC10B3B0F5806F33
:1025800015D0B0F5006F10D116E0D5F89020DAF82C
:10259000001021F0E0411143CAF80010E3E7B0F564
:1025A000805F0ED0B0F5A05F0BD001240AE0019847
:1025B000002101F04FFE03E00098022101F0DAFE55
:1025C000044694B126462878C04300062BD4D5F89B
:1025D000A000B0F5C04F24D011DC10B3B0F5005FFF
:1025E00015D0B0F5804F10D116E0D5F89C20D9F861
:1025F000001021F4E0511143C9F80010E3E7B0F5F1
:10260000004F0ED0B0F5204F0BD001240AE0019806
:10261000002101F01FFE03E00098022101F0AAFE54
:10262000044654B126462878C04300071ED4D5F886
:102630008400B0F5805F0AD00FE0D5F8A020D9F86B
:10264000001021F460411143C9F80010EBE7009835
:10265000022101F08FFE00B10126D5F88420DAF8BE
:10266000001021F440511143CAF800102878C043EB
:10267000C00613D4D5F89800B0F5807F05D1009836
:10268000022101F077FE00B10126D5F89820D9F893
:10269000001021F440711143C9F800102868C043AC
:1026A000000316D4D5F8A40038B1B0F5803F09D0A6
:1026B000B0F5003F0BD001240AE00198002101F0A1
:1026C000C9FD03E00098022101F054FE04468CB1DC
:1026D00026462868C043400322D4D5F88800B0F5C8
:1026E000801F11D0B0F5001F13D0B0F5401F15D0DA
:1026F000012414E0D5F8A420D9F8001021F44031C9
:102700001143C9F80010E4E7386840F4003038603D
:1027100004E00098012101F02DFE04465CB126463C
:102720002868C043C00323D4286DA8B1B0F5803F0A
:1027300017D001241BE0D5F88820DAF8001021F426
:1027400040111143CAF80010EAE700004C44025857
:1027500000480258CFFFFF00386840F4003038606E
:1027600004E00198022101F075FD0446E4B126461B
:102770002868C043800005D40098022101F0FAFDCA
:1027800000B101262868C04380031BD4D5F880001F
:10279000B0B1B0F5807F0FD0B0F5007F10D0B0F5AC
:1027A000407F0DD001240CE05A482A6D016821F4C5
:1027B000803111430160DBE7386840F40030386055
:1027C000ECB326462868C043C00207D46A6FD8F825
:1027D000001021F000411143C8F800102868C043E0
:1027E000C00008D4D5F8B820DBF8001021F48041EF
:1027F0001143CBF800102868C043800207D4EA6E6A
:10280000D8F8001021F080711143C8F80010286832
:10281000C04340000CD4DBF8001021F40041CBF899
:102820000010DBF80010D5F8BC201143CBF80010E5
:102830002868C04308D437486A6D016800E018E092
:1028400021F04051114301602868C043000208D4C0
:10285000D5F88C20DAF8001021F440011143CAF8B1
:10286000001028790024C04300F0010020430AD062
:102870000FE0D5F88020DAF8001021F44071114300
:10288000CAF800109EE70198002101F0E3FC00B1B6
:1028900006462879C04300F00200204305D1019884
:1028A000012101F0D7FC00B106462879C04300F0B1
:1028B0000400204305D10198022101F0CBFC00B1B6
:1028C00006462879C04300F00800204305D100984F
:1028D000002101F04FFD00B106462879C04300F009
:1028E0001000204305D10098012101F043FD00B103
:1028F00006462879C04300F02000044304D1009824
:10290000022101F037FD00B916B10120BDE8FE8FAC
:102910000020FBE74C4402582DE9F05F04000F460D
:102920007ED0DFF83882D8F8000000F00F00B842FF
:102930000CD2D8F8001021F00F013943C8F800106C
:10294000D8F8000000F00F00B84269D12078844D1B
:1029500040070AD52069296801F07001884204D92E
:10296000296821F070010143296020787C4E361DD2
:1029700000070AD56069316801F07001884204D906
:10298000316821F07001014331602078C0060AD51A
:10299000A069316801F4E061884204D9316821F40A
:1029A000E061014331602078DFF8B4B180060BF1BB
:1029B000080B0CD5E1695846DBF8002002F07002E4
:1029C000914204D9026822F070020A430260207822
:1029D00080070AD5E068296801F00F01884204D910
:1029E000296821F00F01014329602078C0073ED0FB
:1029F0005B49A2682868183920F470601043286089
:102A00006068022818D0032819D00968012819D055
:102A1000490700294ADADFF848A1AAF1080A00E0CC
:102A200044E0DAF8002022F007020243CAF800204E
:102A3000FEF78EFA814612E009688903E9E7096822
:102A40008901E6E7C905E4E7FEF782FAA0EB090190
:102A500041F28830814202D90320BDE8F09F6168CD
:102A6000DAF8000000F03800B0EBC10FECD12078AC
:102A700080070AD5E068296801F00F01884204D276
:102A8000296821F00F0101432960D8F80010404661
:102A900001F00F01B9420BD9016821F00F01394350
:102AA0000160006800F00F00B84201D00120D4E7B7
:102AB000207840070AD52069296801F07001884212
:102AC00004D2296821F070010143296020780007B1
:102AD0000AD56069316801F07001884204D231681A
:102AE00021F07001014331602078C0060AD5A06949
:102AF000316801F4E061884204D2316821F4E06178
:102B000001433160207880060CD5E1695846DBF836
:102B1000002002F07002914204D2026822F070029A
:102B20000A43026000F09AF80E492A682B68C2F343
:102B3000032203F00F038A5CC95C02F01F0201F05C
:102B40001F01D040084A20FA01F1116007490860CE
:102B500007480068BDE8F05FFEF774BC0020005233
:102B600018440258200501082400002420000024F5
:102B70001800002470B5144C3F220260124A2468E9
:102B80000832131D114D04F00704446016681C1D23
:102B900006F470668660166806F00F06C660126856
:102BA00002F0700202611A6802F0700242611A6853
:102BB00002F4E0628261226802F07002C261286859
:102BC00000F00F00086070BD104402580020005251
:102BD00030B500F043F80B4A0B490C4B15681468EC
:102BE000C5F3032204F00F048A5C095D02F01F02A2
:102BF00001F01F01D040064A20FA01F1196010606F
:102C0000084630BD1844025820050108240000245D
:102C10002000002400B5FFF7DBFF05490968054ADD
:102C2000C1F30211515C01F01F01C84000BD00005A
:102C30001C4402582005010800B5FFF7C9FF0549EB
:102C40000968054AC1F30221515C01F01F01C84027
:102C500000BD00001C44025820050108454970B51C
:102C600045480968434B103B11F0380208D0011168
:102C7000082A03D0102A0BD0182A0BD0084670BDA2
:102C800019688906FBD51968C1F3C101C84070BD38
:102C90003A4870BD3749374D18310C1D24350A6844
:102CA000096826682D6802F0030406F00102C1F3EA
:102CB0000511C5F3CC0515FB02F200EE102AB8EEA3
:102CC000400AE9B32F4ADFED2E0AB7EE001A6CB1C5
:102CD000DFED2D1A012C01D0022C43D002EE101A88
:102CE0001068F8EE422A81EEA22A1EE01C68A406B3
:102CF00011D51B6801EE901A1168C3F3C103F8EEF9
:102D0000612AD84001EE900AC1F30800F8EE611A7A
:102D100081EEA22A0BE001EE901ADFED1C2A00BF23
:102D2000F8EE611A106882EEA12AC0F3080001EEE5
:102D3000900AF8EE611A40EE201A31EE810A00E0A6
:102D400015E022EE000A1068C0F34620401C00EE99
:102D5000900AF8EE600A80EE201ABCEEC10A10EE6E
:102D6000100A70BD01EE901ADFED092AD8E70020A5
:102D700070BD0000104402580090D00340787D01DF
:102D800000000039304402580024744A0024744C76
:102D900020BCBE4B2DE9F05F04007DD0FF4F2078B2
:102DA000FE4D1837DFF8F493103DC00748D0D9F82E
:102DB0000000396800F03800102815D0182803D119
:102DC00001F0030002280FD06068B0F5803F12D0F8
:102DD00010B1B0F5A02F18D0286820F480302860FA
:102DE000286820F4802009E02868800328D56068DE
:102DF0000028D2D024E0286840F480302860606841
:102E000088B1FEF7A5F8064609E0286840F480205E
:102E10002860F0E7FEF79CF8801B64286FD82868CC
:102E20008003F7D50CE0FEF793F8064605E000BFF7
:102E3000FEF78EF8801B6428F0D828688003F7D44A
:102E4000207841F20308D54E0C3E800769D5D9F8A9
:102E50000000396810F038000ED0182801D188071A
:102E60000AD0E06890B3296821F019010143296074
:102E7000FEF76EF8824631E02868400702D5E06828
:102E800000288AD0E168286820F0190008432860EB
:102E9000FEF75EF8824607E0DFE000BFFEF758F875
:102EA000A0EB0A000228B9D828684007F6D500BF71
:102EB000FEF748F840451BD82069402812D03168F9
:102EC00021F47C3141EA003030602AE018E000BF94
:102ED000FEF73EF8A0EB0A0002289FD828684007BA
:102EE000F6D5E5E7306820F47C3040F40030EBE7BD
:102EF000207C316821F0FE4141EA0060E4E70DE109
:102F0000286820F001002860FEF722F8824605E0DC
:102F1000FEF71EF8A0EB0A0002288DD828684007AB
:102F2000F6D42078C0065DD5D9F80000DFF86CB281
:102F3000396800F03800ABF1040B082810D01828CD
:102F400003D101F0030001280AD0E06900282868B5
:102F500038D040F080002860FDF7FAFF824623E079
:102F60002868C00523D5E069802876D11FE0206A53
:102F7000202821D0316821F0F84141EA806030609A
:102F800030E000BF94F82010DBF8002022F07C52E3
:102F900042EA0161CBF8001024E000BFFDF7D8FF42
:102FA000A0EB0A00022898D82868C005F6D5FDF7DE
:102FB000C9FF4045E6D8DAE7306820F0F84040F035
:102FC0008040DCE720F080002860FDF7C1FF064666
:102FD00005E000BFFDF7BCFF801B02289DD82868D4
:102FE000C005F7D42078000729D56C4861696430A2
:102FF00000298046016811D041F001010160FDF710
:10300000A7FF064605E000BFFDF7A2FF801B0228D0
:10301000C9D8D8F800008007F6D510E021F00101EA
:103020000160FDF795FF064605E000BFFDF790FF44
:10303000801B022872D8D8F800008007F6D42078C8
:10304000800623D5A0690028286810D040F480505D
:103050002860FDF77DFF064605E036E1FDF778FFC5
:10306000801B02285AD828688004F7D50EE020F487
:1030700080502860FDF76CFF064604E0FDF768FF0E
:10308000801B02284AD828688004F7D4207840079B
:103090004FD5DFF80C81D8F8001041F48071C8F8E2
:1030A0000010FDF755FF064605E000BFFDF750FF95
:1030B000801B642832D8D8F80000C005F6D5374EFA
:1030C000A068603601280AD008B1052813D03068FE
:1030D00020F001003060306820F0040002E0306829
:1030E00040F001003060A06841F2883A90B1FDF7ED
:1030F0002FFF80460AE0306840F004003060EEE7C1
:10310000FDF726FFA0EB0801514507D8306880077E
:10311000F6D50EE0FDF71CFF804607E084E000BF17
:10312000FDF716FFA0EB080151457DD830688007F8
:10313000F6D4606AB0B3DFF86480D9F8001008F103
:1031400020084FF6F87B08F10409C1F3C2010329F6
:10315000A8F1040A69D00228286820F0807028604D
:1031600003D0FDF7F5FE044684E0FDF7F1FE0646C8
:1031700005E000BFFDF7ECFE801B022877D8286829
:103180008001F7D4E26A40F2F331386854F8283FFE
:10319000884340EA02101843386004E010440258A3
:1031A00000480258B5E0217B434622894FF4FE0CCB
:1031B000208A4FF0FE474902267D521E401EA1F58F
:1031C0000071C2F308088AB2761E0CEA004042EA97
:1031D00008020243504607EA06610A431A60DAF819
:1031E000002022F00102CAF80020D9F80020266A47
:1031F00022EA0B0242EAC602C9F80020DAF80010FF
:10320000A26921F00C011143CAF800100168E269BB
:1032100021F0020111430160016841F48031016035
:10322000016841F4003101E021E027E0016001681C
:1032300041F480210160016841F0010101602868CA
:1032400040F080702860FDF783FE044605E000BF73
:10325000FDF77EFE001B022809D828688001F7D5FB
:1032600057E000BFFDF774FE001B022802D90320BF
:10327000BDE8F09F28688001F4D44AE0396801284D
:10328000D8F8000021D0A26A01F0030393421CD1B8
:10329000E26AC1F305118A4217D1216BC0F308021B
:1032A000491E8A4211D1616BC0F34622491E9142E8
:1032B0000BD1A16BC0F30642491E914205D1E16BCF
:1032C000C0F30660491E814201D00120D0E7A16C05
:1032D0004E46D9F80000C0F3CC00814219D0DAF88C
:1032E0000000554620F00100CAF80000FDF730FE4E
:1032F0004FEA0007FDF72CFEB842FBD0A26C306805
:1033000020EA0B0040EAC2003060286840F001006B
:1033100028600020ACE710B5044600688069C0074B
:1033200007D0204600F047F82068416941F00101CC
:10333000416110BD70B504000D4603D094F82C0017
:1033400010B107E0012070BD002084F82D00204658
:1033500000F018F8022084F82C002068211DFDF7E9
:1033600095F9D4E900022946FDF7E2F90448012164
:10337000026842F00042026084F82C10002070BD08
:1033800000400052FDF742BC10B5044690F82C00F6
:10339000022804D094F82C00012801D0012010BD8F
:1033A000022084F82C002068FDF7A5F9012084F89C
:1033B0002C00002010BD704770B5044690F82C001A
:1033C0000D46022804D0012803D0052801D0012091
:1033D00070BD022084F82C002068FDF795F928685C
:1033E000022805D05FF0010084F82C00002070BD99
:1033F0000520F9E770477047704710B5040003D007
:1034000094F83D0010B107E0012010BD002084F8C1
:103410003C00204600F022F8022084F83D0020689D
:10342000211D01F083F9012084F8480084F83E0052
:1034300084F83F0084F8400084F8410084F842009A
:1034400084F8430084F8440084F8450084F846007A
:1034500084F8470084F83D00002010BD704700004C
:1034600090F83D10012901D001207047174A022130
:1034700080F83D100168CB6843F00103CB60006821
:10348000904214D0B0F1804F11D0114988420ED033
:10349000104988420BD01049884208D00F49884211
:1034A00005D00F49884202D00E49884207D1816871
:1034B0000D4A1140062906D0B1F5803F03D00168BE
:1034C00041F0010101600020704700000000014050
:1034D0000004004000080040000C004000040140CF
:1034E000001800400040014007000100704770B51F
:1034F0000446006800250169C943890715D4C168DD
:10350000C943890711D4EA1E02610121217720688D
:1035100080698007204602D0FFF7E8FF04E000F052
:10352000A7F8204600F0A5F8257720680169C9436F
:10353000490717D4C168C943490713D402216FF062
:103540000402026121772068806910F4407F2046E0
:1035500002D0FFF7CBFF04E000F08AF8204600F02D
:1035600088F8257720680169C943090716D4C1681E
:10357000C943090712D404216FF0080202612177C0
:103580002068C0698007204602D0FFF7AFFF04E043
:1035900000F06EF8204600F06CF82577206801698D
:1035A000C943C90617D4C168C943C90613D4082141
:1035B0006FF01002026121772068C06910F4407F2B
:1035C000204602D0FFF792FF04E000F051F82046B9
:1035D00000F04FF8257720680169C943C90708D171
:1035E000C168C943C90704D1891E0161204600F0A2
:1035F00041F820680169C943090609D4C168C94373
:10360000090605D46FF0800101612046FFF7F3FE43
:1036100020680169C943C90509D4C168C9430906BD
:1036200005D46FF4807101612046FFF7E3FE206846
:103630000169C943490609D4C168C943490605D48B
:103640006FF040010161204600F01EF8206801691A
:10365000C94389060BD4C168C943890607D46FF0F2
:10366000200101612046BDE87040FFF7C5BE70BD76
:103670007047704700680349884201D1FDF7ACBE2E
:103680007047000000140040704730B590F8841077
:10369000012918D0012280F884202421C0F8881044
:1036A0000022202401680B680D6823F0005325F0E8
:1036B00001050D60426601680B60C0F8884080F823
:1036C0008420104630BD022030BD70B5044690F80D
:1036D000840001281DD0012284F884202420C4F80D
:1036E000880020680568026822F0010202602068F4
:1036F000826822F060620A438260204601F078F816
:103700002268202100201560C4F8881084F8840005
:1037100070BD022070BD70B5044690F88400012889
:103720001DD0012284F884202420C4F88800206859
:103730000568026822F0010202602068826822F0B7
:1037400060420A438260204601F052F8226820213C
:1037500000201560C4F8881084F8840070BD022031
:1037600070BD10B5040003D0D4F8880010B107E094
:10377000012010BD002084F88400204600F026F8C7
:103780002420C4F888002068016821F0010101604C
:10379000204601F033F90128EBD0A06A10B1204691
:1037A00001F048F82068416821F4904141602068A8
:1037B000816821F02A0181602068016841F00101DF
:1037C00001602046BDE8104001F098B810B5B6B0D1
:1037D0000446142130A8FCF72BFEC0216846FCF7F4
:1037E00027FE1949206888422BD100201F90012113
:1037F0000446CDE900106846FEF7B8FB08B1FCF7B7
:103800003CFF1248016841F010010160006800F0BF
:10381000100035900D481038016841F00101016039
:10382000006830AB022100F0010035904FF4C06019
:10383000072283E81300064830A9CDE93342FDF79B
:103840005DFA36B010BD000000100140F04402588F
:10385000000002582DE9F8430446D0F88800984645
:1038600016460D46202802D00220BDE8F883A5B1F7
:103870009EB10021C4F890102120C4F888001834AB
:10388000FDF766FB814654F8100CA687E6872027D3
:10389000183CB0F5805F02D003E00120E5E7206925
:1038A00010B12E46002510E000260EE080212046B3
:1038B00001F07AFAC0B9DEB116F8010B216888620E
:1038C000B4F85600401EA4F85600B4F856004B4613
:1038D0004FF00002CDF800800028E7D14FF0400102
:1038E000204601F061FA48B1C4F888700320BCE7B3
:1038F00035F8020B2168C0F30800E0E7C4F88870CF
:103900000020B2E7FDF72CBBFEE701688A69D243CD
:10391000920701D400228A6200688169C943C907FD
:1039200003D0816941F00101816170472DE9F047C1
:10393000044600680026894617464FF020083546A1
:103940008169C90641D51021C1612FE0B9F1FF3F5E
:103950002CD0FDF7FDFAC11B494502D8B9F1000F83
:1039600024D12068426894F84210836902F48042AE
:10397000DB431B0415D4B2F5804F12D0202910D0A0
:10398000416841F480414160FDF7E2FA074608E0F2
:10399000FDF7DEFAC01B192803D9012645F02005E2
:1039A00004E020688069C0438006F1D42068806903
:1039B000C043800602D5002EC8D003E016B92168A6
:1039C000C1F81C80012645F0040521688869C205FC
:1039D00005D54FF48072CA6145F001050126410505
:1039E0000AD5216880054FF4806245F00805CA6158
:1039F0004FF0010602D40AE0800507D520680126B1
:103A00004FF4007145F00205C16100E08EB120461F
:103A1000FFF77BFF20680021074F43683B4043606E
:103A2000606C2843606484F8418084F8421084F814
:103A300040103046BDE8F08700E800FE70B5006831
:103A4000C1F3090141EA0241074D049C19434FF4B7
:103A500080664268214306EA54532B439A4321F07F
:103A600000410A43426070BDFF63FF032DE9F0414E
:103A70001E4617460D460446DDF8188021E0701CEE
:103A80001FD0FDF765FAA0EB0800B04200D8C6B918
:103A90002068806935EA000011D00020B84210D1BA
:103AA000626C002084F84000202142F02002626411
:103AB00084F8411084F842000120BDE8F081012023
:103AC000ECE72068806935EA000004D00020B842A5
:103AD000D5D00020F1E70120F9E700002DE9F04101
:103AE0002026904600250F46044641E042463946CE
:103AF0002046FFF71BFF10BB20688069C04380068B
:103B00001ED420688169C943490701D4218D71BB46
:103B10008169C943C90604D41022C26104216164C9
:103B200000E0656420681649C661206842680A4062
:103B3000426084F8416084F8425084F8405013E0B9
:103B4000FDF706FAA0EB0800B84200D887B9206854
:103B50008069C04340070BD5606C84F8405040F04A
:103B60002000606484F841600120BDE8F08104E039
:103B700020688069C0434007B8D40020F5E7000002
:103B800000E800FE70B516460D4604461FE03246BA
:103B900029462046FFF7CAFE08B1012070BDFDF797
:103BA000D7F9801BA84200D88DB920688069C0432E
:103BB00080060CD5626C002084F84000202142F081
:103BC0002002626484F8411084F84200E5E720682E
:103BD0008069C0438006DAD4002070BD70B51646F7
:103BE0000D46044621E0324629462046FFF79EFE58
:103BF00008B1012070BD681C17D0FDF7A9F9801B22
:103C0000A84200D88DB920688069C04380070CD5D0
:103C1000626C002084F84000202142F0200262649F
:103C200084F8411084F84200E3E720688069C043CB
:103C30008007D8D4002070BD0148FDF773BC000098
:103C40007C0300242DE9FE4F8146006888249346BA
:103C50008D888C2204EBCB178A46C3689421BE461C
:103C6000C459C3F30B432B4404F470441F0401975D
:103C700002EBCB1240F80E4001EBCB13DAF80070E8
:103C80009C214FF0AC0C01EBCB1440F20771029178
:103C90000CEBCB11D9F800C098250020CDF800C05E
:103CA000A02605EBCB15DCF80CC006EBCB16CCF34D
:103CB0000B4C0CF1010C07EB0C08DDF800C0019F68
:103CC00048EA07084CF80E80D9F80070BAF80CC022
:103CD000B846FF68C7F30A0767444FEA074E58F82B
:103CE000027007F4704C48F802C0D9F800C0DAF846
:103CF0000870DCF80C80C8F30A0808F10108B84421
:103D000048EA0E084CF80280D9F80020D75827F06E
:103D10000707D750D9F80070DAF81020FA509AF84F
:103D200031209AF818304FEA022C9AF83220120407
:103D300042EA0362D9F800301F5918519AF830301E
:103D400043EA0C031343D9F800201351D9F800209B
:103D5000535923F0FF035351D9F80020DAF81430F7
:103D60005351D9F800209359029CA3439351D9F899
:103D70000030DAE9072422439A51D9F80020535839
:103D80005050D9F80020DAF824005050DAF810002A
:103D9000C8B301283AD004283AD0022838D00328E2
:103DA00036D0072834D00120D9F80030B02505EBF3
:103DB000CB11B42284245D5802EBCB1205F0E02530
:103DC0005D50DAE9003504EBCB14EB1ABAF8285051
:103DD00043434543D9F80000DB1D43EA0543435004
:103DE000D9F8000081586FF30A018150D9F800001A
:103DF000DAF82C108150D9F80000015941F0010186
:103E00000151BDE8FE8FFFE70420CDE70320CBE79B
:103E10000220C9E77FB5FDF7B3FD00208DF80F0044
:103E200001218DF80E1018228DF8082003238DF83B
:103E30000B308DF8001002248DF80D004FF0404536
:103E40008DF80A0001958DF801408DF809008DF874
:103E50000C006846FDF766FD0420FDF79FFD7FBD61
:103E60000A480021084B012210B50360017141711D
:103E7000416102628161FCF70FFD002803D0BDE8BB
:103E80001040FCF7FABB10BD004C02586802002439
:103E9000104802220E4B002110B50360C0E9011248
:103EA000C160C0E91112C164016541658165C165E8
:103EB000FCF736FE08B1FCF7E0FB06480121FCF7F1
:103EC0003DFD002803D0BDE81040FCF7D6BB10BD77
:103ED000001000528C020024F0B587B01C21684607
:103EE000FCF7A6FA164801260022144D02214FF0D5
:103EF000100C082705604FF4C075C0E90126C760A3
:103F000040248E02C0F810C00F03C0E90545C0E987
:103F1000072607230424C0E909278DE81A00032592
:103F20000393CDE9045106916946FFF703FA00288F
:103F300001D0FCF7A2FB07B0F0BD000040410052E9
:103F4000F4020024074A0021074810B50AF002FBDA
:103F5000064C0021034A2432206005480AF0FAFA90
:103F6000606010BDB0040108194500080400002479
:103F7000354500082DE9F04786B014216846FCF766
:103F800057FA3F48016841F010010160016801F0F3
:103F900010010591016841F002010160016801F022
:103FA00002010591016841F040010160016801F0E2
:103FB00040010591016841F008010160016801F0CC
:103FC00008010591016841F480710160016801F404
:103FD00080710591016841F004010160016801F000
:103FE00004010591016841F080010160016801F060
:103FF00080010591016841F001010160016801F053
:1040000001010591016841F02001016000684FF451
:104010000056DFF87080002200F020003146059045
:104020004046FCF789FFDFF860900122C021484636
:10403000FCF782FF0122DFF854A0D7025046394630
:10404000FCF77AFF00250096012469464046CDE939
:1040500001450395FCF752FEC0206946CDE90004F6
:10406000CDE902454846FCF749FECDE90074CDE9AB
:10407000024569465046FCF741FE06B0BDE8F087B0
:10408000E044025800080258001C0258000C025874
:104090001348002110B5114C0123124A0460C0E9F5
:1040A0000121C0E9033141618161C1610162FCF715
:1040B000BDFF08B1FCF7E1FA09480021FCF760FFF9
:1040C00008B1FCF7DAFA06480021FCF785FF002862
:1040D00003D0BDE81040FCF7D0BA10BD001C00585A
:1040E00028030024B1757030F0B58DB034216846D6
:1040F000FCF79EF924480024224A2E2100F11C0ED0
:1041000040F22E4340F2712640F2564702601922D7
:10411000446040F27B2C84600225C46004618EE818
:10412000CE10C0E9054580F8344080F8354080F86D
:104130003640FDF75BFA08B1FCF79FFA4FF4806058
:1041400004954FF4167107AF0523CE06CDE9004064
:10415000CDE9024187E84900CDE90A01FF220A487A
:10416000CDE905248DF8304000228DF831406946B4
:104170008DF83240FDF7ACF9002801D0FCF77DFA4C
:104180000DB0F0BD001000507C03002410B50AF003
:1041900087FEBDE810400AF085BE70470AF0BEBE3B
:1041A0001848002110B5164C0C224FF4E13304607E
:1041B000C0E90131C160C0E904128161C1610162DD
:1041C00041628162FFF7CDFA08B1FCF756FA0D485B
:1041D0000021FFF7A0FA08B1FCF74FFA09480021C7
:1041E000FFF773FA08B1FCF748FA0648FFF74DFAF3
:1041F000002803D0BDE81040FCF73FBA10BD000016
:104200000010014070040024FEE7FEE710B5006CCA
:1042100000218163C16290F84110082905D0012175
:1042200080F84110FDF754FC10BD02680221D160F6
:1042300001680A6842F400320A600068016841F0CF
:104240000201016010BD00000148FDF743BC000001
:10425000240400242DE9F047454D044689464FF0DB
:10426000000A2868C04380070AD0414E283E3068C3
:1042700020F080603060FCF76BFE0746B04608E037
:104280000120BDE8F08700BFFCF762FEC01B0228DA
:1042900067D8D8F800000001F6D4206829684FF4E8
:1042A000FE0721F47C313E0241EA00302860207A8A
:1042B000A389B4F804C040022D4D2D495B1E227C19
:1042C000ACF1010C1035091DA0F5007080B2521E32
:1042D000CCF3080C07EA034340EA0C00184306EA53
:1042E0000262104328600868626920F0C000104331
:1042F00008600A68A06922F0200202430A60281DB3
:104300000A6822F010020A6002684FF6F873E46946
:104310009A4342EAC40202600868B9F1000F40F013
:1043200010020A6011D00868B9F1010F11D040F4F1
:1043300000100860D8F80000444640F08060C8F8DB
:104340000000FCF705FE05460DE0086840F400207B
:10435000EFE740F48010ECE7FCF7FAFD401B022881
:1043600001D903208DE720680001F5D5504688E784
:10437000284402582DE9F047454D044689464FF040
:10438000000A2868C04380070AD0414E283E3068A2
:1043900020F080503060FCF7DBFD0746B04608E0B7
:1043A0000120BDE8F08700BFFCF7D2FDC01B02284A
:1043B00067D8D8F800008000F6D4208829684FF428
:1043C000FE0721F07C713E0241EA00502860207A0D
:1043D000A389B4F804C040022D4D2D495B1E227CF8
:1043E000ACF1010C1835091DA0F5007080B2521E09
:1043F000CCF3080C07EA034340EA0C00184306EA32
:104400000262104328600868626920F4406010432B
:1044100008600A68A06922F4007202430A60281D3D
:104420000A6822F480720A6002684FF6F873E46941
:104430009A4342EAC40202600868B9F1000F40F4EE
:1044400080720A6011D00868B9F1010F11D040F0F4
:1044500080700860D8F80000444640F08050C8F8EA
:104460000000FCF775FD05460DE0086840F480008B
:10447000EFE740F40000ECE7FCF76AFD401B022880
:1044800001D903208DE720688000F5D5504688E7E4
:10449000284402582DE9F8431C4C102600274FF6FB
:1044A000FF7901251A484A462146C4E90056C4E965
:1044B0000257FEF781FF17480090401E0090FCD184
:1044C00002211348C4E900161049B846C4E902574E
:1044D0004A46FEF771FF04270D4803214A4684E847
:1044E000C2010A49FEF768FF40F2312007494A46F7
:1044F000C4E902500648C4E90076FEF75DFFBDE856
:10450000F84303484FF44E71FEF73EBF58020024B3
:10451000F4020024A0860100054D4FF4005421460A
:104520002846FCF701FD642009F09CFEF7E7000037
:1045300000080258FFF732FE012009F093FEFBE766
:104540004FF0E02010B500690BF086FC012803D085
:10455000BDE810400AF0F2BF10BD000070B59CB07D
:104560004C216846FBF764FF202113A8FBF760FF8E
:104570000220FDF781FA2E4900242E480A6822F015
:1045800001020A600A68026842F44042026002685E
:1045900002F440421B9202689204FCD5264A13683A
:1045A00043F002031360126802F002021B920268D9
:1045B00042F44042026002680A6842F001020A6066
:1045C000096801F001011B9101688904FCD50220F2
:1045D00009900DF1280C01260096C10301910522D6
:1045E000C02350268CE80D00CDE90D0608250F905C
:1045F000CDE9105468461294FEF7CCFB08B172B6B0
:10460000FEE740201A903F210301CDE91650032216
:10461000CDE9180313AB13A883E816000421FEF7B5
:104620007BF9002801D072B6FEE71CB070BD000017
:104630002C04005818480258F44402582E48F0B58B
:104640002E4A016841F470010160106800F00F000B
:10465000072804D2106820F00F00C01D1060284900
:104660000020274C10340B68264D43F001030B60EB
:1046700020600B682B400B60136803F00F03072BBF
:1046800004D9136823F00F03DB1D13601C4C1E4A72
:1046900018341E4B261D371D2060194C1C4D283424
:1046A0003060261D3860371D23603B1D35601C1DA2
:1046B0003A60251D2E1D1860331D2260286032606F
:1046C00018600A680E4B134C22F4802260330A6093
:1046D000186020686FF30F00B0F1005F03D20E493D
:1046E0000120C1F8080143F2D2000C49024B4A03F1
:1046F000803B08601A60F0BD88ED00E000200052A9
:10470000004402587FEDF6EA800201010002020235
:104710000000FF010010005C0080005100400052CA
:104720000148FEF7E4BE0000040500242DE9F0472F
:10473000274B4FF0804A274D02689842264E274F5C
:10474000274C09D0504507D0A84205D0B04203D02D
:10475000B84201D0A04205D1D1F804C022F07002C5
:104760004CEA0202DFF87CC0DFF87C809842DFF878
:104770007C900FD050450DD0A8420BD0B04209D04C
:10478000B84207D0A04205D0604503D0404501D0D3
:10479000484503D1CD6822F440722A434D6922F086
:1047A00080022A43026098428A68C2620A68826272
:1047B00007D0A04205D0604503D0404501D0484510
:1047C00001D10969016301214161BDE8F087000061
:1047D000000001400004004000080040000C0040C0
:1047E00000040140004001400044014000480140F5
:1047F00030B5416EB9B101680D4B03F108048A6808
:104800008968C2F34262490F5D5C615C2D01B5FBB2
:10481000F1F1A0F86A10995CA25C0901B1FBF2F118
:10482000A0F8681030BD0121A0F86A10F8E7000078
:104830001005010890F82810C90706D00168C36A5E
:104840004A6822F400321A434A6090F82810890717
:1048500006D50168036B4A6822F480321A434A6025
:1048600090F82810490706D50168436B4A6822F47E
:1048700080221A434A6090F82810090706D501687B
:10488000836B4A6822F400421A434A6090F8281069
:10489000C90606D50168C36B8A6822F480521A43A0
:1048A0008A6090F82810890606D50168036C8A682A
:1048B00022F400521A438A6090F82810490611D554
:1048C0000168436C4A6822F480121A434A60416CC2
:1048D000B1F5801F06D10168836C4A6822F4C002DA
:1048E0001A434A6090F82810090606D50168C26C80
:1048F000486820F400201043486070472DE9F843D1
:1049000000250446C0F89050FCF722FB8046206842
:1049100020266FF07E470068000713D5002243462B
:1049200031042046009700F03FFA58B1216851E861
:10493000000F20F0800041E80002002AF6D1C4F800
:10494000886021E020680068400722D500224346A5
:104950004FF480012046009700F026FAC8B1206885
:1049600050E8001F21F4907140E80012002AF6D1AF
:104970002068083050E8001F21F0010140E80012D3
:10498000002AF5D1C4F88C60032084F88450BDE877
:10499000F883C4F88860C4F88C60E5662567002059
:1049A00084F88450F3E7000010B5026852E8001F55
:1049B00021F4907142E80013002BF6D10E4B0268EF
:1049C000083252E8001F194042E80014002CF6D1CA
:1049D000C16E012908D1026852E8001F21F01001C0
:1049E00042E80013002BF6D100212022C0F88C20D1
:1049F000C166416710BD0000FEFFFFEF2DE9F043E7
:104A000004468068D84E87B0D84B2168D4E9042783
:104A1000D4F81CC010430A68002547EA0C07384345
:104A2000324002430A602068E268416821F4405144
:104A3000114341602268A1699A4201D0206A014372
:104A40009768DFF82CC3CB4ECB4807EA0C070F431F
:104A500097602168676ACA6A22F00F023A43CA6205
:104A60002268B2420ED1006800F03800182873D0D6
:104A700047DCB8B3082879D010286FD178E028280F
:104A80007ED17BE0BD498A4209D1006800F0070071
:104A9000062875D2DFE800F0546A6C6E7072B8496F
:104AA0008A4209D1006800F00700062868D2DFE8D2
:104AB00000F0475D5F616365B2498A4209D10068D1
:104AC00000F0070006285BD2DFE800F03A505254AD
:104AD0005658AD498A420BD1006800F007000628FD
:104AE0004ED200E010E0DFE800F02B41434547499B
:104AF000A6498A420AD1006800F03800182839D047
:104B0000B7DD2028BBD13CE001203AE0A0498A4231
:104B100009D1006800F00700062831D2DFE800F074
:104B20001026282A2C2E9B498A420BD1006800F0BF
:104B30000700062824D2DFE800F003191B1D1F21FF
:104B400000201EE09A421BD18B48001D006800F037
:104B50000700062814D202E00CE007E010E0DFE8CE
:104B600000F0030507090B0D02200AE0042008E00D
:104B7000082006E0102004E0202002E0402000E0B1
:104B800080208549DFF814829A42854A4FF4004319
:104B90004FEA21174FF000064ED110281AD006DC3C
:104BA000022809D004280BD008287CD10DE0202849
:104BB0003ED0402877D13DE0FDF782F8014610E075
:104BC0006846FDF78FF801990BE003A8FDF72CF973
:104BD000049906E01068800605D51068C0F3C1008E
:104BE000C140002970D0606A676838F8102007EB70
:104BF0004703B1FBF2F0834255D8B0EB073F52D8E0
:104C0000002308461946FBF7C9FB02467808130E35
:104C1000120243EA012110183A4671410023FBF7C2
:104C2000BDFB604AA0F5407191423CD821688FE0FD
:104C30003946D8E71946D6E7D4F81CC04FF6EF79C5
:104C40009C4546D1082819D005DC58B101280CD064
:104C5000042875D10DE0102815D0202835D0402823
:104C60006ED134E0FDF7D6FF01E0FDF7E5FF014628
:104C700010E06846FDF736F801990BE003A8FDF750
:104C8000D3F8049906E01068800604D51068C0F3D4
:104C9000C100C140C1B1636A606838F81330B1FB2C
:104CA000F3F1490000E04BE001EB5001B1FBF0F003
:104CB000A0F11001494543D84FF6F0732168C0F3C5
:104CC00042021840104343E043E03946E3E7194607
:104CD000E1E7082819D005DC58B101280CD00428D8
:104CE0002ED10DE0102815D020282BD0402827D118
:104CF0002AE0FDF78FFF01E0FDF79EFF014610E07F
:104D00006846FCF7EFFF01990BE003A8FDF78CF86C
:104D1000049906E01068800604D51068C0F3C1004D
:104D2000C140B1B1636A606838F81330B1FBF3F188
:104D300001EB5001B1FBF0F0A0F11001494505D99C
:104D4000012506E03946EDE71946EBE7216880B218
:104D5000C8600120A4F86A00A4F8680028466667C5
:104D6000A66707B0BDE8F083F369FFCF000C0058D9
:104D7000FFF4FF1100100140544402580044004069
:104D800000480040004C004000500040001401402A
:104D900000780040007C00400090D003F804010837
:104DA00000440258FFFC0F002DE9F04799461746D2
:104DB0000E460446089D4FF000082FE0681C2DD0D9
:104DC000FCF7C6F8A0EB0900A84214D89DB12068F2
:104DD0000168490722D5C169C94309070DD40825CF
:104DE00005622046FFF7E0FDC4F89050012084F8EA
:104DF0008480BDE8F0870320FBE7C069C04300055D
:104E00000CD421684FF4006008622046FFF7CCFD07
:104E10002021C4F8901084F88480ECE72068C069F1
:104E200036EA000004D00020B842C7D00020E0E7F6
:104E30000120F9E7FEE7002809DB410900F01F0225
:104E40008900012001F1E0219040C1F80001704784
:104E500000280DDB410900F01F028900012001F14B
:104E6000E0219040C1F88001BFF34F8FBFF36F8FF7
:104E70007047090700284FEA116104DB00F1E020C8
:104E800080F80014704700F00F0000F1E02080F877
:104E9000141D704702480068406801684969084766
:104EA0002C020024164800B58DB00078C00723D12D
:104EB000134808F0D6FEF8B100200A903F2109916E
:104EC00010490A230B90104A0C9005900690CDE9EA
:104ED0000721042201210491CDE90030CDE902022D
:104EE0000B480A46094902F0DDF80A4A0A49FBF76D
:104EF000BBFA0348AFF300800DB0054800BD0000C9
:104F0000C80000242C8D0208388D0208648C020829
:104F1000C85C002400000008ED700008174810B5B8
:104F20008EB00078C00725D1144808F09AFE08B367
:104F30000020134A0DF1140C124B3F21099101215D
:104F40000A900B90042408920C220C908CE80B0021
:104F5000CDE90204019014200491034600900A490F
:104F60000A4802F09FF80A4A0A49FBF77DFA03480B
:104F7000AFF300800EB0054810BD0000CC00002447
:104F8000308D02083C8D0208748C0208F45C002409
:104F900000000008ED700008164800B58DB00078DC
:104FA000C00723D1134808F05CFEF8B100200A9036
:104FB0003F210991104928230B90104A0C9005902D
:104FC0000690CDE90721042201210491CDE90030AA
:104FD000CDE902020B480A46094902F063F80A4A81
:104FE0000A49FBF741FA0348AFF300800DB00548CA
:104FF00000BD0000D0000024348D0208408D02085E
:105000001C8D0208205D002400000008ED700008DF
:1050100000F074B87047000010B500F071F8014955
:10502000016010BDB405010800F0D2B800F042B92B
:1050300000F042B900F080B900F087B900F087B9FC
:1050400000F08EB900F094B900F09EB900F0B4B948
:1050500000F0B4B97047000000F5967210B500F189
:105060002C03836000F58A7400F11401C0E9034247
:10507000114AC0E90021084602F0F4F90F4940F84E
:10508000181B02F0EFF90E4940F8E81B02F0EAF9AC
:105090000C4940F8141B00F0F8F9A0F5947000F5E5
:1050A00094710246081D00F0C1F8A0F5967400F056
:1050B00089F9204610BD0000C006010864110108EE
:1050C0003011010898110108084910B5016000F578
:1050D000967000F0D3F9183802F0CCF9E83802F0F5
:1050E000C9F9183802F0C6F9143810BDC006010815
:1050F00000487047300501080220704770470000E3
:105100002DE9FE4304F016F830490026C66340F846
:10511000401B02F08BFA2C3002F088FA2C3002F09F
:1051200073F8A0F198050022583811464FF48068B2
:1051300004464FF416774346009704F053F80022D4
:105140001146104603F088FC2146A062281D07F096
:10515000CBFD0022434605F16C0011460446009742
:1051600004F040F8FF22DA21082003F075FC214604
:10517000A062281D07F0B8FD05F1980040F2131257
:105180004FF4C471044604F092F80120ADF8080011
:1051900002AA204601A9ADF8046003F022FD2046D2
:1051A000268701F0EBFFFF221146104603F054FC66
:1051B000FF22E0631146104603F04EFC21462064B6
:1051C000281D07F091FD2846BDE8FE83D40601089E
:1051D000034901609821034A0A5003F037BC0000DC
:1051E000D4060108B009010870477047044A00233B
:1051F000836002F11803C160C0E90023704700001A
:1052000008070108704701207047000000487047F8
:105210004C5D002410B50446D0F8580100F034F974
:105220002046BDE8104001F067B9000010B500F05D
:10523000E9F80149016010BD300701087CB514464A
:105240000D46684608F09EFEBDF80000002806D016
:10525000BDF802002860BDF80400206001207CBD7C
:1052600070477047114870B50068C0031DD50F49DD
:10527000002070310860BFF34F8F081F43F6FF73A3
:1052800000680B4DC0F34E31C0F3C90203EA41146C
:10529000104600BF44EA80762E60401EFAD2491EB6
:1052A000F4D2BFF34F8FBFF36F8F70BD14ED00E0EA
:1052B00074EF00E002F0DEB970B5044602F0E6F9E2
:1052C00000F0D2FA01462068426E204690472068DE
:1052D0000023044AD0F8885020461104AC46BDE8AB
:1052E0007040604700C012C0114870B50068C0032C
:1052F0001DD50F49002070310860BFF34F8F081F84
:1053000043F6FF7300680B4DC0F34E31C0F3C90282
:1053100003EA4114104600BF44EA80762E60401E26
:10532000FAD2491EF4D2BFF34F8FBFF36F8F70BD17
:1053300014ED00E074EF00E05A2010B5FFF77BFD9C
:10534000BDE810405820FFF776BD02F059BA5A2048
:1053500010B5FFF77DFDBDE810405820FFF778BD80
:1053600002480122C0F8AC104262704700100050A1
:1053700009215A2010B5FFF77CFD0921BDE8104036
:105380005820FFF776BD000009480A49C268C2F3F9
:105390000A02521E92B20A800369C3F30A035B1E1B
:1053A0004B800264416B41F0010141637047000092
:1053B000001000503400002402F02DBD02F03DBD6D
:1053C00070470000054A00F5A271D2E90032CA60B8
:1053D000C1E90103C0F840117047000058050108F9
:1053E00008B5D0F85811054B009100F59E71D0F822
:1053F000542103480AF062FF08BD0000E0010024C8
:10540000DC01002470B514460D4601F0EBF8154A96
:105410000021154A0646C0F83C11C0F84011106042
:10542000124A026000F5A270114AC0E90021114A37
:10543000D2E90212C0E902120F48C6E955450068D8
:1054400001688A6800219047002003F01DFB02F0EC
:10545000B7FA06F07CFB02F0B3FA06F0B1FB304677
:1054600070BD00005C090108E4010024B0070108D8
:10547000C80C0108580501082C02002401490160EC
:1054800070470000B00701087047002101607047B5
:105490000E4808B5016841F010010160006800F095
:1054A0001000009009485838016841F0100101606F
:1054B000016821F0100101600649054808624FF0BB
:1054C00080600549C1F8000108BD0000D4440258BD
:1054D000954E00088C02002408E000E040F2EF3016
:1054E000704700002DE9F0410C46497F074600F067
:1054F000E8F8A17F0646384600F0E3F8A17F0546AC
:10550000384600F0F2F846490746628BA38A4548C0
:10551000DFF814C1D21A0A64628BA38AD21A8A6194
:10552000228BA38AD21A0A614F6362694FEA324220
:105530004A642269CA636268CA602268802A27D0E6
:1055400006DC042A5DD0202A5BD0402A06D158E030
:10555000B2F5807F10D0B2F5007F10D0207F46EAF0
:10556000006040F40030C861607FA27F904253D059
:10557000C1F800C0BDE8F081227F2C4B02E02B4B2C
:10558000227F5B1E03EB0262CA61E2680A623EE0B0
:10559000A268131DCB62237F46EA036343F4003302
:1055A000CB614D6223694B616FF0FF0613784FF6B4
:1055B000107513F0FF074FF0010303D0012F08D03F
:1055C000AFF300805488CA69AA4306EB042422433F
:1055D0000BE0247FFF2C00D100235488CA69AA4322
:1055E00006EB0424224342F01002CA61CA6942F069
:1055F0002002CA61CA699206FCD410228A604BB9A3
:10560000B6E7227F46EA026242F40032CA614D6286
:1056100022694A610860ADE740F20120FAE7000024
:105620000010005201020200010201000A00020003
:1056300070B50C46897F00F058F81C4948636269D0
:105640004FEA32424A642269CA63628BA38AD21A41
:105650000A642268082A13D00022C8610A614FF444
:105660007842E0684FF4FC6302EA102203EA501328
:105670001A43C0F3C40002430D488A63086070BD3A
:10568000638BA58A0B4A5B1B8B61638BA58A5B1BB3
:105690000B614862207F02EB0060C861E06808622D
:1056A000054822694A612269CA60E7E70010005292
:1056B0000102030009000100010202000168896A79
:1056C000084700200C2910B50DD2DFE801F00806CC
:1056D000070C0C0C0C0A0A0A0A0A012010BD022051
:1056E00010BD052010BDAFF3008000200B2910B5C0
:1056F0000BD2DFE801F00806070A0A0A0A060606C6
:105700000600012010BD022010BDAFF30080000094
:1057100010B500F10C014160002202720B4642728A
:1057200007496022016000F12001184601F0EEFEF9
:10573000044960232422143008F081FA203810BD77
:1057400004080108DD8B0008064A054901604FF096
:105750008061C2F88011BFF34F8FBFF36F8F704726
:105760000408010808E000E030B5044C039D046023
:105770000171C2800381458130BD000054080108D9
:1057800001210022084610B508F06AFE064C206090
:1057900038B100220421012008F0D2FD0028606009
:1057A00001D1AFF3008010BD3C0000240349002369
:1057B0001A46A1F10800406808F0EEBD440000243C
:1057C00038B5074C00231A466946606808F086FD24
:1057D000606800224FF0FF33694608F07FFD38BD56
:1057E0003C0000240148006808F086BE3C0000240C
:1057F00002484FF0FF31006808F002BE3C00002470
:1058000002480021006808F0FBBD00003C000024B5
:105810000148006808F070BE3C00002410B500F09C
:1058200023F80168C96BBDE8104008474160704724
:10583000704770473EB5044609480022114600886B
:1058400000B200900748008803B201A803F0B1F845
:105850002068DDE90112036C204698473EBD000038
:1058600024020024220200240148C068704700007E
:10587000D801002470B50446002004F18405A4F882
:10588000A400B4F88000A4F8A6000BE0415D21B1AB
:1058900054F820000168096D8847B4F8A400401C42
:1058A000A4F8A400B4F8A400B4F8A6108842EDD37C
:1058B00070BD0022A0F8802011464318491C202901
:1058C00083F88420F9DB70472DE9F041002214466B
:1058D000134611461DE0451895F8846076B1914253
:1058E0000AD08EB250F8267096B240F8267086180C
:1058F00095F8845086F88450521C09E0B0F8A45002
:105900008D4200DB641CB0F8A6508D4200DD5B1CAC
:10591000491CB0F880508D42DDDCB0F8A410091BA2
:10592000A0F8A410B0F8A610C91AA0F8A6100EE0AE
:105930005C1EA1B28B4201D8AFF30080A3B2A0F8E5
:1059400080308B4203D950F8234040F82140B0F812
:1059500080309342ECDCBDE8F081000003484068F1
:10596000002802D00268926A10477047D8010024CC
:105970002DE9F74F8146FF4884B0008802B2FE4807
:10598000008801B205A802F0A6FF05A807F02DFCCB
:1059900000287DD109F1AC05B9F8EC400AE0A0B2CD
:1059A00005EBC00105A807F02CFC18B1A1B22846F0
:1059B0000AF017FD641EF2D5B9F8EC604FF0000A4A
:1059C000D046761E7ED4B0B205A905EBC0042046B1
:1059D00007F040FC00287CD0BDF91400B4F9001099
:1059E000884232DB05A807F0F6FB0746204607F0A1
:1059F000F2FB874229DCBDF91600B4F90210884297
:105A000012DB204607F0ECFBBDF91620BDF81A109A
:105A1000801A00B2091A09B2ADF81A10002937DD50
:105A20001044ADF816004CE005A807F0D9FB074676
:105A3000204607F0D5FB874207DC6088BDF81610CA
:105A4000401A00B2ADF81A0039E0BDF91600B4F9F9
:105A5000021088423BDB05A807F0C2FB0746204640
:105A600007F0BEFB874232DCBDF91400B4F9001028
:105A7000884214DB204607F0AEFBBDF91420BDF8C8
:105A80001810801A00B2091A09B2ADF8181000E017
:105A900080E000297EDD1044ADF8140011E005A877
:105AA00007F099FB0746204607F095FB87420EDC7E
:105AB0002088BDF81410401A00B2ADF81800002874
:105AC00068DD01E083E004E04FF0010801E04FF001
:105AD000010A761E7FF577AFB8F1000F7FF46CAF47
