:020000040800F2
:10000000A0890424B1020008C74200080138000892
:10001000C5420008D3040008BD4E000800000000DF
:10002000000000000000000000000000D5450008AE
:10003000FD04000800000000C9420008D745000880
:10004000CB020008CB020008CB020008CB0200085C
:10005000CB020008CB020008CB020008CB0200084C
:10006000CB020008CB020008CB020008CB0200083C
:10007000CB020008CB020008CB020008CB0200082C
:10008000CB020008CB020008CB020008CB0200081C
:10009000CB020008CB020008CB020008CB0200080C
:1000A000CB020008CB020008CB020008CB020008FC
:1000B000CB020008CB020008CB020008CB020008EC
:1000C000CB020008CB020008CB020008CB020008DC
:1000D000CB020008CB020008CB020008CB020008CC
:1000E000CB020008CB02000800000000CB02000891
:1000F000CB020008CB020008CB020008CB020008AC
:1001000005050008CB020008CB020008CB0200085E
:10011000CB020008CB0200089D470008A947000851
:10012000CB020008CB020008CB020008CB0200087B
:10013000CB020008CB020008CB020008CB0200086B
:1001400000000000000000000000000000000000AF
:10015000CB020008CB020008CB020008CB0200084B
:10016000CB020008CB020008CB020008CB0200083B
:10017000CB020008CB020008CB020008CB0200082B
:10018000CB020008CB020008CB020008CB0200081B
:10019000CB020008CB020008CB020008CB0200080B
:1001A000AD3C0008CB020008D5040008CB020008D3
:1001B00005430008CB020008CB020008CB02000870
:1001C000CB020008CB020008CB020008CB020008DB
:1001D000CB020008CB020008CB020008CB020008CB
:1001E000CB020008CB020008CB020008CB020008BB
:1001F000CB020008CB020008CB020008CB020008AB
:10020000CB020008CB020008CB020008CB0200089A
:10021000CB020008CB020008CB020008CB0200088A
:10022000CB020008CB020008CB020008000000004F
:10023000CB020008FD37000800000000CB020008D8
:10024000CB020008CB020008CB020008CB0200085A
:10025000CB020008CB020008CB020008CB0200084A
:10026000CB020008CB020008CB020008CB0200083A
:10027000CB020008CB020008CB02000800000000FF
:10028000CB020008CB020008CB02000800000000EF
:1002900000000000CB020008DFF810D000F0DCF80E
:1002A0000048004761970208AFF30080A08904244A
:1002B0000648804706480047FEE7FEE7FEE7FEE700
:1002C000FEE7FEE7FEE7FEE7FEE7FEE7B9460008C9
:1002D000990200082DE9F05F0546002092469B46F2
:1002E00088460646814640241BE02846414647464C
:1002F000224600F0A0F853465A46C01A914110D346
:1003000011461846224600F087F82D1A67EB0108BF
:100310004F4622460120002100F07EF817EB00092D
:100320004E41201EA4F10104DFDC484631462A4636
:100330004346BDE8F09F40EA01039B0703D009E074
:1003400008C9121F08C0042AFAD203E011F8013BC1
:1003500000F8013B521EF9D27047D2B201E000F81A
:10036000012B491EFBD270470022F6E710B5134659
:100370000A4604461946FFF7F0FF204610BD10B5A7
:10038000044604E00B7800F8013B03B1491C521EFF
:10039000F8D2204610BD421C10F8011B0029FBD1E9
:1003A000801A704710B5002200E0521C835C8C5C00
:1003B000A34201D1002BF8D1D8B2E1B2401A10BD4E
:1003C00030B504460020034600E05B1C934203D294
:1003D000E05CCD5C401BF8D030BD034611F8012B2A
:1003E00000F8012B002AF9D11846704730B50B46AA
:1003F000014600202022012409E021FA02F59D4255
:1004000005D303FA02F5491B04FA02F52844151E28
:10041000A2F10102F1DC30BD202A04DB203A00FA0F
:1004200002F1002070479140C2F1200320FA03F34B
:10043000194390407047202A04DB203A21FA02F049
:100440000021704721FA02F3D040C2F1200291400E
:100450000843194670470000064C074D06E0E06867
:1004600040F0010394E8070098471034AC42F6D3FB
:10047000FFF716FF80250308A025030870B58C1828
:1004800010F8015B15F0070301D110F8013B2A11A8
:1004900006D110F8012B03E010F8016B01F8016B95
:1004A0005B1EF9D12B0705D40023521E0DD401F891
:1004B000013BFAE710F8013BCB1A921C03E013F85A
:1004C000015B01F8015B521EF9D5A142D8D300208F
:1004D00070BDFEE7084810B500684168890705D57A
:1004E0000221816017F04AFD17F040FDBDE8104081
:1004F000014800F0C9B9000014030024704772B627
:10050000FEE70000014802F0F2BD00007C03002479
:10051000F0B5D1E90843CD690A68C2B10268254344
:1005200022F4F84213431D430560D1E90125D1E9C6
:1005300003364C692A434568334389691A43EB0BF8
:100540002243DB030A431A4342600020F0BDD1E995
:10055000012ED1E9036CD1E9057142EA0E0246EAA7
:100560000C0632433A430A4301682A4322431A43A2
:100570006FF30E010A430260E7E7426943F6FE7338
:100580009A4342EA410141610020704770B591E809
:100590001C00C9686FF01F0506691A4305EB441477
:1005A00044EA41210A4306EA45431A430261002016
:1005B00070BD00002DE9F04F8B8A6FF00F05264CBF
:1005C0004FF07F4BD1F80C9004EB03536FF0FF0416
:1005D0004FEA042A1AB386684FEA09321F4FA2F580
:1005E00080521A433E4032438260D1E900278E6830
:1005F000521E05EB07150F8A2A43C56804EB062433
:100600000E7E0AEB074322431A430BEB06610A43B3
:1006100005F070431A43C2600020BDE8F08F91E8F6
:1006200004110F4E521E0F8A05EB08152A4304EBE6
:100630000C2C06EB09350E7E42EA0C022A43856833
:100640000AEB074422431A430BEB06610A4305F009
:1006500070431A438260DFE70000F0FFFF0F0FFFD7
:1006600000F0FFFF7CB50D46144600210191020AFF
:100670008DF80500FF2608480223BA218DF80420D2
:1006800001AA009600F002FD0348BB2123462A463A
:10069000009600F069FC7CBDB00300241CB500226C
:1006A000030A0192FF248DF8043003238DF805001E
:1006B00001AA04488DF80610BA21009400F0E6FC67
:1006C0001CBD0000B0030024F0B50446C8074FF07D
:1006D000000010D01E23012603F01F0706FA07F5BD
:1006E0000D4201D15B1EF7D27AB1082A0BD0102A35
:1006F00006D0182A01D00120F0BD072BFBD204E060
:10070000082BF8D201E0102BF5D22368596121683B
:100710008B6823F0180313438B60F0BD10B5040001
:1007200010D0607F20B900202077204600F032F8FA
:1007300021790220607739B1D4E902122046FFF70F
:10074000C3FF48B1012010BD2168114848612068ED
:10075000816821F0180181606079A0B12168206969
:100760000861012220686369816821F060011943F2
:1007700081602068A369816821F08001194381604C
:100780006277002010BD21684FF0FF30E8E70000DD
:10079000B71DC10408B500680649884208D106485B
:1007A000016841F400210160006800F4002000901D
:1007B00008BD0000004C0258E04402587047000099
:1007C000F0B590F86020012A22D0C1EBC1020127C8
:1007D00080F86070022380F8613000EB8202284DBF
:1007E000138F168EB2F83CC0D46A1B05283244EA37
:1007F000064643EA4C530A2C46EA03060AD0092C63
:1008000008D0137B46EA036349B10B2C1AD01DE0D4
:100810000220F0BDD36803F07F433343F4E701685F
:100820004C6AAC431C434C62016813688B6151688D
:100830000A2901D009291BD1D168026821F07F4122
:10084000916215E0118B0F4D43EA81430168CC6939
:10085000AC431C43CC61016813680B6151680A29E1
:1008600001D0092904D1D168026821F07F411162C9
:10087000002180F8617080F860100846F0BD00002B
:100880000F0033FF0F003FFF2DE9F04704460068DB
:1008900000274FF004084FF0010946680568F1078A
:1008A00014D0E90512D5036823F480730360606EE9
:1008B00040F0010060662068C0F8089084F861800C
:1008C00084F86070616A09B120468847B00615D582
:1008D000A80413D520682022036823F40053036082
:1008E00020688260606E40F00200606684F861807B
:1008F00084F86070616A09B120468847300715D5D1
:10090000280513D520680822036823F400630360D8
:1009100020688260606E40F00400606684F8618048
:1009200084F86070616A09B12046884770070CD569
:1009300068050AD52068026822F480620260206897
:10094000C0F80880204600F071F8B00713D5A8055C
:1009500011D520680222036823F400730360206825
:100960008260606E606684F8619084F86070216ACD
:1009700009B120468847F00612D5E80410D5206852
:10098000016821F480510160226810219160616E3C
:10099000616684F86190204684F86070FFF70EFF6E
:1009A000BDE8F0872DE9F041040004D094F861001F
:1009B000002518B107E00120BDE8F081204684F849
:1009C000605000F035F8184E022084F861000123D1
:1009D000D4E90010D4F81CC040F207120F6840EAB6
:1009E0000C003740384308602068A769A168466B4F
:1009F00039439643314341632068E268016C6FF3E9
:100A00000F01114301642068218AA28A466B0905FF
:100A100041EA425126F4401211434163656684F86D
:100A200061300020C8E70000BFFFF8FF70470000FA
:100A300008B500680B49884212D10B48016841F0A3
:100A40001001016000680022012100F010000090F8
:100A50005A2000F0CBFEBDE808405A2000F0B8BE96
:100A600008BD000000100052D444025870B504467E
:100A700000F0B0F90546601C02D004480078044438
:100A800000F0A8F9401BA042FAD370BD1800002462
:100A9000F0B5B7B0142130A8FFF766FC3148016803
:100AA00000295CD101210160C0216846FFF75CFC90
:100AB000002012904FF080710446CDE90010684686
:100AC00001F040F908B1FFF71AFD2748016841F429
:100AD000805101600068022532AA00F480503590F0
:100AE0004FF68370CDE93005032620480C2782E8B5
:100AF000D00030A900F044F832AA48F23710CDE90E
:100B000030051B4830A982E8D00000F039F832AA3D
:100B10004CF20370CDE93005164830A982E8D000C8
:100B200000F02EF832AA4FF63F00CDE9300512480A
:100B300030A982E8D00000F023F82C2032AACDE9B9
:100B400030050E4830A982E8D00000F019F80022E4
:100B50003020114600F04AFE302000F039FE37B058
:100B6000F0BD000008000024D444025800100258D0
:100B700000180258000C025800140258001C0258B9
:100B80002DE9F84F03247D4D00234FF001094FF06C
:100B9000B04B4FF00F0AE9E009FA03F73A4076D07C
:100BA0000E7906F00306012E01D0022E18D1D0F8DE
:100BB00008C04FEA430ECE6804FA0EF82CEA080C7F
:100BC00006FA0EF646EA0C068660D0F804C00E79E6
:100BD0002CEA070CC6F300169E4046EA0C06466057
:100BE0000E79F643B6070BD0C6684FEA43088F6804
:100BF00004FA08FC26EA0C0607FA08F73743C76030
:100C00000E7906F00306022E12D1DE080F694FEAB4
:100C1000437C00EB8606B646366A4FEADC6C0AFA7D
:100C20000CF807FA0CF726EA08063743CEF82070CE
:100C30000F7906684FEA430807F0030704FA08FC37
:100C400007FA08F726EA0C06374307604E6816F4E1
:100C5000403F1CD04A4E376847F00207376036687D
:100C60009F0706F00206009623F0030606F1B04641
:100C7000B6463F0FD6F80864DFF808810AFA07FC89
:100C8000404526EA0C0603D14FF0000C41E06CE031
:100C9000DFF8F4C0604502D14FF0010C39E0DFF815
:100CA000ECC0604502D14FF0020C32E0DFF8E0C04A
:100CB000604502D14FF0030C2BE0DFF8D8C060454F
:100CC00002D14FF0040C24E0DFF8CCC0604502D123
:100CD0004FF0050C1DE0DFF8C4C0604502D14FF0B5
:100CE000060C16E0DFF8B8C0604502D14FF0070CE3
:100CF0000FE0DFF8B0C0604502D14FF0080C08E00B
:100D0000DFF8A4C0604502D14FF0090C01E04FF0BC
:100D10000A0C0CFA07FC4CEA060CCEF808C44F6823
:100D2000DBF80060FF0226EA020600D516435F46A4
:100D3000CBF80060D1F804C0DBF804605FEA8C2CCB
:100D400026EA020600D516437E606E684F6826EAE2
:100D50000206BF0300D516436E602E684F6826EA70
:100D60000206FF0300D516432E605B1C0A6832FAA8
:100D700003F67FF411AFBDE8F88F00008000005843
:100D8000F4440258000002580004025800080258B7
:100D9000000C0258001002580014025800180258A3
:100DA000001C02580020025800240258426921EA1F
:100DB00002030A4043EA0241816170470AB181613E
:100DC00070470904FBE7000001480068000C704709
:100DD0000010005C01488068704700001800002483
:100DE00070470000064810B50C30054900680A68D5
:100DF0000B1D82430A601860FFF7F2FF10BD000070
:100E00000065025830B590F84120202A24D190F88E
:100E10004020012A20D0012380F84030242280F88D
:100E20004120202300240268156825F00105156083
:100E30000268156825F480551560026815680D4331
:100E4000156001680A6842F001020A6080F84130CA
:100E500080F84040002030BD022030BD30B590F811
:100E60004120202A22D190F84020012A1ED00123BF
:100E700080F84030242280F8412020240025026898
:100E8000136823F0010313600268136823F470638E
:100E900043EA0121116001680A6842F001020A6018
:100EA00080F8414080F84050002030BD022030BD25
:100EB00070B5040004D094F84100002510B106E09C
:100EC000012070BD204684F8405000F071F92420C4
:100ED00084F841002068016821F001010160D4E933
:100EE000001020F0706008612068816821F40041E2
:100EF0008160E06821680128A06806D040F40440C1
:100F00008860E068022803D006E040F40040F7E77C
:100F100021684FF40060486020212068114A43682E
:100F2000134343602068C26822F40042C26054F850
:100F3000106B0DCC104340EA0320F06054F81C3CC9
:100F4000D4E900021043186054F81C0D026842F006
:100F500001020260656484F84110256384F8425000
:100F6000002070BD008000022DE9F84F044690F883
:100F700041001F469046DDF828A08B4620287ED1F0
:100F800094F8400001287AD0012084F84000FFF74F
:100F900021FF0122064619230090D103204602F0CA
:100FA000E1FCE0BB0025222184F84110102084F8E8
:100FB000420065646785618DFF2732484FF00079F4
:100FC000C4F82480FF294FF08078656303D9278512
:100FD0003A46009039E0618D218500903AE059460B
:100FE000204602F0A7FC13E002F0F4FCB8B9206838
:100FF000616A406A0870606A401C6062208D401E11
:1010000081B22185608D401E6085608D00B169B11F
:10101000608D3246514600282046E5D100E002E0CE
:1010200002F02CFDD0B10120BDE8F88F002253461C
:1010300080212046009602F095FC0028F3D1608DB7
:10104000FF2804D927853A4600954346C7E7608DB7
:10105000208500954B4694F82820C0E72068202181
:10106000094AC161206843681340436084F8411015
:1010700084F84250002084F84050D5E7FFE7022072
:10108000D2E700000024008000E800FE2DE9F84FC0
:10109000044690F841001F469046DDF828A08B4694
:1010A00020287ED194F8400001287AD0012084F8CD
:1010B0004000FFF78FFE0122064619230090D1035E
:1010C000204602F04FFCE0BB0025212184F84110AE
:1010D000102084F8420065646785618DFF273248DF
:1010E0004FF00079C4F82480FF294FF080786563C1
:1010F00003D927853A46009039E0618D218500901B
:101100003AE05946204602F015FC13E002F0E2FCFA
:10111000B8B9606A216800788862606A401C6062C1
:10112000608D401E6085208D401E80B22085618DBF
:1011300001B168B1608D3246514600282046E5D1A4
:1011400000E002E002F09AFCD0B10120BDE8F88F87
:101150000022534680212046009602F003FC00281E
:10116000F3D1608DFF2804D927853A460095434680
:10117000C7E7608D208500954B4694F82820C0E78E
:1011800020682021094AC1612068436813404360F8
:1011900084F8411084F84250002084F84050D5E78C
:1011A000FFE70220D2E700000020008000E800FEF8
:1011B00070B5B6B00446142130A8FFF7D5F8C021A9
:1011C0006846FFF7D1F82249206888423DD1214C7A
:1011D000206840F08000206020681E4D00F08000F4
:1011E0003590143D286840F00800286028681021D8
:1011F00000F008003590002026900646CDE900104A
:10120000684600F09FFD08B1FFF779F9286840F0C3
:101210000800286028680DF1C00C122100F00800B9
:1012200035904FF4405004238CE8430002220A48D2
:10123000CDE9332330A9FFF7A3FC206840F08000FC
:101240002060206800F08000359036B070BD00004E
:10125000001C0058F4440258000C025802488168EF
:10126000027811448160704718000024032010B5F3
:1012700000F0DCFA01F0DEFB0F4A10491468136835
:10128000C4F3032203F00F038A5CC95C02F01F025F
:1012900001F01F01D0400A4A20FA01F1116009490A
:1012A0000860002000F010F808B1012010BD00F027
:1012B00079FA002010BD00001844025830E70208F7
:1012C000280000242400002410B5102804468AB009
:1012D0002CD200220146372000F088FA372000F097
:1012E00077FA174804601748016841F0200101604F
:1012F000006809A900F020000890684601F026FB6C
:101300000598B0B101F072FB40000F4900220F4C6C
:10131000B0FBF1F10E4840F2E7330460C0E903325C
:10132000491EC0E9011201F0A7FF28B101200AB04F
:1013300010BD01F05BFBE8E7054801F0EDFFF6E7C3
:101340001C000024E844025840420F0000140040F2
:10135000080600242DE9F041044690F8A000164646
:101360000F4601281DD0012584F8A050022084F8E2
:10137000A10006EB860000EBC600342204EB8000DF
:101380003830FEF7D8FF32463946204602F0B4FC2A
:10139000216800204D6284F8A15084F8A000BDE8C7
:1013A000F0810220FBE770472DE9F0410446006818
:1013B00000274FF00408856B466B690715D5710748
:1013C00013D5426B22F0040242632068C0F83C80CF
:1013D000D4F8A40040F00100C4F8A40084F8A1806F
:1013E000204684F8A070FFF7DEFFA80716D5B007E7
:1013F00014D520680222436B23F002034363206864
:10140000C263D4F8A40040F00200C4F8A40084F839
:10141000A180204684F8A070FFF7C5FF05EA06000A
:101420004FF00108C0070ED021684A6B22F001027C
:101430004A632168C1F83C8084F8A180204684F882
:10144000A07000F091F8280710D530070ED520685D
:101450000822436B23F0080343632068C26384F8C7
:10146000A180204684F8A07000F03AF9BDE8F08130
:101470002DE9F041040004D094F8A100002518B132
:1014800007E00120BDE8F081204684F8A05000F07C
:101490006DF83448022184F8A110012202CC8B6936
:1014A00023F070438B6194E84A001943E3681E43BC
:1014B00054F8043D31439E693143996121688B683A
:1014C00003408B602168A68AA7698B683B4343EA87
:1014D00006438B602168CB680340CB602168A38BF7
:1014E000276ACE683E4346EA0346CE6021680B6910
:1014F00003400B612368A68CA76A1969394341EA46
:101500000641196121684B6903404B612068A38D36
:10151000266B4169314341EA03414161236894F8F4
:10152000351094F83600DE6A000406F07F46DE626D
:10153000236840EA012094F83460D96A31430143BA
:10154000D9622068416B41F00601416320688169DE
:1015500041F001018161C4F8A45084F8A120002069
:1015600090E7000000F800F070470000F0B5B7B059
:101570000446142130A8FEF7F7FEC0216846FEF7A6
:10158000F3FE5049206888427ED10DF1280C0021DD
:1015900002250C46192296238CE82C0040040D9558
:1015A0000626CDE90E610715CDE90001CDE91071E0
:1015B000684600F0C7FB08B1FEF7A1FF424801688A
:1015C00041F008010160006800F0080035903E48D5
:1015D000001F016841F040010160016801F0400115
:1015E0003591016841F480710160016801F48071F6
:1015F0003591016841F080010160016801F08001CE
:101600003591016841F001010160016801F00101BB
:101610003591016841F020010160006809212B4FDC
:1016200000F0200035904FF4A0503090CDE93154B7
:10163000CDE9334130A93846FFF7A2FA0E2640F231
:10164000E760309030A9CDE931542148CDE93346E7
:10165000FFF796FA4FF43E403090CDE931541D48E3
:1016600030A9CDE93346FFF78BFA0D214FF4807096
:101670003090CDE93154CDE93341174830A9FFF717
:101680007FFAC020309000E01AE0CDE93154CDE976
:10169000334630A93846FFF773FA4FF48060309034
:1016A000CDE931540D4830A9CDE93346FFF768FA4A
:1016B00000225820114600F099F8582000F088F8D0
:1016C00037B0F0BD00100050E44402580018025832
:1016D00000200258001C0258000002580014025852
:1016E000704728B190F83D10022903D0802181660F
:1016F00001207047042180F83D100068C16821F086
:101700000101C16000207047F0B5154C4378211DE0
:101710000A1D23600378F3B143680B60057BC67A2A
:10172000817A437B2D07847B45EA0665C77B90F869
:1017300009C0067A90F800E045EAC14040EA8340DB
:1017400040EA444040EA074040EA0C2040EA4600B4
:1017500040EA0E0001E0002008601060F0BD0000CB
:1017600098ED00E0BFF35F8F044800210368034A4F
:1017700023F48033036070321160704724ED00E081
:10178000074A40F00100064970321060086840F4D2
:1017900080300860BFF34F8FBFF36F8F704700003A
:1017A00024ED00E0094808B5016841F0020101603C
:1017B00000680022114600F0020000907D2000F039
:1017C00015F8BDE808407D2000F002B8F444025846
:1017D000002809DB410900F01F028900012001F106
:1017E000E0219040C1F80001704700000E4BF0B4BA
:1017F0001B680D46C3F30223C3F10706042E00D96C
:101800000426191D072901D2002300E0DB1E012454
:1018100004FA06F19C40491E2940641E9940144078
:101820002143F0BC03F05CBB0CED00E0064900F086
:10183000070210B54FF6FF040868044B204040EA49
:1018400002201843086010BD0CED00E00000FA050E
:10185000134970B50A68D243520705D5096801F0EB
:101860000701814213D118E00A6822F007020243FF
:101870000A60FFF7AFFA0A4D4FF47A760446083D46
:1018800007E000BFFFF7A6FA001BB04201D9012014
:1018900070BD2868C0438004F4D4002070BD0000EF
:1018A0000C480258704770477047704770B504463F
:1018B000006882680168530734D54B0332D594F829
:1018C0004110203012290FD094F8411022291BD04A
:1018D0001EE0E16A01B3616A09780170616A491C1E
:1018E0006162E16A491EE162216889684907F0D4B2
:1018F0000EE0A16B81B10178226B1170216B491C44
:101900002163A16B491EA163216889684907F0D44E
:101910002046FFF7CAFF70BD2068016821F48021CE
:101920000160F5E793074FF001056CD58B036AD58D
:101930000221C1602068016821F4E021016094F86F
:101940004100122815D094F84100222825D094F89F
:101950004100022849D094F841000828DBD12068D2
:10196000416921F04061416184F84150606CD8B315
:1019700045E020680168490709D5016821F00401A4
:101980000160E06B0068C16821F00101C16084F86A
:101990004150204600F07FF870BD2068016849077B
:1019A0000AD5016821F004010160E06B0068C1689C
:1019B00021F00101C16011E020300AE0A16B69B1A2
:1019C0000178226B1170216B491C2163A16B491EA8
:1019D000A1632168896811F47C5FEFD184F84150DC
:1019E000204600F055F870BD05E084F841502046CF
:1019F000FFF759FFF7E72046FFF754FFF3E72046CC
:101A0000FFF752FFEFE7130711D50B030FD508219E
:101A1000C16020680168490205D5016821F41021E0
:101A2000016084F84150204600F033F8DBE7D3072B
:101A300022D0CB0320D5C5602068016821F4702135
:101A40000160606C40F00200606420680168490732
:101A50000FD5016821F004010160E16B0B48886536
:101A6000E06BFFF73EFE0028BDD0606C40F0040044
:101A7000606484F84150C2E7D206B4D5C902B2D539
:101A80001021C160204600F005F8ACE7CB42000809
:101A9000704770477047704710B500F085FF0549E3
:101AA0000968054AC1F30211515C01F01F01C840E9
:101AB00010BD00002044025830E70208494930B503
:101AC000484C0B1D0A68143409681D68246802F02C
:101AD0000303C5F30012C1F30531C4F3CC0400299C
:101AE00014FB02F200EE102AF8EE400A75D03F4ACD
:101AF0009FED3D1AB7EE000A6BB1DFED3D1A012BE9
:101B000001D0022B64D002EE101A1168F8EE422ABE
:101B100081EEA22A21E0334C283C23689B0612D593
:101B2000344B246801EE901A1168C4F3C104F8EE36
:101B3000612AE34001EE903AC1F30801F8EE611A20
:101B400081EEA22A0BE001EE901ADFED2B2A00BFF6
:101B5000F8EE611A116882EEA12AC1F3080101EEC4
:101B6000901A1168F8EE611A40EE811A71EE800A3F
:101B700062EE200AC1F3462101EE101AB8EE411AB6
:101B800031EE001AC0EE811ABCEEE11A80ED001AA7
:101B90001168C1F3064101EE101AB8EE411A31EE98
:101BA000001AC0EE811ABCEEE11A80ED011A11682C
:101BB000C1F3066101EE101AB8EE411A31EE000AC7
:101BC00080EE801ABCEEC10A80ED020A30BD04E04E
:101BD00001EE901ADFED092ABAE7002101604160A9
:101BE0008160F3E728440258000000393844025865
:101BF0000024744A0090D0030024744C20BCBE4BD7
:101C0000494930B5484C0B1D0A681C3409681D68E9
:101C1000246802F00303C5F30022C1F30551C4F3A5
:101C2000CC04002914FB02F200EE102AF8EE400A60
:101C300075D03F4A9FED3D1AB7EE000A6BB1DFED5C
:101C40003D1A012B01D0022B64D002EE101A11684C
:101C5000F8EE422A81EEA22A21E0334C283C236888
:101C60009B0612D5344B246801EE901A1168C4F318
:101C7000C104F8EE612AE34001EE903AC1F3080195
:101C8000F8EE611A81EEA22A0BE001EE901ADFED68
:101C90002B2A00BFF8EE611A116882EEA12AC1F367
:101CA000080101EE901A1168F8EE611A40EE811AEF
:101CB00071EE800A62EE200AC1F3462101EE101A8D
:101CC000B8EE411A31EE001AC0EE811ABCEEE11AEC
:101CD00080ED001A1168C1F3064101EE101AB8EE4A
:101CE000411A31EE001AC0EE811ABCEEE11A80ED05
:101CF000011A1168C1F3066101EE101AB8EE411A1B
:101D000031EE000A80EE801ABCEEC10A80ED020AB4
:101D100030BD04E001EE901ADFED092ABAE7002198
:101D2000016041608160F3E72844025800000039F7
:101D3000404402580024744A0090D0030024744C9C
:101D400020BCBE4B2DE9FE4F0546DFF8E48350F87A
:101D5000081B0024F64FC943019005F128002646D0
:101D600008F12408009008011DD4A86E50B1B0F508
:101D7000801F0CD0B0F5001F0ED0B0F5401F1ED054
:101D800001240FE0386840F40030386017E0019813
:101D9000022102F0BDFA03E00098022102F048FBA4
:101DA00004000CD026462888C043C00523D4A86D63
:101DB00005281ED2DFE800F00C11161B1B00AA6ECE
:101DC000D8F8001021F440111143C8F80010EAE7D8
:101DD000386840F40030386009E00198002102F0D2
:101DE00097FA03E00098002102F022FB044674B148
:101DF00000E0012426462888C043800528D4E86DE9
:101E000080281ED00CDC90B140280ED114E0AA6DC1
:101E1000D8F8001021F007011143C8F80010EAE7D4
:101E2000C02813D0B0F5807F10D001240FE03868AF
:101E300040F40030386009E00198002102F068FAAF
:101E400003E00098002102F0F3FA04469CB1264614
:101E50002888DFF8DC92C04309F12C0940052CD416
:101E6000D5F8A800B0F5800F20D00DDCA0B1B0F5FA
:101E7000001F0FD115E0EA6DD8F8001021F4E071D1
:101E80001143C8F80010E3E7B0F5C00F13D0B0F568
:101E9000000F10D001240FE0386840F400303860A3
:101EA00009E00198002102F033FA03E000980021D4
:101EB00002F0BEFA04467CB126462888C0430005DD
:101EC0002DD4D5F8AC00B0F1007F21D00EDCA8B144
:101ED000B0F1807F10D116E0D5F8A820D9F8001015
:101EE00021F460011143C9F80010E6E7B0F1407F2A
:101EF00013D0B0F1806F10D001240FE0386840F4A7
:101F00000030386009E00198002102F001FA03E096
:101F10000098002102F08CFA044674B12646286825
:101F2000C04380011FD4E86CD8B110280FD02028FE
:101F300012D0302815D0012414E0D5F8AC20D9F8FF
:101F4000001021F0E0611143C9F80010E7E738689C
:101F500040F40030386004E00198022102F0D8F922
:101F6000044674B126462888C043C0042BD4286E8A
:101F7000B0F5005F20D00DDCA0B1B0F5805F0FD1CF
:101F800015E06B48EA6C2030016821F03001114304
:101F90000160E8E7B0F5405F13D0B0F5804F10D096
:101FA00001240FE0386840F40030386009E00198FF
:101FB000002102F0ADF903E00098002102F038FAA8
:101FC00004468CB126462888C043800429D4686E14
:101FD000B0F5403F23D010DC08B3B0F5803F14D0FB
:101FE000B0F5003F0FD115E02A6ED8F8001021F4AB
:101FF000E0411143C8F80010E5E7B0F5802F0ED09E
:10200000B0F5A02F0BD001240AE00198012102F0C5
:102010007FF903E00098012102F00AFA044694B126
:1020200026462888C04340042AD4D5F8B000B0F131
:10203000405F23D010DC08B3B0F1805F14D0B0F162
:10204000005F0FD115E06A6ED8F8001021F4E0218E
:102050001143C8F80010E4E7B0F1804F0ED0B0F1A2
:10206000A04F0BD001240AE00198012102F050F9A1
:1020700003E00098012102F0DBF9044674B1264622
:102080002888C04300041FD4286FD8B1B0F1805F06
:102090000ED0B0F1005F10D0012414E0D5F8B020CC
:1020A000D9F8001021F0E0411143C9F80010E7E72A
:1020B000386840F40030386004E00198012102F0F3
:1020C00027F9044674B126462868C043C0011ED4CF
:1020D000A86CD0B101280ED0022811D0032814D04A
:1020E000012413E02A6FD8F8001021F04051114369
:1020F000C8F80010E8E7386840F40030386004E0C1
:102100000198022102F004F90446ACB12646286881
:10211000DFF81CB0C043ABF11C0B400252D40548A1
:10212000016841F480710160FEF754FE824611E0BF
:102130002C44025800480258FA48AA6C016821F061
:10214000030111430160E2E7FEF744FEA0EB0A0041
:10215000642835D8F4480068C005F5D58CBBDFF895
:10216000C4A3B5F8B4100AF1240ADAF8000001F4A7
:10217000407100F44070884211D0DAF80010DAF8AB
:10218000002021F4407142F48032CAF80020DAF8CD
:10219000002022F48032CAF80020CAF80010D5F8D6
:1021A000B400B0F5807F1AD1FEF714FE029012E061
:1021B000FEF710FE0299411A41F2883081420AD995
:1021C000032426462878DFF85CA3C0430AF1080AF6
:1021D000C00721D03CE0DAF800008007E8D5D5F848
:1021E000B410C1F30120032858460DD0016821F432
:1021F0007C510160B5F8B420DAF80010C2F30B028C
:102200001143CAF80010DDE7C84A036802EA111258
:1022100023F47C511143ECE7E86F182816D005DC55
:10222000A0B1082808D0102804D10AE020280DD039
:1022300028280BD001240AE00198012102F068F857
:1022400003E00098012102F0F3F8044664B1264649
:102250002878C04380071ED4A86F062819D2DFE86B
:1022600000F0160C11161616EA6FDAF8001021F0BD
:1022700038011143CAF80010EAE70198012102F081
:1022800047F803E00098012102F0D2F804467CB13F
:1022900000E0012426462878C04340071FD4D5F823
:1022A0009400062819D2DFE800F0160C1116161655
:1022B000AA6FDAF8001021F007011143CAF80010E4
:1022C000E9E70198012102F023F803E000980121D9
:1022D00002F0AEF80446A4B100E0012426462878B6
:1022E000C04380062BD4D5F89000B0F1405F24D0D5
:1022F00011DC10B3B0F1805F15D0B0F1005F10D1E8
:1023000016E0D5F89420D9F8001021F00701114308
:10231000C9F80010E3E7B0F1804F0ED0B0F1A04F44
:102320000BD001240AE00198002101F0F1FF03E045
:102330000098022102F07CF8044694B126462878E1
:10234000C04340062BD4D5F89C00B0F5406F24D094
:1023500011DC10B3B0F5806F15D0B0F5006F10D15F
:1023600016E0D5F89020DAF8001021F0E041114392
:10237000CAF80010E3E7B0F5805F0ED0B0F5A05FBB
:102380000BD001240AE00198002101F0C1FF03E015
:102390000098022102F04CF8044694B126462878B1
:1023A000C04300062BD4D5F8A000B0F5C04F24D010
:1023B00011DC10B3B0F5005F15D0B0F5804F10D12F
:1023C00016E0D5F89C20D9F8001021F4E051114313
:1023D000C9F80010E3E7B0F5004F0ED0B0F5204F7C
:1023E0000BD001240AE00198002101F091FF03E0E5
:1023F0000098022102F01CF8044654B126462878C1
:10240000C04300071ED4D5F88400B0F5805F0AD021
:102410000FE0D5F8A020D9F8001021F46041114355
:10242000C9F80010EBE70098022102F001F800B1B2
:102430000126D5F88420DAF8001021F44051114328
:10244000CAF800102878C043C00613D4D5F8980005
:10245000B0F5807F05D10098022101F0E9FF00B1BD
:102460000126D5F89820D9F8001021F440711143C5
:10247000C9F800102868C043000316D4D5F8A4009A
:1024800038B1B0F5803F09D0B0F5003F0BD0012442
:102490000AE00198002101F03BFF03E000980221CF
:1024A00001F0C6FF04468CB126462868C0434003AD
:1024B00022D4D5F88800B0F5801F11D0B0F5001FE8
:1024C00013D0B0F5401F15D0012414E0D5F8A42096
:1024D000D9F8001021F440311143C9F80010E4E7A5
:1024E000386840F40030386004E00098012101F0C1
:1024F0009FFF04465CB126462868C043C00323D42E
:10250000286DA8B1B0F5803F17D001241BE0D5F8A5
:102510008820DAF8001021F440111143CAF80010A5
:10252000EAE700004C44025800480258CFFFFF0081
:10253000386840F40030386004E00198022101F06E
:10254000E7FE0446E4B126462868C043800005D46F
:102550000098022101F06CFF00B101262868C043F9
:1025600080031BD4D5F88000B0B1B0F5807F0FD0C8
:10257000B0F5007F10D0B0F5407F0DD001240CE005
:102580005A482A6D016821F4803111430160DBE76C
:10259000386840F400303860ECB326462868C04301
:1025A000C00207D46A6FD8F8001021F0004111432F
:1025B000C8F800102868C043C00008D4D5F8B82077
:1025C000DBF8001021F480411143CBF8001028689B
:1025D000C043800207D4EA6ED8F8001021F0807161
:1025E0001143C8F800102868C04340000CD4DBF841
:1025F000001021F40041CBF80010DBF80010D5F8F2
:10260000BC201143CBF800102868C04308D43748D9
:102610006A6D016800E018E021F04051114301604B
:102620002868C043000208D4D5F88C20DAF80010DE
:1026300021F440011143CAF8001028790024C04356
:1026400000F0010020430AD00FE0D5F88020DAF82E
:10265000001021F440711143CAF800109EE7019860
:10266000002101F055FE00B106462879C04300F074
:102670000200204305D10198012101F049FE00B17B
:1026800006462879C04300F00400204305D1019894
:10269000022101F03DFE00B106462879C04300F05A
:1026A0000800204305D10098002101F0C1FE00B1CF
:1026B00006462879C04300F01000204305D1009859
:1026C000012101F0B5FE00B106462879C04300F0B3
:1026D0002000044304D10098022101F0A9FE00B9B2
:1026E00016B10120BDE8FE8F0020FBE74C440258E4
:1026F0002DE9F05F04000F467ED0DFF83882D8F86D
:10270000000000F00F00B8420CD2D8F8001021F001
:102710000F013943C8F80010D8F8000000F00F008E
:10272000B84269D12078844D40070AD520692968CC
:1027300001F07001884204D9296821F07001014339
:10274000296020787C4E361D00070AD56069316803
:1027500001F07001884204D9316821F07001014311
:1027600031602078C0060AD5A069316801F4E061C3
:10277000884204D9316821F4E06101433160207856
:10278000DFF8B4B180060BF1080B0CD5E1695846AF
:10279000DBF8002002F07002914204D9026822F0B6
:1027A00070020A430260207880070AD5E068296831
:1027B00001F00F01884204D9296821F00F0101437B
:1027C00029602078C0073ED05B49A2682868183984
:1027D00020F47060104328606068022818D0032835
:1027E00019D00968012819D0490700294ADADFF809
:1027F00048A1AAF1080A00E044E0DAF8002022F03B
:1028000007020243CAF80020FEF7E4FA814612E00C
:1028100009688903E9E709688901E6E7C905E4E78A
:10282000FEF7D8FAA0EB090141F28830814202D9C3
:102830000320BDE8F09F6168DAF8000000F038007E
:10284000B0EBC10FECD1207880070AD5E068296889
:1028500001F00F01884204D2296821F00F010143E1
:102860002960D8F80010404601F00F01B9420BD999
:10287000016821F00F0139430160006800F00F008A
:10288000B84201D00120D4E7207840070AD520695A
:10289000296801F07001884204D2296821F0700192
:1028A00001432960207800070AD56069316801F08A
:1028B0007001884204D2316821F070010143316017
:1028C0002078C0060AD5A069316801F4E061884229
:1028D00004D2316821F4E061014331602078800640
:1028E0000CD5E1695846DBF8002002F070029142F5
:1028F00004D2026822F070020A43026000F09AF8E3
:102900000E492A682B68C2F3032203F00F038A5C86
:10291000C95C02F01F0201F01F01D040084A20FAF2
:1029200001F111600749086007480068BDE8F05FE1
:10293000FEF7CABC002000521844025830E70208D3
:1029400028000024240000241C00002470B5144C2E
:102950003F220260124A24680832131D114D04F010
:102960000704446016681C1D06F4706686601668CD
:1029700006F00F06C660126802F0700202611A6863
:1029800002F0700242611A6802F4E0628261226819
:1029900002F07002C261286800F00F00086070BD8C
:1029A000104402580020005230B500F043F80B4AA2
:1029B0000B490C4B15681468C5F3032204F00F048F
:1029C0008A5C095D02F01F0201F01F01D040064A37
:1029D00020FA01F119601060084630BD1844025811
:1029E00030E70208280000242400002400B5FFF787
:1029F000DBFF05490968054AC1F30211515C01F08A
:102A00001F01C84000BD00001C44025830E7020806
:102A100000B5FFF7C9FF05490968054AC1F302215E
:102A2000515C01F01F01C84000BD00001C44025869
:102A300030E70208454970B545480968434B103BEB
:102A400011F0380208D00111082A03D0102A0BD047
:102A5000182A0BD0084670BD19688906FBD519687D
:102A6000C1F3C101C84070BD3A4870BD3749374D08
:102A700018310C1D24350A68096826682D6802F093
:102A8000030406F00102C1F30511C5F3CC0515FBE3
:102A900002F200EE102AB8EE400AE9B32F4ADFED49
:102AA0002E0AB7EE001A6CB1DFED2D1A012C01D001
:102AB000022C43D002EE101A1068F8EE422A81EE82
:102AC000A22A1EE01C68A40611D51B6801EE901A0C
:102AD0001168C3F3C103F8EE612AD84001EE900AF1
:102AE000C1F30800F8EE611A81EEA22A0BE001EEB4
:102AF000901ADFED1C2A00BFF8EE611A106882EE12
:102B0000A12AC0F3080001EE900AF8EE611A40EE27
:102B1000201A31EE810A00E015E022EE000A10686A
:102B2000C0F34620401C00EE900AF8EE600A80EEEA
:102B3000201ABCEEC10A10EE100A70BD01EE901A08
:102B4000DFED092AD8E7002070BD000010440258CC
:102B50000090D00340787D010000003930440258D5
:102B60000024744A0024744C20BCBE4B2DE9F05F55
:102B700004007DD0FF4F2078FE4D1837DFF8F49326
:102B8000103DC00748D0D9F80000396800F038007F
:102B9000102815D0182803D101F0030002280FD007
:102BA0006068B0F5803F12D010B1B0F5A02F18D0FA
:102BB000286820F480302860286820F4802009E00C
:102BC0002868800328D560680028D2D024E02868CF
:102BD00040F480302860606888B1FEF7FBF8064654
:102BE00009E0286840F480202860F0E7FEF7F2F85A
:102BF000801B64286FD828688003F7D50CE0FEF7A7
:102C0000E9F8064605E000BFFEF7E4F8801B6428FB
:102C1000F0D828688003F7D4207841F20308D54E15
:102C20000C3E800769D5D9F80000396810F03800EB
:102C30000ED0182801D188070AD0E06890B329681F
:102C400021F0190101432960FEF7C4F8824631E002
:102C50002868400702D5E06800288AD0E168286823
:102C600020F0190008432860FEF7B4F8824607E018
:102C7000DFE000BFFEF7AEF8A0EB0A000228B9D8EB
:102C800028684007F6D500BFFEF79EF840451BD8E0
:102C90002069402812D0316821F47C3141EA0030AB
:102CA00030602AE018E000BFFEF794F8A0EB0A00BD
:102CB00002289FD828684007F6D5E5E7306820F459
:102CC0007C3040F40030EBE7207C316821F0FE419D
:102CD00041EA0060E4E70DE1286820F00100286087
:102CE000FEF778F8824605E0FEF774F8A0EB0A00DC
:102CF00002288DD828684007F6D42078C0065DD514
:102D0000D9F80000DFF86CB2396800F03800ABF198
:102D1000040B082810D0182803D101F00300012863
:102D20000AD0E0690028286838D040F08000286088
:102D3000FEF750F8824623E02868C00523D5E069F5
:102D4000802876D11FE0206A202821D0316821F028
:102D5000F84141EA8060306030E000BF94F8201014
:102D6000DBF8002022F07C5242EA0161CBF800102F
:102D700024E000BFFEF72EF8A0EB0A00022898D846
:102D80002868C005F6D5FEF71FF84045E6D8DAE713
:102D9000306820F0F84040F08040DCE720F0800010
:102DA0002860FEF717F8064605E000BFFEF712F8A8
:102DB000801B02289DD82868C005F7D4207800071A
:102DC00029D56C486169643000298046016811D0BA
:102DD00041F001010160FDF7FDFF064605E000BF7F
:102DE000FDF7F8FF801B0228C9D8D8F8000080073B
:102DF000F6D510E021F001010160FDF7EBFF06467A
:102E000005E000BFFDF7E6FF801B022872D8D8F866
:102E100000008007F6D42078800623D5A06900281A
:102E2000286810D040F480502860FDF7D3FF064694
:102E300005E036E1FDF7CEFF801B02285AD828684E
:102E40008004F7D50EE020F480502860FDF7C2FF23
:102E5000064604E0FDF7BEFF801B02284AD828681A
:102E60008004F7D4207840074FD5DFF80C81D8F8DC
:102E7000001041F48071C8F80010FDF7ABFF064662
:102E800005E000BFFDF7A6FF801B642832D8D8F804
:102E90000000C005F6D5374EA068603601280AD07C
:102EA00008B1052813D0306820F001003060306888
:102EB00020F0040002E0306840F001003060A068BB
:102EC00041F2883A90B1FDF785FF80460AE030680C
:102ED00040F004003060EEE7FDF77CFFA0EB080156
:102EE000514507D830688007F6D50EE0FDF772FF30
:102EF000804607E084E000BFFDF76CFFA0EB08010F
:102F000051457DD830688007F6D4606AB0B3DFF8E9
:102F10006480D9F8001008F120084FF6F87B08F11A
:102F20000409C1F3C2010329A8F1040A69D00228E7
:102F3000286820F08070286003D0FDF74BFF04461E
:102F400084E0FDF747FF064605E000BFFDF742FFBE
:102F5000801B022877D828688001F7D4E26A40F203
:102F6000F331386854F8283F884340EA0210184388
:102F7000386004E01044025800480258B5E0217B54
:102F8000434622894FF4FE0C208A4FF0FE47490247
:102F9000267D521E401EA1F50071C2F308088AB2B8
:102FA000761E0CEA004042EA08020243504607EA55
:102FB00006610A431A60DAF8002022F00102CAF81A
:102FC0000020D9F80020266A22EA0B0242EAC60253
:102FD000C9F80020DAF80010A26921F00C011143B1
:102FE000CAF800100168E26921F002011143016092
:102FF000016841F480310160016841F4003101E071
:1030000021E027E00160016841F48021016001684E
:1030100041F001010160286840F080702860FDF7F0
:10302000D9FE044605E000BFFDF7D4FE001B0228D0
:1030300009D828688001F7D557E000BFFDF7CAFE20
:10304000001B022802D90320BDE8F09F28688001F8
:10305000F4D44AE039680128D8F8000021D0A26AE7
:1030600001F0030393421CD1E26AC1F305118A42C5
:1030700017D1216BC0F30802491E8A4211D1616B3E
:10308000C0F34622491E91420BD1A16BC0F3064208
:10309000491E914205D1E16BC0F30660491E814291
:1030A00001D00120D0E7A16C4E46D9F80000C0F352
:1030B000CC00814219D0DAF80000554620F001001A
:1030C000CAF80000FDF786FE4FEA0007FDF782FE12
:1030D000B842FBD0A26C306820EA0B0040EAC20084
:1030E0003060286840F0010028600020ACE710B58F
:1030F000044600688069C00707D0204600F047F802
:103100002068416941F00101416110BD70B50400C2
:103110000D4603D094F82C0010B107E0012070BDDB
:10312000002084F82D00204600F018F8022084F8D2
:103130002C002068211DFDF7EBF9D4E90002294697
:10314000FDF738FA04480121026842F000420260AB
:1031500084F82C10002070BD00400052FDF798BC90
:1031600010B5044690F82C00022804D094F82C00E6
:10317000012801D0012010BD022084F82C00206815
:10318000FDF7FBF9012084F82C00002010BD7047EA
:1031900070B5044690F82C000D46022804D0012892
:1031A00003D0052801D0012070BD022084F82C0036
:1031B0002068FDF7EBF92868022805D05FF00100D0
:1031C00084F82C00002070BD0520F9E77047704797
:1031D00070470000F0B590F83C20012A3BD01F4E0C
:1031E000012480F83C40022280F83D2002681C4DFA
:1031F0005368B242D2F808C001D0AA4203D14F6846
:1032000023F470033B430F6823F070031F435760A0
:103210000268B24213D0B2F1804F10D0114B9A42E3
:103220000DD0114B9A420AD0104B9A4207D0AA42B5
:1032300005D00F4B9A4202D00E4B9A4204D18968B6
:103240002CF0800319439160002180F83D4080F804
:103250003C100846F0BD0220F0BD00000000014017
:10326000000401400004004000080040000C004041
:10327000001800400040014010B5040003D094F84D
:103280003D0010B107E0012010BD002084F83C0093
:10329000204600F023F8022084F83D002068211D1C
:1032A00001F088FA012084F8480084F83E0084F890
:1032B0003F0084F8400084F8410084F8420084F81C
:1032C000430084F8440084F8450084F8460084F8FC
:1032D000470084F83D00002010BD000008B50068DC
:1032E0000B49884212D10B48016841F0100101607E
:1032F00000680022114600F0100000903620FEF712
:1033000075FABDE808403620FEF762BA08BD000035
:1033100000100040E844025890F83D10012901D007
:1033200001207047174A022180F83D100168CB68E0
:1033300043F00103CB600068904214D0B0F1804F9D
:1033400011D0114988420ED0104988420BD0104943
:10335000884208D00F49884205D00F49884202D0E0
:103360000E49884207D181680D4A1140062906D0CE
:10337000B1F5803F03D0016841F0010101600020F8
:1033800070470000000001400004004000080040B9
:10339000000C0040000401400018004000400140C3
:1033A00007000100704770B50446006800250169F8
:1033B000C943890715D4C168C943890711D4EA1ED6
:1033C000026101212177206880698007204602D0B0
:1033D000FFF7E8FF04E000F0A7F8204600F0A5F8AA
:1033E000257720680169C943490717D4C168C943D3
:1033F000490713D402216FF004020261217720688B
:10340000806910F4407F204602D0FFF7CBFF04E034
:1034100000F08AF8204600F088F8257720680169D6
:10342000C943090716D4C168C943090712D4042146
:103430006FF00802026121772068C069800720468A
:1034400002D0FFF7AFFF04E000F06EF8204600F076
:103450006CF8257720680169C943C90617D4C1688B
:10346000C943C90613D408216FF010020261217705
:103470002068C06910F4407F204602D0FFF792FF19
:1034800004E000F051F8204600F04FF8257720685E
:103490000169C943C90708D1C168C943C90704D133
:1034A000891E0161204600F041F820680169C94386
:1034B000090609D4C168C943090605D46FF0800123
:1034C00001612046FFF783FE20680169C943C905F1
:1034D00009D4C168C943090605D46FF4807101613C
:1034E0002046FFF773FE20680169C943490609D4E5
:1034F000C168C943490605D46FF040010161204607
:1035000000F03EF820680169C94389060BD4C16800
:10351000C943890607D46FF0200101612046BDE848
:103520007040FFF755BE70BD7047704710B500681A
:103530000F49884203D1BDE81040FDF78FBE0D4909
:10354000884214D10C494FF4FA73086890FBF3F4E5
:10355000421C0A6003FB140020B908484FF40051D4
:10356000FDF724FCBDE81040012025F04BBF10BD45
:10357000001400400010004004000024000802581D
:10358000704730B590F88410012918D0012280F8D6
:1035900084202421C0F888100022202401680B68B0
:1035A0000D6823F0005325F001050D6042660168A7
:1035B0000B60C0F8884080F88420104630BD02209F
:1035C00030BD70B5044690F8840001281DD001225A
:1035D00084F884202420C4F88800206805680268E4
:1035E00022F0010202602068826822F060620A43D1
:1035F0008260204601F040F92268202100201560F9
:10360000C4F8881084F8840070BD022070BD70B5C5
:10361000044690F8840001281DD0012284F88420FB
:103620002420C4F8880020680568026822F001029E
:1036300002602068826822F060420A43826020466D
:1036400001F01AF92268202100201560C4F88810C2
:1036500084F8840070BD022070BD10B5040003D052
:10366000D4F8880010B107E0012010BD002084F8D4
:103670008400204600F026F82420C4F88800206842
:10368000016821F001010160204601F0FBF90128E9
:10369000EBD0A06A10B1204601F010F92068416813
:1036A00021F4904141602068816821F02A01816005
:1036B0002068016841F0010101602046BDE810402A
:1036C00001F060B910B5B6B00446142130A8FCF77B
:1036D0004BFEC0216846FCF747FE19492068884226
:1036E0002BD100201F9001210446CDE9001068462F
:1036F000FEF728FB08B1FCF702FF1248016841F011
:1037000010010160006800F0100035900D4810387D
:10371000016841F001010160006830AB022100F056
:10372000010035904FF4C060072283E8130006487B
:1037300030A9CDE93342FDF723FA36B010BD0000C1
:1037400000100140F0440258000002582DE9F843EF
:103750000446D0F88800984616460D46202802D028
:103760000220BDE8F883A5B19EB10021C4F89010F5
:103770002120C4F888001834FDF72CFB814654F84A
:10378000100CA687E6872027183CB0F5805F02D092
:1037900003E00120E5E7206910B12E46002510E086
:1037A00000260EE08021204601F042FBC0B9DEB1C8
:1037B00016F8010B21688862B4F85600401EA4F880
:1037C0005600B4F856004B464FF00002CDF800808A
:1037D0000028E7D14FF04001204601F029FB48B115
:1037E000C4F888700320BCE735F8020B2168C0F3E9
:1037F0000800E0E7C4F888700020B2E7FDF7F2BAED
:10380000FEE701688A69D243920701D400228A62E6
:1038100000688169C943C90703D0816941F001018A
:10382000816170472DE9F04704460068002689460B
:1038300017464FF0200835468169C90641D5102149
:10384000C1612FE0B9F1FF3F2CD0FDF7C3FAC11BD6
:10385000494502D8B9F1000F24D12068426894F894
:103860004210836902F48042DB431B0415D4B2F595
:10387000804F12D0202910D0416841F4804141602E
:10388000FDF7A8FA074608E0FDF7A4FAC01B1928BF
:1038900003D9012645F0200504E020688069C04373
:1038A0008006F1D420688069C043800602D5002ECE
:1038B000C8D003E016B92168C1F81C80012645F084
:1038C000040521688869C20505D54FF48072CA6174
:1038D00045F00105012641050AD5216880054FF410
:1038E000806245F00805CA614FF0010602D40AE083
:1038F000800507D5206801264FF4007145F00205C8
:10390000C16100E08EB12046FFF77BFF20680021F7
:10391000074F43683B404360606C2843606484F811
:10392000418084F8421084F840103046BDE8F087AA
:1039300000E800FE70B50068C1F3090141EA0241E8
:10394000074D049C19434FF480664268214306EA00
:1039500054532B439A4321F000410A43426070BD07
:10396000FF63FF032DE9F0411E4617460D4604464E
:10397000DDF8188021E0701C1FD0FDF72BFAA0EBBA
:103980000800B04200D8C6B92068806935EA000056
:1039900011D00020B84210D1626C002084F84000A1
:1039A000202142F02002626484F8411084F8420031
:1039B0000120BDE8F0810120ECE72068806935EA4C
:1039C000000004D00020B842D5D00020F1E701204B
:1039D000F9E700002DE9F0412026904600250F462A
:1039E000044641E0424639462046FFF71BFF10BB24
:1039F00020688069C04380061ED420688169C9435D
:103A0000490701D4218D71BB8169C943C90604D41A
:103A10001022C2610421616400E0656420681649D7
:103A2000C661206842680A40426084F8416084F8B8
:103A3000425084F8405013E0FDF7CCF9A0EB0800A9
:103A4000B84200D887B920688069C04340070BD5C9
:103A5000606C84F8405040F02000606484F841605D
:103A60000120BDE8F08104E020688069C043400780
:103A7000B8D40020F5E7000000E800FE70B5164657
:103A80000D4604461FE0324629462046FFF7CAFE8F
:103A900008B1012070BDFDF79DF9801BA84200D838
:103AA0008DB920688069C04380060CD5626C002007
:103AB00084F84000202142F02002626484F8411022
:103AC00084F84200E5E720688069C0438006DAD4C4
:103AD000002070BD70B516460D46044621E0324602
:103AE00029462046FFF79EFE08B1012070BD681CE4
:103AF00017D0FDF76FF9801BA84200D88DB9206858
:103B00008069C04380070CD5626C002084F84000B7
:103B1000202142F02002626484F8411084F84200BF
:103B2000E3E720688069C0438007D8D4002070BDD7
:103B300008B500900548C18A008B491E8BB2401E13
:103B400082B20021084600F059F808BDBC040024E8
:103B50002DE9F043244EDDF81C90747D14B1054628
:103B6000144606E01C4673680D46991A1B1A491E36
:103B70005B1E3768DFF87C80DFF870C007FB0152FE
:103B8000591A337DF6691A4858F8233006FB023279
:103B9000631BDCF80040FD1A4FF4803606EB03434C
:103BA00044F01004CCF800400668491C0024194376
:103BB0006D1EABB226F00105056002250460C561EB
:103BC00004610364C0F80C90C26341640A48016850
:103BD0000A6842F400720A600068016841F001015D
:103BE0000160BDE8F0830000BC040024D444025806
:103BF0000010005210000024140300242DE9F04F9F
:103C0000264F0026DDF824B07C7D1CB10546944685
:103C10001C4606E09C467B680D46991A1C1A491EF4
:103C2000641E1F483A68ACEB05091E4B92460768B4
:103C3000A2EB09024FF4403847F4000C1A4F3F68DA
:103C4000C0F800C00220C3F80080521E92B2586330
:103C50001A64186820F001001860601A0AFB01510C
:103C60004FF48032401C02EB0942104307EB410144
:103C7000D96359025864C3F838B0186840F001009D
:103C8000186002E0761C8E4202D258688007F9D58F
:103C9000986840F002009860BDE8F08FBC040024F2
:103CA000D844025800100052100000240148FDF7CB
:103CB0007BBB0000040400240C484FF416724FF440
:103CC0008061A0F1100330B4C0E900121980012412
:103CD0005A8002254475C28201830649C5610448A1
:103CE00008604FF4784030BCFFF722BFBC040024CA
:103CF000000000C0100000242DE9FE4F814600683E
:103D0000882493468D888C2204EBCB178A46C3689F
:103D10009421BE46C459C3F30B432B4404F47044AE
:103D20001F04019702EBCB1240F80E4001EBCB13BE
:103D3000DAF800709C214FF0AC0C01EBCB1440F290
:103D4000077102910CEBCB11D9F800C09825002027
:103D5000CDF800C0A02605EBCB15DCF80CC006EBB7
:103D6000CB16CCF30B4C0CF1010C07EB0C08DDF877
:103D700000C0019F48EA07084CF80E80D9F800708F
:103D8000BAF80CC0B846FF68C7F30A0767444FEAA1
:103D9000074E58F8027007F4704C48F802C0D9F882
:103DA00000C0DAF80870DCF80C80C8F30A0808F1E3
:103DB0000108B84448EA0E084CF80280D9F80020FF
:103DC000D75827F00707D750D9F80070DAF8102035
:103DD000FA509AF831209AF818304FEA022C9AF8E3
:103DE0003220120442EA0362D9F800301F591851F8
:103DF0009AF8303043EA0C031343D9F800201351EA
:103E0000D9F80020535923F0FF035351D9F800206B
:103E1000DAF814305351D9F800209359029CA34387
:103E20009351D9F80030DAE9072422439A51D9F89E
:103E3000002053585050D9F80020DAF82400505090
:103E4000DAF81000C8B301283AD004283AD0022882
:103E500038D0032836D0072834D00120D9F80030D4
:103E6000B02505EBCB11B42284245D5802EBCB12B4
:103E700005F0E0255D50DAE9003504EBCB14EB1AD0
:103E8000BAF8285043434543D9F80000DB1D43EA04
:103E900005434350D9F8000081586FF30A0181505F
:103EA000D9F80000DAF82C108150D9F80000015937
:103EB00041F001010151BDE8FE8FFFE70420CDE78D
:103EC0000320CBE70220C9E71FB50024009401942A
:103ED00002940394FDF746FC18228DF808208DF813
:103EE0000C4001208DF809404FF040418DF80D4005
:103EF0008DF800008DF80A408DF80E408DF80140D5
:103F000001918DF80B408DF80F006846FDF7FCFB22
:103F10000420FDF735FC1FBD0A480021084B012293
:103F200010B5036001714171416102628161FCF76A
:103F3000F5FB002803D0BDE81040FCF7E0BA10BD47
:103F4000004C0258F0020024104802220E4B0021BF
:103F500010B50360C0E90112C160C0E91112C1646B
:103F6000016541658165C165FCF71CFD08B1FCF781
:103F7000C6FA06480121FCF723FC002803D0BDE85F
:103F80001040FCF7BCBA10BD00100052140300240E
:103F9000F0B587B01C216846FCF7E6F91648012603
:103FA0000022144D02214FF0100C082705604FF439
:103FB000C075C0E90126C76040248E02C0F810C059
:103FC0000F03C0E90545C0E9072607230424C0E91B
:103FD00009278DE81A0003250393CDE904510691C2
:103FE0006946FFF793F8002801D0FCF788FA07B07C
:103FF000F0BD0000404100527C0300242DE9F04751
:1040000086B014216846FCF7AFF93F48016841F0DB
:1040100010010160016801F010010591016841F093
:1040200002010160016801F002010591016841F09F
:1040300040010160016801F040010591016841F013
:1040400008010160016801F008010591016841F46F
:1040500080710160016801F480710591016841F08F
:1040600004010160016801F004010591016841F05B
:1040700080010160016801F080010591016841F053
:1040800001010160016801F001010591016841F041
:104090002001016000684FF40056DFF870800022B4
:1040A00000F02000314605904046FCF787FEDFF81F
:1040B00060900122C0214846FCF780FE0122DFF813
:1040C00054A0D70250463946FCF778FE00250096EA
:1040D000012469464046CDE901450395FCF750FDB2
:1040E000C0206946CDE90004CDE902454846FCF709
:1040F00047FDCDE90074CDE9024569465046FCF71D
:104100003FFD06B0BDE8F087E044025800080258C1
:10411000001C0258000C02581348002110B5114C25
:104120000123124A0460C0E90121C0E90331416161
:104130008161C1610162FCF7BBFE08B1FCF7DFF9E8
:1041400009480021FCF75EFE08B1FCF7D8F90648E3
:104150000021FCF783FE002803D0BDE81040FCF7E7
:10416000CEB910BD001C0058B0030024B1757030EA
:10417000F0B58DB034216846FCF7F6F824480024E9
:10418000224A2E2100F11C0E40F22E4340F27126ED
:1041900040F2564702601922446040F27B2C846052
:1041A0000225C46004618EE8CE10C0E9054580F8A0
:1041B000344080F8354080F83640FDF759F908B1B1
:1041C000FCF79DF94FF4806104954FF41672FF20BF
:1041D00007AF05238607CDE90041CDE9024287E814
:1041E0004A00CDE905048DF830008DF83100CDE9A5
:1041F0000A128DF83200002205486946FDF7AAF838
:10420000002801D0FCF77BF90DB0F0BD0010005084
:10421000040400243EB51048002440F2E7320D4D5E
:10422000EF2300940194802102948161C0E902424D
:10423000C0E90053FFF720F808B1FCF760F9064821
:10424000694600940294FEF7C5FF002801D0FCF7F0
:1042500056F93EBD001000402805002418480021F2
:1042600010B5164C0C224FF4E1330460C0E9013163
:10427000C160C0E904128161C16101624162816271
:10428000FFF7EBF908B1FCF73AF90D480021FFF709
:10429000BEF908B1FCF733F909480021FFF791F99D
:1042A00008B1FCF72CF90648FFF76BF9002803D09A
:1042B000BDE81040FCF723B910BD0000001001401C
:1042C00074050024FEE7FEE7704710B5006C00217E
:1042D0008163C16290F84110082905D0012180F85E
:1042E0004110FDF7E1FA10BD02680221D1600168BA
:1042F0000A6842F400320A600068016841F0020175
:10430000016010BD0148FDF7D1BA0000DC040024B3
:104310002DE9F047454D044689464FF0000A2868CC
:10432000C04380070AD0414E283E306820F08060AC
:104330003060FCF74FFD0746B04608E00120BDE8BD
:10434000F08700BFFCF746FDC01B022867D8D8F8ED
:1043500000000001F6D4206829684FF4FE0721F41C
:104360007C313E0241EA00302860207AA389B4F80B
:1043700004C040022D4D2D495B1E227CACF1010C86
:104380001035091DA0F5007080B2521ECCF3080C48
:1043900007EA034340EA0C00184306EA02621043AE
:1043A00028600868626920F0C000104308600A684D
:1043B000A06922F0200202430A60281D0A6822F048
:1043C00010020A6002684FF6F873E4699A4342EA01
:1043D000C40202600868B9F1000F40F010020A60E0
:1043E00011D00868B9F1010F11D040F40010086035
:1043F000D8F80000444640F08060C8F80000FCF7A0
:10440000E9FC05460DE0086840F40020EFE740F4C1
:104410008010ECE7FCF7DEFC401B022801D90320EA
:104420008DE720680001F5D5504688E728440258FA
:104430002DE9F047454D044689464FF0000A2868AB
:10444000C04380070AD0414E283E306820F080509B
:104450003060FCF7BFFC0746B04608E00120BDE82D
:10446000F08700BFFCF7B6FCC01B022867D8D8F85D
:1044700000008000F6D4208829684FF4FE0721F060
:104480007C713E0241EA00502860207AA389B4F88A
:1044900004C040022D4D2D495B1E227CACF1010C65
:1044A0001835091DA0F5007080B2521ECCF3080C1F
:1044B00007EA034340EA0C00184306EA026210438D
:1044C00028600868626920F44060104308600A6848
:1044D000A06922F4007202430A60281D0A6822F4CF
:1044E00080720A6002684FF6F873E4699A4342EA00
:1044F000C40202600868B9F1000F40F480720A60DB
:1045000011D00868B9F1010F11D040F08070086037
:10451000D8F80000444640F08050C8F80000FCF78E
:1045200059FC05460DE0086840F48000EFE740F4D0
:104530000000ECE7FCF74EFC401B022801D90320E9
:104540008DE720688000F5D5504688E7284402585A
:104550002DE9F8431C4C102600274FF6FF79012562
:104560001A484A462146C4E90056C4E90257FEF7F4
:104570000FFE17480090401E0090FCD10221134806
:10458000C4E900161049B846C4E902574A46FEF786
:10459000FFFD04270D4803214A4684E8C2010A4969
:1045A000FEF7F6FD40F2312007494A46C4E90250C1
:1045B0000648C4E90076FEF7EBFDBDE8F843034882
:1045C0004FF44E71FEF7CCBDE00200247C030024C2
:1045D000A08601007047704770B59CB04C216846BA
:1045E000FBF7C2FE202113A8FBF7BEFE0220FDF759
:1045F0002FF92E4900242E480A6822F001020A6091
:104600000A68026842F440420260026802F44042D2
:104610001B9202689204FCD5264A136843F00203F9
:104620001360126802F002021B92026842F44042D8
:10463000026002680A6842F001020A60096801F03B
:1046400001011B9101688904FCD5022009900DF13C
:10465000280C01260096C10301910522C023502693
:104660008CE80D00CDE90D0608250F90CDE910541A
:1046700068461294FEF77AFA08B172B6FEE7402057
:104680001A903F210301CDE916500322CDE918030A
:1046900013AB13A883E816000421FEF729F80028BD
:1046A00001D072B6FEE71CB070BD00002C040058AB
:1046B00018480258F44402582E48F0B52E4A0168B2
:1046C00041F470010160106800F00F00072804D267
:1046D000106820F00F00C01D106028490020274CF2
:1046E00010340B68264D43F001030B6020600B680B
:1046F0002B400B60136803F00F03072B04D91368DA
:1047000023F00F03DB1D13601C4C1E4A18341E4B94
:10471000261D371D2060194C1C4D28343060261D85
:104720003860371D23603B1D35601C1D3A60251D18
:104730002E1D1860331D22602860326018600A68E0
:104740000E4B134C22F4802260330A6018602068FC
:104750006FF30F00B0F1005F03D20E490120C1F8E2
:10476000080143F2D2000C49024B4A03803B086027
:104770001A60F0BD88ED00E00020005200440258AD
:104780007FEDF6EA80020101000202020000FF0153
:104790000010005C00800051004000520148FEF70C
:1047A00002BE0000280500240148FEF7FCBD000001
:1047B000080600242DE9F047274B4FF0804A274D8B
:1047C00002689842264E274F274C09D0504507D003
:1047D000A84205D0B04203D0B84201D0A04205D1D2
:1047E000D1F804C022F070024CEA0202DFF87CC06B
:1047F000DFF87C809842DFF87C900FD050450DD0D8
:10480000A8420BD0B04209D0B84207D0A04205D090
:10481000604503D0404501D0484503D1CD6822F41E
:1048200040722A434D6922F080022A430260984276
:104830008A68C2620A68826207D0A04205D06045D9
:1048400003D0404501D0484501D1096901630121E8
:104850004161BDE8F0870000000001400004004015
:1048600000080040000C00400004014000400140EE
:10487000004401400048014030B5416EB9B10168C3
:104880000D4B03F108048A688968C2F34262490F3C
:104890005D5C615C2D01B5FBF1F1A0F86A10995CDB
:1048A000A25C0901B1FBF2F1A0F8681030BD012152
:1048B000A0F86A10F8E7000020E7020890F8281036
:1048C000C90706D00168C36A4A6822F400321A4355
:1048D0004A6090F82810890706D50168036B4A687A
:1048E00022F480321A434A6090F82810490706D50E
:1048F0000168436B4A6822F480221A434A6090F8A8
:104900002810090706D50168836B4A6822F4004223
:104910001A434A6090F82810C90606D50168C36B8F
:104920008A6822F480521A438A6090F82810890617
:1049300006D50168036C8A6822F400521A438A6023
:1049400090F82810490611D50168436C4A6822F492
:1049500080121A434A60416CB1F5801F06D101688C
:10496000836C4A6822F4C0021A434A6090F8281007
:10497000090606D50168C26C486820F4002010437F
:10498000486070472DE9F84300250446C0F8905070
:10499000FCF720FA8046206820266FF07E470068EA
:1049A000000713D50022434631042046009700F04B
:1049B0003FFA58B1216851E8000F20F0800041E82B
:1049C0000002002AF6D1C4F8886021E0206800685F
:1049D000400722D5002243464FF48001204600972D
:1049E00000F026FAC8B1206850E8001F21F4907149
:1049F00040E80012002AF6D12068083050E8001F75
:104A000021F0010140E80012002AF5D1C4F88C60C1
:104A1000032084F88450BDE8F883C4F88860C4F8A3
:104A20008C60E5662567002084F88450F3E7000079
:104A300010B5026852E8001F21F4907142E800139B
:104A4000002BF6D10E4B0268083252E8001F1940C5
:104A500042E80014002CF6D1C16E012908D1026889
:104A600052E8001F21F0100142E80013002BF6D19C
:104A700000212022C0F88C20C166416710BD0000D3
:104A8000FEFFFFEF2DE9F04304468068D84E87B063
:104A9000D84B2168D4E90427D4F81CC010430A6815
:104AA000002547EA0C073843324002430A60206879
:104AB000E268416821F44051114341602268A169D4
:104AC0009A4201D0206A01439768DFF82CC3CB4E8D
:104AD000CB4807EA0C070F4397602168676ACA6AE8
:104AE00022F00F023A43CA622268B2420ED1006835
:104AF00000F03800182873D047DCB8B3082879D004
:104B000010286FD178E028287ED17BE0BD498A4209
:104B100009D1006800F00700062875D2DFE800F030
:104B2000546A6C6E7072B8498A4209D1006800F00C
:104B30000700062868D2DFE800F0475D5F61636523
:104B4000B2498A4209D1006800F0070006285BD20A
:104B5000DFE800F03A5052545658AD498A420BD122
:104B6000006800F0070006284ED200E010E0DFE801
:104B700000F02B4143454749A6498A420AD10068C3
:104B800000F03800182839D0B7DD2028BBD13CE030
:104B900001203AE0A0498A4209D1006800F00700EC
:104BA000062831D2DFE800F01026282A2C2E9B4957
:104BB0008A420BD1006800F00700062824D2DFE803
:104BC00000F003191B1D1F2100201EE09A421BD17B
:104BD0008B48001D006800F00700062814D202E090
:104BE0000CE007E010E0DFE800F0030507090B0D1B
:104BF00002200AE0042008E0082006E0102004E07B
:104C0000202002E0402000E080208549DFF8148267
:104C10009A42854A4FF400434FEA21174FF00006AD
:104C20004ED110281AD006DC022809D004280BD057
:104C300008287CD10DE020283ED0402877D13DE0E7
:104C4000FCF72AFF014610E06846FCF737FF0199A0
:104C50000BE003A8FCF7D4FF049906E01068800677
:104C600005D51068C0F3C100C140002970D0606A4A
:104C7000676838F8102007EB4703B1FBF2F0834276
:104C800055D8B0EB073F52D8002308461946FBF72A
:104C900021FB02467808130E120243EA0121101884
:104CA0003A4671410023FBF715FB604AA0F54071BD
:104CB00091423CD821688FE03946D8E71946D6E7BB
:104CC000D4F81CC04FF6EF799C4546D1082819D07E
:104CD00005DC58B101280CD0042875D10DE010284E
:104CE00015D0202835D040286ED134E0FDF77EFE67
:104CF00001E0FDF78DFE014610E06846FCF7DEFEA0
:104D000001990BE003A8FCF77BFF049906E010680B
:104D1000800604D51068C0F3C100C140C1B1636A08
:104D2000606838F81330B1FBF3F1490000E04BE064
:104D300001EB5001B1FBF0F0A0F11001494543D85F
:104D40004FF6F0732168C0F342021840104343E06D
:104D500043E03946E3E71946E1E7082819D005DCC6
:104D600058B101280CD004282ED10DE0102815D000
:104D700020282BD0402827D12AE0FDF737FE01E07C
:104D8000FDF746FE014610E06846FCF797FE0199E4
:104D90000BE003A8FCF734FF049906E010688006D6
:104DA00004D51068C0F3C100C140B1B1636A606846
:104DB00038F81330B1FBF3F101EB5001B1FBF0F027
:104DC000A0F11001494505D9012506E03946EDE776
:104DD0001946EBE7216880B2C8600120A4F86A0098
:104DE000A4F8680028466667A66707B0BDE8F083A8
:104DF000F369FFCF000C0058FFF4FF1100100140D1
:104E0000544402580044004000480040004C004018
:104E1000005000400014014000780040007C004039
:104E20000090D00308E7020800440258FFFC0F007E
:104E30002DE9F047994617460E460446089D4FF067
:104E400000082FE0681C2DD0FBF7C4FFA0EB090081
:104E5000A84214D89DB120680168490722D5C169CC
:104E6000C94309070DD4082505622046FFF7E0FD78
:104E7000C4F89050012084F88480BDE8F0870320B6
:104E8000FBE7C069C04300050CD421684FF4006003
:104E900008622046FFF7CCFD2021C4F8901084F86A
:104EA0008480ECE72068C06936EA000004D0002066
:104EB000B842C7D00020E0E70120F9E7FEE7000094
:104EC0000FB4054B10B503A9044A029802F07AFF0B
:104ED00010BC5DF814FB0000B9FD0008DC020024E2
:104EE000090700284FEA116104DB00F1E02080F897
:104EF0000014704700F00F0000F1E02080F8141D4E
:104F0000704702E008C8121F08C1002AFAD1704792
:104F10007047002001E001C1121F002AFBD1704739
:104F200070B5002504466FF02F0608E0206805EBF9
:104F30008502411C216006EB42020078851820683A
:104F4000007800F004F80028F0D1284670BD303811
:104F5000092801D801207047002070470A484421E1
:104F600010B501F056FA24F043FA084C002304224D
:104F70000A216060064822F01DFDA06003F090FA4F
:104F80000020207010BD0000F47E0224C400002424
:104F9000598500082DE9F04100251C46152A884650
:104FA00006462DD2DFE802F00B1A1C2D363A495284
:104FB000545D60707E80909DADB2B7BCCF0030462E
:104FC0000FF04BF9054640460FF047F905EBD57158
:104FD00000EBD0704910A1EB6000A4E025800EE04A
:104FE00030460FF03AF9074640460FF036F907EB26
:104FF000D77100EBD0704910A1EB60008EE06580A6
:1050000075E030460FF029F9074640460FF025F9C4
:10501000381A6AE025809AE0608068E030460FF038
:105020001CF9054640460FF018F905EBD57100EB69
:10503000D0704910A1EB600088E030460FF00DF908
:10504000054640460FF009F9281A7FE025806BE0FD
:1050500030460FF002F9054640460FF0FEF8281AD8
:1050600061E00846258019E030460FF0F6F8054665
:1050700040460FF0F2F8014605EBD57001EBD17117
:105080004010A0EB610007E030460FF0E6F805465F
:1050900040460FF0E2F8281A208040460FF0A4F8AE
:1050A0004042B9E7258018E030460FF0D6F80546B3
:1050B00040460FF0D2F8014605EBD57001EBD171F7
:1050C0004010A0EB610007E030460FF0C6F805463F
:1050D00040460FF0C2F8281A208030460FF084F8BE
:1050E0009AE708460FF0B9F8404265802080208892
:1050F0003188084420807088618808446080BDE859
:10510000F08108460FF0A9F840420CE008460FF085
:10511000A4F840421AE030460FF09FF820806EE776
:1051200030460FF09AF8208030460FF05DF80546C3
:1051300040460FF059F805EBD57100EBD0704910DF
:10514000A1EB600068E730460FF087F8208030461A
:105150000FF04AF8054640460FF046F8281A5BE77C
:1051600070B5B1F90040B2F900309C4200DD234631
:105170000380B1F90250B2F90240A54200DD2C468D
:105180004480B1F90460B2F90450AE4200DA354609
:105190008580B1F90610B2F90620914200DB114674
:1051A000C180AB424FF0010001DC8C4200DD0020E9
:1051B00070BDF8B51646B1F900200D46B0F90010E3
:1051C00004460020914212DBB4F90220B5F9023006
:1051D0009A420CDBB4F90420B5F904309A4206DC9B
:1051E000B4F90620B5F906309A4200DC0120002E01
:1051F00033D0ADF80010324660886946ADF8020041
:10520000284600F047F8002827D0A0883246ADF89D
:10521000000069466088ADF80200284600F03AF8C0
:1052200000281AD020883246ADF800006946E08890
:10523000ADF80200284600F02DF800280DD0A08817
:105240003246ADF800006946E088ADF80200284615
:1052500000F020F8002800D00120F8BDB0F90020AF
:10526000B1F904309A4213DCB0F90420B1F90030EE
:105270009A420DDBB0F90220B1F906309A4207DC00
:10528000B0F90600B1F90210884201DB0120704735
:10529000002070472DE9FC410546B1F900000E469B
:1052A0001446B5F9001088423ADBB5F90470B842EB
:1052B00036DCB6F90200B5F90230984230DBB5F9B8
:1052C000062090422CDC002C75DD781AD21A401C86
:1052D000521C00B212B200EBD07002EBD27240103E
:1052E0005210904200DB1046844200DD0446ADF8C7
:1052F00000102888002231462044ADF80400688858
:10530000ADF8020068882044ADF806006846FFF753
:10531000C1FF40B1BDF804002044ADF804003FE0F7
:105320000020BDE8FC81E88800223146001BADF872
:105330000200E888ADF806006846FFF7ABFF28B129
:10534000BDF804002044ADF8040011E0A888002254
:105350003146001BADF80000A888ADF8040068468F
:10536000FFF798FF50B1BDF80000001BADF800003A
:10537000BDF80200001BADF8020016E068880022AC
:10538000ADF80200314668882044ADF80600684652
:10539000FFF780FF70B1BDF80000001BADF8000002
:1053A000BDF806002044ADF80600314668461EF000
:1053B000E1FEB6E7FFE70120B3E710B5B1F9004021
:1053C000B2F900309C4200DA23460380B1F9024072
:1053D000B2F902309C4200DA23464380B1F904401E
:1053E000B2F904309C4200DD23468380B1F90610F7
:1053F000B2F90620914200DC1146C18010BD03467F
:1054000070B580881C88DD885E88001B1980401C70
:105410005A80AA1B01B21846521C14B20EF041FF6A
:1054200021461846BDE870400EF036BF00284FF008
:10543000000201DA40420122002901DA4942921CAD
:10544000884207D9C1EB0111103201EB4101B1FBD8
:10545000F0F305E0C0EB001000EB4000B0FBF1F30F
:105460000020D9B216290BD92C2900D801202929CE
:1054700000D8401C252900D8401C20290BD90BE05E
:10548000022900D30120062900D3401C0A2900D399
:10549000401C0F2900D3401CD106184401D5C0F18F
:1054A0005A0091074FEAC27105D509B1B43005E041
:1054B000C0F1B40002E009B1C0F5B47080B2704729
:1054C0002DE9FF4F87B01D468B46DDE91476DDF8E8
:1054D0005890022E55D3002F53D001F02DFD804659
:1054E00012F04AFDD8F8241000F11004D0F808A0FA
:1054F00009B140468847079904A85A46FFF730FE8D
:1055000000283ED0BDF81000002D2188A0EB01003E
:1055100001B2ADF81010BDF812006288A0EB0200D5
:10552000ADF81200BDF814002288A0EB020000B212
:10553000ADF814006388BDF81620A2EB0302ADF8A5
:10554000162012D098F80820D2070ED1411A002058
:10555000491C09B207E02A5C802A01D9FF2200E039
:1055600000222A54401C8842F5DBD8F8140058B1B8
:10557000099B04AACDE900655146204602970AF02E
:1055800049FB0BB0BDE8F08FB9F1000F0AD001A8BC
:10559000009604AA514680E8A002099B20460AF022
:1055A00091F8EEE7099B04AACDE900655146204633
:1055B00002970AF021F9E4E72DE9FF4F87B01D4675
:1055C0009146DDE91476DDF858A0022E57D3002F5E
:1055D00055D0089A014605A8FFF7C2FD00284ED015
:1055E00001F0AAFC804612F0C7FCD8F8241000F1A4
:1055F0001004D0F808B009B140468847BDF814003F
:10560000002D2188A0EB010001B2ADF81410BDF807
:1056100016006288A0EB0200ADF81600BDF8180075
:105620002288A0EB020000B2ADF818006388BDF834
:105630001A20A2EB0302ADF81A2012D098F8082025
:10564000D2070ED1411A0020491C09B207E02A5C9A
:10565000802A01D9FF2200E000222A54401C8842FF
:10566000F5DBD8F8140068B1CDF8009005AA0397CF
:105670005946CDE90165089B204624F05FFB0BB03D
:10568000BDE8F08FBAF1000F0BD002A8594605AA69
:1056900080E8A004089B2046CDE9009624F0C2F8DB
:1056A000EDE7CDF8009005AA03975946CDE90165CD
:1056B000089B204624F06AF9E1E70000D0F8802139
:1056C000C2F309438B4202D204490A4002E0591A4C
:1056D00061F31942C0F8802170470000FFFF00FC11
:1056E0002DE9FC5F054623F083FE554C0021019017
:1056F000E8686060284622F0BBFA6068416CA9B196
:105700001EF0EEFF1EF062FF60684E4AD0F8801176
:1057100011427DD0A34612F0C6FC002869D0DBF808
:1057200004005C464169002963D108E0454AD0F88D
:105730008011D2431140C0F88011BDE8FC9F12F0E7
:105740001BFC05461FF0C6F8A8690028FCD160685C
:10575000B0F90000400000F07DFFA968824628688B
:105760008946814200D168688046606812F018FC62
:105770000646A34600242FE00A1992F862214ABB8C
:1057800001EBC401B1F96450B1F96200B1F86620CF
:1057900016FB0501101A401C00B24F00400000909B
:1057A00010E000BF009A08EB0701504601F01AF81C
:1057B000009A09EB0700514601F014F86D1C2DB258
:1057C00007EB4607DBF8040000EBC400B0F9680003
:1057D000A842E7DA641CA4B2DBF80410D1F88021F7
:1057E000C2F30942A242C7D8BAF1000001D000F0CA
:1057F000B7FFDBF804004FF480715C46623001F0C3
:10580000FBF86068202100F5B17001F0F5F800E0C8
:1058100010E061680B4AD243D1F880011040C1F812
:105820008001019823F0DEFD0146606883690BB1B9
:105830002268984700F0ECFEBDE8FC5F00F004B879
:10584000640000240000FF0310B5044C2068002809
:1058500003D01AF01BFC0020206010BDE8000024DB
:105860000148442100F0D5BDDC7E02240148182106
:1058700000F0CFBD007F02242DE9F84F8146DDE91D
:105880000A0A13B9B0F5807F7ED0BAF900604FF0F4
:10589000FF350224C6F10006002B06FB00F605EBDF
:1058A000262636B2A9F80060BAF90270C7F10007DF
:1058B00007FB00F705EB27252DB2A9F80250BAF92E
:1058C0000070A1EB070101FB00F104EB212109B2FB
:1058D000A9F80410BAF90270A2EB070202FB00F269
:1058E00004EB222000B2A9F806007ED00A2593FB23
:1058F000F5F67042771C00EB800003EB400430B2F9
:1059000001F046FF804638B201F042FF5A3600905F
:1059100030B201F03DFF5A37834638B201F038FF0C
:10592000C4F10A01DDF800C0B9F9003001FB08F646
:1059300001FB0BF100FB04100CFB046690FBF5F07F
:1059400096FBF5F1B9F90220B9F904C04FEA601BE2
:1059500049110BFB03F401FB03F80BFB0CF001FBFB
:105960000CF301FB12450BFB028601FB12070BFB3C
:10597000023CB9F9062001FB124401FB12010BFBAA
:1059800002880BFB023200E022E0BAF8000000EBD4
:10599000A52300EBA42400EBA72500EBA12118B25E
:1059A000BAF8023024B203EBAC2703EBA82C03EBCC
:1059B000A62603EBA22832B23BB22DB209B20FFAEF
:1059C0008CF60FFA88F7844224DAA44623E00CE030
:1059D0000020491EA9F80410521EA9F80620A9F8B3
:1059E0000000A9F80200BDE8F88FBAF800203244A0
:1059F000A9F80020BAF802202A44A9F80220BAF82F
:105A000000201144A9F80410BAF802100844A9F8BB
:105A10000600E8E78446A94201DA884600E0A84685
:105A2000C44505DA844201DAA44606E0844604E06F
:105A3000A94201DA8C4600E0AC46A9F800C08442D5
:105A400001DDA44600E08446A94201DD884600E06D
:105A5000A846C44503DD844206DD204604E0A94291
:105A600001DD084600E02846A9F80400964201DA64
:105A7000304600E010469F4201DA394600E0194600
:105A8000884205DA964201DA304606E0104604E024
:105A90009F4201DA384600E01846A9F80200964213
:105AA00001DD304600E010469F4201DD394600E04E
:105AB0001946884203DD964206DD324604E09F42E5
:105AC00001DD3A4600E01A46A9F806208BE70000FF
:105AD0002DE9FE4F0446B0F90800081AB4F90A503F
