:020000040800F2
:10000000F8040024B1020008BF2E0008372D0008B4
:10001000BD2E0008BD030008B5390008000000002F
:10002000000000000000000000000000893100080E
:10003000BF03000800000000C12E00088B3100083B
:10004000CB020008CB020008CB020008CB0200085C
:10005000CB020008CB020008CB020008CB0200084C
:10006000CB020008CB020008CB020008CB0200083C
:10007000CB020008CB020008CB020008CB0200082C
:10008000CB020008CB020008CB020008CB0200081C
:10009000CB020008CB020008CB020008CB0200080C
:1000A000CB020008CB020008CB020008CB020008FC
:1000B000CB020008CB020008CB020008CB020008EC
:1000C000CB020008CB020008CB020008CB020008DC
:1000D000CB020008A9390008CB020008CB020008B7
:1000E000CB020008CB02000800000000CB02000891
:1000F000CB020008CB020008CB020008CB020008AC
:10010000C5030008CB020008CB020008CB020008A0
:10011000CB020008CB020008CB020008CB0200088B
:10012000CB020008CB020008CB020008CB0200087B
:10013000CB020008CB020008CB020008CB0200086B
:1001400000000000000000000000000000000000AF
:10015000CB020008CB020008CB020008CB0200084B
:10016000CB020008CB020008CB020008CB0200083B
:10017000CB020008CB020008CB0200080000000000
:10018000CB020008CB020008CB020008CB0200081B
:10019000CB020008CB020008CB020008CB0200080B
:1001A000CB020008CB020008CB020008CB020008FB
:1001B000CB020008CB020008CB020008CB020008EB
:1001C000CB020008CB020008CB020008CB020008DB
:1001D000CB020008CB020008CB020008CB020008CB
:1001E000CB020008CB020008CB020008CB020008BB
:1001F000CB020008CB020008CB020008CB020008AB
:10020000CB020008CB020008CB020008CB0200089A
:10021000CB020008CB020008CB020008CB0200088A
:10022000CB020008CB020008CB020008000000004F
:10023000CB020008CB02000800000000CB0200083F
:10024000CB020008CB020008CB020008CB0200085A
:10025000CB020008CB020008CB020008CB0200084A
:10026000CB020008CB020008CB020008CB0200083A
:10027000CB020008CB020008CB02000800000000FF
:10028000CB020008CB020008CB02000800000000EF
:1002900000000000CB020008DFF810D000F07CF86E
:1002A00000480047F13C0008AFF30080F804002448
:1002B0000648804706480047FEE7FEE7FEE7FEE700
:1002C000FEE7FEE7FEE7FEE7FEE7FEE76D32000829
:1002D000990200082DE9F05F0546002092469B46F2
:1002E00088460646814640241BE02846414647464C
:1002F000224600F041F853465A46C01A914110D3A5
:1003000011461846224600F028F82D1A67EB01081E
:100310004F4622460120002100F01FF817EB00098C
:100320004E41201EA4F10104DFDC484631462A4636
:100330004346BDE8F09FD2B201E000F8012B491E10
:10034000FBD270470022F6E710B513460A46044672
:100350001946FFF7F0FF204610BD202A04DB203AA3
:1003600000FA02F1002070479140C2F1200320FA08
:1003700003F3194390407047202A04DB203A21FA06
:1003800002F00021704721FA02F3D040C2F12002AE
:100390009140084319467047064C074D06E0E06857
:1003A00040F0010394E8070098471034AC42F6D3BC
:1003B000FFF776FF943D0008B43D0008FEE7704764
:1003C00072B6FEE7014802F024B9000020000024C4
:1003D000F0B5D1E90843CD690A68C2B10268254386
:1003E00022F4F84213431D430560D1E90125D1E908
:1003F00003364C692A434568334389691A43EB0B3A
:100400002243DB030A431A4342600020F0BDD1E9D6
:10041000012ED1E9036CD1E9057142EA0E0246EAE8
:100420000C0632433A430A4301682A4322431A43E3
:100430006FF30E010A430260E7E7426943F6FE7379
:100440009A4342EA410141610020704770B591E84A
:100450001C00C9686FF01F0506691A4305EB4414B8
:1004600044EA41210A4306EA45431A430261002057
:1004700070BD00002DE9F04F8B8A6FF00F05264C00
:100480004FF07F4BD1F80C9004EB03536FF0FF0457
:100490004FEA042A1AB386684FEA09321F4FA2F5C1
:1004A00080521A433E4032438260D1E900278E6871
:1004B000521E05EB07150F8A2A43C56804EB062474
:1004C0000E7E0AEB074322431A430BEB06610A43F5
:1004D00005F070431A43C2600020BDE8F08F91E838
:1004E00004110F4E521E0F8A05EB08152A4304EB28
:1004F0000C2C06EB09350E7E42EA0C022A43856875
:100500000AEB074422431A430BEB06610A4305F04A
:1005100070431A438260DFE70000F0FFFF0F0FFF18
:1005200000F0FFFF2DE9F84F044600F0A1FC009019
:100530003CB194F83500022806D080216165002086
:10054000E4E00120BDE8F88FC74DC74EC649183515
:1005500020683036DFF81483DFF814938842DFF820
:1005600014A3DFF814B32ED0A8422CD0B0422AD066
:10057000404528D0484526D0504524D0584522D063
:10058000BD4A183290421ED0BC4A90421BD0BB4A92
:100590001832904217D0B94A3032904213D0B74A3D
:1005A000483290420FD0B54A603290420BD0B34AE5
:1005B0007832904207D0B14A9032904203D0AF4A8D
:1005C000A832904209D1026822F01E02026020681F
:1005D000426922F08002426103E0026822F00E02CA
:1005E000026027688F4238464DD0A8424BD0B042B7
:1005F00049D0404547D0484545D0504543D058455F
:1006000041D09D4A183290423DD09C4A90423AD007
:100610009A4A1832904236D0984A3032904232D0BC
:10062000964A483290422ED0944A603290422AD064
:10063000924A7832904226D0904A9032904222D00C
:100640008E4AA83290421ED08D4A90421BD08C4ACE
:100650001432904217D08A4A2832904213D0884AE6
:100660003C3290420FD0864A503290420BD0844A9E
:100670006432904207D0824A7832904203D0804A56
:100680008C32974204D1206E026822F4807202609C
:1006900075492068884228D0A84226D0B04224D08C
:1006A000404522D0484520D050451ED058451CD04A
:1006B00071491831884218D07049884215D06F4965
:1006C0001831884211D06D49303188420DD06B49C4
:1006D0004831884209D069496031884205D067496C
:1006E0007831884201D065499031016821F00101DB
:1006F00001600EE000F0BCFB0099401A052808D903
:10070000202262650321002084F8351084F834002B
:1007100017E73868C007EDD1534A0121206890429D
:100720002ED0A8422CD0B0422AD0404528D04845EF
:1007300026D0504524D0584522D04F4B18339842EC
:100740001ED04E4B98421BD04C4B1833984217D0BA
:100750004A4B3033984213D0484B483398420FD01D
:10076000464B603398420BD0444B7833984207D0C5
:10077000424B9033984203D0404BA833984208D163
:1007800094F85C703F23A06D07F01F07BB408360A7
:1007900007E094F85C30A06D03F01F0301FA03F347
:1007A0004360206890424DD0A8424BD0B04249D01F
:1007B000404547D0484545D0504543D0584541D0A5
:1007C0002D4A183290423DD02C4A90423AD02B4AC2
:1007D0001832904236D0294A3032904232D0274ADD
:1007E000483290422ED0254A603290422AD0234A85
:1007F0007832904226D0214A9032904222D01F4A2D
:10080000A83290421ED01E4A90421BD01C4A14327D
:10081000904217D01A4A2832904213D0184A3C32DC
:1008200090420FD0164A503290420BD0144A643294
:10083000904207D0124A7832904203D0104A8C324C
:1008400090420BD1D4E919024260E06E30B10268E7
:1008500022F480720260D4E91C024260002084F815
:10086000351084F834006DE6100002405800024054
:100870007000024088000240A000024010040240C4
:10088000085402582DE9F05F28B190F8351002297C
:1008900004D0802141650120BDE8F09F904C904B31
:1008A0000168183C18338E4ADFF83C92A1428D4C07
:1008B000DFF838E28E4FDFF83CB2DFF83CA28F4D14
:1008C0008F4E31D091422FD099422DD0A1422BD0C2
:1008D000494529D0714527D0B94225D0DFF810C24B
:1008E0000CF1180C61451FD0DFF808C2ACF1600CA8
:1008F000614519D0DFF8FCC1ACF1480C614513D05B
:10090000DFF8F0C1ACF1300C61450DD0DFF8E4C187
:10091000ACF1180C614507D0594505D0514503D0BD
:10092000A94201D0B1422CD1DFF8B4C14FF0040884
:1009300080F83580ACF1180C61451DD091421BD078
:10094000994219D0A14217D0494515D0714513D00D
:10095000B94211D06648183081420DD065486038E0
:10096000814209D063484838814205D06148303817
:10097000814201D05F481838086820F00100086003
:10098000ABE0D1F800C02CF00E08DFF854C1C1F87C
:100990000080ACF1180C0168614527D0914225D048
:1009A000994223D0A14221D049451FD071451DD085
:1009B000B9421BD0DFF838C10CF1180C614515D0D5
:1009C000DFF830C1ACF1600C61450FD0DFF824C115
:1009D000ACF1480C614509D0DFF818C1ACF1300C1E
:1009E000614503D0DFF80CC1ACF1180CD1F800C0A0
:1009F0002CF0010CC1F800C0DFF8E4804FF0010CCE
:100A00000168A8F11808414546D0914244D0994266
:100A100042D0A14240D049453ED071453CD0B94278
:100A20003AD0334A1832914236D0324A603A914233
:100A300032D0304A483A91422ED02E4A303A914232
:100A40002AD02C4A183A914226D0594524D05145F3
:100A500022D0A94220D0B1421ED02A4A91421BD0B6
:100A6000284A1432914217D0264A2832914213D094
:100A7000244A3C3291420FD0224A503291420BD04C
:100A8000204A6432914207D01E4A7832914203D004
:100A90001C4A8C32914218D1016E0A6822F480728D
:100AA0000A6090F85C20816D02F01F020CFA02F2DD
:100AB0004A60D0E919124A60C16E31B10A6822F465
:100AC00080720A60D0E91C124A600022016D80F831
:100AD00035C080F8342001B188470020DCE60000F2
:100AE0002800024058000240700002408800024086
:100AF000A00002407004024088040240A0040240AA
:100B0000B80402400854025870B5044600F0B0F929
:100B10000546601C02D004480078044400F0A8F99F
:100B2000401BA042FAD370BD08000024F0B5B7B056
:100B3000142130A8FFF706FC3148016800295CD178
:100B400001210160C0216846FFF7FCFB00201290E4
:100B50004FF080710446CDE90010684600F0B2FB0A
:100B600008B1FFF72DFC2748016841F4805101606E
:100B70000068022532AA00F4805035904FF63F00FD
:100B8000CDE93005032620480C2782E8D00030A9A3
:100B900000F044F82C2032AACDE930051B4830A9DA
:100BA00082E8D00000F03AF832AA48F23710CDE9D6
:100BB0003005174830A982E8D00000F02FF832AA9B
:100BC0004FF68370CDE93005124830A982E8D00095
:100BD00000F024F832AA4CF20370CDE930050E483B
:100BE00030A982E8D00000F019F800223020114628
:100BF00000F0B6F9302000F0A5F937B0F0BD0000E4
:100C000000000024D444025800140258001C02586A
:100C10000018025800100258000C02582DE9F84F35
:100C200003247D4D00234FF001094FF0B04B4FF0EE
:100C30000F0AE9E009FA03F73A4076D00E7906F098
:100C40000306012E01D0022E18D1D0F808C04FEAB9
:100C5000430ECE6804FA0EF82CEA080C06FA0EF6DB
:100C600046EA0C068660D0F804C00E792CEA070C20
:100C7000C6F300169E4046EA0C0646600E79F6431F
:100C8000B6070BD0C6684FEA43088F6804FA08FC21
:100C900026EA0C0607FA08F73743C7600E7906F014
:100CA0000306022E12D1DE080F694FEA437C00EBE7
:100CB0008606B646366A4FEADC6C0AFA0CF807FA82
:100CC0000CF726EA08063743CEF820700F7906683D
:100CD0004FEA430807F0030704FA08FC07FA08F78D
:100CE00026EA0C06374307604E6816F4403F1CD0D6
:100CF0004A4E376847F00207376036689F0706F0AC
:100D00000206009623F0030606F1B046B6463F0FF2
:100D1000D6F80864DFF808810AFA07FC404526EA9D
:100D20000C0603D14FF0000C41E06CE0DFF8F4C09A
:100D3000604502D14FF0010C39E0DFF8ECC06045AE
:100D400002D14FF0020C32E0DFF8E0C0604502D182
:100D50004FF0030C2BE0DFF8D8C0604502D14FF014
:100D6000040C24E0DFF8CCC0604502D14FF0050C44
:100D70001DE0DFF8C4C0604502D14FF0060C16E05C
:100D8000DFF8B8C0604502D14FF0070C0FE0DFF884
:100D9000B0C0604502D14FF0080C08E0DFF8A4C0F5
:100DA000604502D14FF0090C01E04FF00A0C0CFA3B
:100DB00007FC4CEA060CCEF808C44F68DBF800606C
:100DC000FF0226EA020600D516435F46CBF8006014
:100DD000D1F804C0DBF804605FEA8C2C26EA020636
:100DE00000D516437E606E684F6826EA0206BF0390
:100DF00000D516436E602E684F6826EA0206FF0390
:100E000000D516432E605B1C0A6832FA03F67FF4A5
:100E100011AFBDE8F88F000080000058F44402587C
:100E2000000002580004025800080258000C025842
:100E3000001002580014025800180258001C0258F2
:100E40000020025800240258426921EA02030A40A5
:100E500043EA0241816170470AB181617047090428
:100E6000FBE7000001480068000C70470010005CC0
:100E7000014880687047000008000024024881682B
:100E8000027811448160704708000024032010B5E7
:100E900000F086F801F060F80F4A104914681368F2
:100EA000C4F3032203F00F038A5CC95C02F01F0243
:100EB00001F01F01D0400A4A20FA01F111600949EE
:100EC00008600F2000F010F808B1012010BD00F0FC
:100ED0002BF8002010BD000018440258843D000883
:100EE000180000241400002470B50D4D0446287825
:100EF000A0B14FF47A71B1FBF0F00A490968B1FB77
:100F0000F0F001F0F5FB48B9102C07D20022214681
:100F1000501E00F025F800206C6070BD012070BDEF
:100F20000800002414000024054808B5016841F0B9
:100F300002010160006800F00200009008BD00009E
:100F4000F4440258002809DB410900F01F0289001F
:100F5000012001F1E0219040C1F80001704700003C
:100F60000E4BF0B41B680D46C3F30223C3F1070612
:100F7000042E00D90426191D072901D2002300E000
:100F8000DB1E012404FA06F19C40491E2940641E20
:100F9000994014402143F0BC02F01EBD0CED00E06E
:100FA000064900F0070210B54FF6FF040868044B2D
:100FB000204040EA02201843086010BD0CED00E01C
:100FC0000000FA05134970B50A68D243520705D5E7
:100FD000096801F00701814213D118E00A6822F084
:100FE000070202430A60FFF743FF0A4D4FF47A7687
:100FF0000446083D07E000BFFFF73AFF001BB04280
:1010000001D9012070BD2868C0438004F4D40020B9
:1010100070BD00000C48025810B500F057FF05499C
:101020000968054AC1F30211515C01F01F01C84073
:1010300010BD000020440258843D0008494930B5E5
:10104000484C0B1D0A68143409681D68246802F0B6
:101050000303C5F30012C1F30531C4F3CC04002926
:1010600014FB02F200EE102AF8EE400A75D03F4A57
:101070009FED3D1AB7EE000A6BB1DFED3D1A012B73
:1010800001D0022B64D002EE101A1168F8EE422A49
:1010900081EEA22A21E0334C283C23689B0612D51E
:1010A000344B246801EE901A1168C4F3C104F8EEC1
:1010B000612AE34001EE903AC1F30801F8EE611AAB
:1010C00081EEA22A0BE001EE901ADFED2B2A00BF81
:1010D000F8EE611A116882EEA12AC1F3080101EE4F
:1010E000901A1168F8EE611A40EE811A71EE800ACA
:1010F00062EE200AC1F3462101EE101AB8EE411A41
:1011000031EE001AC0EE811ABCEEE11A80ED001A31
:101110001168C1F3064101EE101AB8EE411A31EE22
:10112000001AC0EE811ABCEEE11A80ED011A1168B6
:10113000C1F3066101EE101AB8EE411A31EE000A51
:1011400080EE801ABCEEC10A80ED020A30BD04E0D8
:1011500001EE901ADFED092ABAE700210160416033
:101160008160F3E7284402580000003938440258EF
:101170000024744A0090D0030024744C20BCBE4B61
:10118000494930B5484C0B1D0A681C3409681D6874
:10119000246802F00303C5F30022C1F30551C4F330
:1011A000CC04002914FB02F200EE102AF8EE400AEB
:1011B00075D03F4A9FED3D1AB7EE000A6BB1DFEDE7
:1011C0003D1A012B01D0022B64D002EE101A1168D7
:1011D000F8EE422A81EEA22A21E0334C283C236813
:1011E0009B0612D5344B246801EE901A1168C4F3A3
:1011F000C104F8EE612AE34001EE903AC1F3080120
:10120000F8EE611A81EEA22A0BE001EE901ADFEDF2
:101210002B2A00BFF8EE611A116882EEA12AC1F3F1
:10122000080101EE901A1168F8EE611A40EE811A79
:1012300071EE800A62EE200AC1F3462101EE101A17
:10124000B8EE411A31EE001AC0EE811ABCEEE11A76
:1012500080ED001A1168C1F3064101EE101AB8EED4
:10126000411A31EE001AC0EE811ABCEEE11A80ED8F
:10127000011A1168C1F3066101EE101AB8EE411AA5
:1012800031EE000A80EE801ABCEEC10A80ED020A3F
:1012900030BD04E001EE901ADFED092ABAE7002123
:1012A000016041608160F3E7284402580000003982
:1012B000404402580024744A0090D0030024744C27
:1012C00020BCBE4B2DE9FE4F0546DFF8E48350F805
:1012D000081B0024F64FC943019005F1280026465B
:1012E00008F12408009008011DD4A86E50B1B0F593
:1012F000801F0CD0B0F5001F0ED0B0F5401F1ED0DF
:1013000001240FE0386840F40030386017E001989D
:10131000022101F0D7FD03E00098022101F062FEF6
:1013200004000CD026462888C043C00523D4A86DED
:1013300005281ED2DFE800F00C11161B1B00AA6E58
:10134000D8F8001021F440111143C8F80010EAE762
:10135000386840F40030386009E00198002101F05D
:10136000B1FD03E00098002101F03CFE044674B199
:1013700000E0012426462888C043800528D4E86D73
:1013800080281ED00CDC90B140280ED114E0AA6D4C
:10139000D8F8001021F007011143C8F80010EAE75F
:1013A000C02813D0B0F5807F10D001240FE038683A
:1013B00040F40030386009E00198002101F082FD1E
:1013C00003E00098002101F00DFE04469CB1264682
:1013D0002888DFF8DC92C04309F12C0940052CD4A1
:1013E000D5F8A800B0F5800F20D00DDCA0B1B0F585
:1013F000001F0FD115E0EA6DD8F8001021F4E0715C
:101400001143C8F80010E3E7B0F5C00F13D0B0F5F2
:10141000000F10D001240FE0386840F4003038602D
:1014200009E00198002101F04DFD03E00098002142
:1014300001F0D8FD04467CB126462888C04300054B
:101440002DD4D5F8AC00B0F1007F21D00EDCA8B1CE
:10145000B0F1807F10D116E0D5F8A820D9F800109F
:1014600021F460011143C9F80010E6E7B0F1407FB4
:1014700013D0B0F1806F10D001240FE0386840F431
:101480000030386009E00198002101F01BFD03E005
:101490000098002101F0A6FD044674B12646286894
:1014A000C04380011FD4E86CD8B110280FD0202889
:1014B00012D0302815D0012414E0D5F8AC20D9F88A
:1014C000001021F0E0611143C9F80010E7E7386827
:1014D00040F40030386004E00198022101F0F2FC91
:1014E000044674B126462888C043C0042BD4286E15
:1014F000B0F5005F20D00DDCA0B1B0F5805F0FD15A
:1015000015E06B48EA6C2030016821F0300111438E
:101510000160E8E7B0F5405F13D0B0F5804F10D020
:1015200001240FE0386840F40030386009E0019889
:10153000002101F0C7FC03E00098002101F052FDFA
:1015400004468CB126462888C043800429D4686E9E
:10155000B0F5403F23D010DC08B3B0F5803F14D085
:10156000B0F5003F0FD115E02A6ED8F8001021F435
:10157000E0411143C8F80010E5E7B0F5802F0ED028
:10158000B0F5A02F0BD001240AE00198012101F051
:1015900099FC03E00098012101F024FD044694B178
:1015A00026462888C04340042AD4D5F8B000B0F1BC
:1015B000405F23D010DC08B3B0F1805F14D0B0F1ED
:1015C000005F0FD115E06A6ED8F8001021F4E02119
:1015D0001143C8F80010E4E7B0F1804F0ED0B0F12D
:1015E000A04F0BD001240AE00198012101F06AFC10
:1015F00003E00098012101F0F5FC044674B1264691
:101600002888C04300041FD4286FD8B1B0F1805F90
:101610000ED0B0F1005F10D0012414E0D5F8B02056
:10162000D9F8001021F0E0411143C9F80010E7E7B4
:10163000386840F40030386004E00198012101F07E
:1016400041FC044674B126462868C043C0011ED43C
:10165000A86CD0B101280ED0022811D0032814D0D4
:10166000012413E02A6FD8F8001021F040511143F3
:10167000C8F80010E8E7386840F40030386004E04B
:101680000198022101F01EFC0446ACB126462868F0
:10169000DFF81CB0C043ABF11C0B400252D405482C
:1016A000016841F480710160FFF7E2FB824611E0BE
:1016B0002C44025800480258FA48AA6C016821F0EC
:1016C000030111430160E2E7FFF7D2FBA0EB0A0040
:1016D000642835D8F4480068C005F5D58CBBDFF820
:1016E000C4A3B5F8B4100AF1240ADAF8000001F432
:1016F000407100F44070884211D0DAF80010DAF836
:10170000002021F4407142F48032CAF80020DAF857
:10171000002022F48032CAF80020CAF80010D5F860
:10172000B400B0F5807F1AD1FFF7A2FB029012E05F
:10173000FFF79EFB0299411A41F2883081420AD993
:10174000032426462878DFF85CA3C0430AF1080A80
:10175000C00721D03CE0DAF800008007E8D5D5F8D2
:10176000B410C1F30120032858460DD0016821F4BC
:101770007C510160B5F8B420DAF80010C2F30B0216
:101780001143CAF80010DDE7C84A036802EA1112E3
:1017900023F47C511143ECE7E86F182816D005DCE0
:1017A000A0B1082808D0102804D10AE020280DD0C4
:1017B00028280BD001240AE00198012101F082FBC6
:1017C00003E00098012101F00DFC044664B12646B7
:1017D0002878C04380071ED4A86F062819D2DFE8F6
:1017E00000F0160C11161616EA6FDAF8001021F048
:1017F00038011143CAF80010EAE70198012101F00D
:1018000061FB03E00098012101F0ECFB04467CB190
:1018100000E0012426462878C04340071FD4D5F8AD
:101820009400062819D2DFE800F0160C11161616DF
:10183000AA6FDAF8001021F007011143CAF800106E
:10184000E9E70198012101F03DFB03E00098012147
:1018500001F0C8FB0446A4B100E001242646287824
:10186000C04380062BD4D5F89000B0F1405F24D05F
:1018700011DC10B3B0F1805F15D0B0F1005F10D172
:1018800016E0D5F89420D9F8001021F00701114393
:10189000C9F80010E3E7B0F1804F0ED0B0F1A04FCF
:1018A0000BD001240AE00198002101F00BFB03E0BA
:1018B0000098022101F096FB044694B12646287850
:1018C000C04340062BD4D5F89C00B0F5406F24D01F
:1018D00011DC10B3B0F5806F15D0B0F5006F10D1EA
:1018E00016E0D5F89020DAF8001021F0E04111431D
:1018F000CAF80010E3E7B0F5805F0ED0B0F5A05F46
:101900000BD001240AE00198002101F0DBFA03E08A
:101910000098022101F066FB044694B1264628781F
:10192000C04300062BD4D5F8A000B0F5C04F24D09A
:1019300011DC10B3B0F5005F15D0B0F5804F10D1B9
:1019400016E0D5F89C20D9F8001021F4E05111439D
:10195000C9F80010E3E7B0F5004F0ED0B0F5204F06
:101960000BD001240AE00198002101F0ABFA03E05A
:101970000098022101F036FB044654B1264628782F
:10198000C04300071ED4D5F88400B0F5805F0AD0AC
:101990000FE0D5F8A020D9F8001021F460411143E0
:1019A000C9F80010EBE70098022101F01BFB00B121
:1019B0000126D5F88420DAF8001021F440511143B3
:1019C000CAF800102878C043C00613D4D5F8980090
:1019D000B0F5807F05D10098022101F003FB00B132
:1019E0000126D5F89820D9F8001021F44071114350
:1019F000C9F800102868C043000316D4D5F8A40025
:101A000038B1B0F5803F09D0B0F5003F0BD00124CC
:101A10000AE00198002101F055FA03E00098022144
:101A200001F0E0FA04468CB126462868C043400322
:101A300022D4D5F88800B0F5801F11D0B0F5001F72
:101A400013D0B0F5401F15D0012414E0D5F8A42020
:101A5000D9F8001021F440311143C9F80010E4E72F
:101A6000386840F40030386004E00098012101F04B
:101A7000B9FA04465CB126462868C043C00323D4A3
:101A8000286DA8B1B0F5803F17D001241BE0D5F830
:101A90008820DAF8001021F440111143CAF8001030
:101AA000EAE700004C44025800480258CFFFFF000C
:101AB000386840F40030386004E00198022101F0F9
:101AC00001FA0446E4B126462868C043800005D4E4
:101AD0000098022101F086FA00B101262868C0436F
:101AE00080031BD4D5F88000B0B1B0F5807F0FD053
:101AF000B0F5007F10D0B0F5407F0DD001240CE090
:101B00005A482A6D016821F4803111430160DBE7F6
:101B1000386840F400303860ECB326462868C0438B
:101B2000C00207D46A6FD8F8001021F000411143B9
:101B3000C8F800102868C043C00008D4D5F8B82001
:101B4000DBF8001021F480411143CBF80010286825
:101B5000C043800207D4EA6ED8F8001021F08071EB
:101B60001143C8F800102868C04340000CD4DBF8CB
:101B7000001021F40041CBF80010DBF80010D5F87C
:101B8000BC201143CBF800102868C04308D4374864
:101B90006A6D016800E018E021F0405111430160D6
:101BA0002868C043000208D4D5F88C20DAF8001069
:101BB00021F440011143CAF8001028790024C043E1
:101BC00000F0010020430AD00FE0D5F88020DAF8B9
:101BD000001021F440711143CAF800109EE70198EB
:101BE000002101F06FF900B106462879C04300F0EA
:101BF0000200204305D10198012101F063F900B1F1
:101C000006462879C04300F00400204305D101981E
:101C1000022101F057F900B106462879C04300F0CF
:101C20000800204305D10098002101F0DBF900B144
:101C300006462879C04300F01000204305D10098E3
:101C4000012101F0CFF900B106462879C04300F028
:101C50002000044304D10098022101F0C3F900B927
:101C600016B10120BDE8FE8F0020FBE74C4402586E
:101C70002DE9F05F04000F467ED0DFF83882D8F8F7
:101C8000000000F00F00B8420CD2D8F8001021F08C
:101C90000F013943C8F80010D8F8000000F00F0019
:101CA000B84269D12078844D40070AD52069296857
:101CB00001F07001884204D9296821F070010143C4
:101CC000296020787C4E361D00070AD5606931688E
:101CD00001F07001884204D9316821F0700101439C
:101CE00031602078C0060AD5A069316801F4E0614E
:101CF000884204D9316821F4E061014331602078E1
:101D0000DFF8B4B180060BF1080B0CD5E169584639
:101D1000DBF8002002F07002914204D9026822F040
:101D200070020A430260207880070AD5E0682968BB
:101D300001F00F01884204D9296821F00F01014305
:101D400029602078C0073ED05B49A268286818390E
:101D500020F47060104328606068022818D00328BF
:101D600019D00968012819D0490700294ADADFF893
:101D700048A1AAF1080A00E044E0DAF8002022F0C5
:101D800007020243CAF80020FFF772F8814612E00A
:101D900009688903E9E709688901E6E7C905E4E715
:101DA000FFF766F8A0EB090141F28830814202D9C1
:101DB0000320BDE8F09F6168DAF8000000F0380009
:101DC000B0EBC10FECD1207880070AD5E068296814
:101DD00001F00F01884204D2296821F00F0101436C
:101DE0002960D8F80010404601F00F01B9420BD924
:101DF000016821F00F0139430160006800F00F0015
:101E0000B84201D00120D4E7207840070AD52069E4
:101E1000296801F07001884204D2296821F070011C
:101E200001432960207800070AD56069316801F014
:101E30007001884204D2316821F0700101433160A1
:101E40002078C0060AD5A069316801F4E0618842B3
:101E500004D2316821F4E0610143316020788006CA
:101E60000CD5E1695846DBF8002002F0700291427F
:101E700004D2026822F070020A43026000F06CF89B
:101E80000E492A682B68C2F3032203F00F038A5C11
:101E9000C95C02F01F0201F01F01D040084A20FA7D
:101EA00001F111600749086007480068BDE8F05F6C
:101EB000FFF71AB80020005218440258843D000869
:101EC00018000024140000240C00002430B500F099
:101ED00043F80B4A0B490C4B15681468C5F30322F1
:101EE00004F00F048A5C095D02F01F0201F01F017B
:101EF000D040064A20FA01F119601060084630BD52
:101F000018440258843D00081800002414000024DE
:101F100000B5FFF7DBFF05490968054AC1F3021167
:101F2000515C01F01F01C84000BD00001C44025874
:101F3000843D000800B5FFF7C9FF05490968054A57
:101F4000C1F30221515C01F01F01C84000BD000037
:101F50001C440258843D0008454970B5454809684D
:101F6000434B103B11F0380208D00111082A03D06E
:101F7000102A0BD0182A0BD0084670BD19688906A4
:101F8000FBD51968C1F3C101C84070BD3A4870BDA6
:101F90003749374D18310C1D24350A680968266801
:101FA0002D6802F0030406F00102C1F30511C5F328
:101FB000CC0515FB02F200EE102AB8EE400AE9B398
:101FC0002F4ADFED2E0AB7EE001A6CB1DFED2D1AA5
:101FD000012C01D0022C43D002EE101A1068F8EE4A
:101FE000422A81EEA22A1EE01C68A40611D51B68B5
:101FF00001EE901A1168C3F3C103F8EE612AD840CC
:1020000001EE900AC1F30800F8EE611A81EEA22AEF
:102010000BE001EE901ADFED1C2A00BFF8EE611A0A
:10202000106882EEA12AC0F3080001EE900AF8EED3
:10203000611A40EE201A31EE810A00E015E022EE2E
:10204000000A1068C0F34620401C00EE900AF8EE2B
:10205000600A80EE201ABCEEC10A10EE100A70BDB4
:1020600001EE901ADFED092AD8E7002070BD0000CC
:10207000104402580090D00340787D0100000039E0
:10208000304402580024744A0024744C20BCBE4BD7
:102090002DE9F05F04007DD0FF4F2078FE4D18370A
:1020A000DFF8F493103DC00748D0D9F80000396834
:1020B00000F03800102815D0182803D101F00300D3
:1020C00002280FD06068B0F5803F12D010B1B0F593
:1020D000A02F18D0286820F480302860286820F4C9
:1020E000802009E02868800328D560680028D2D0C5
:1020F00024E0286840F480302860606888B1FEF7EA
:10210000B7FE064609E0286840F480202860F0E722
:10211000FEF7AEFE801B64286FD828688003F7D5D1
:102120000CE0FEF7A5FE064605E000BFFEF7A0FEA8
:10213000801B6428F0D828688003F7D4207841F207
:102140000308D54E0C3E800769D5D9F800003968E0
:1021500010F038000ED0182801D188070AD0E068A6
:1021600090B3296821F0190101432960FEF780FE30
:10217000824631E02868400702D5E06800288AD00E
:10218000E168286820F0190008432860FEF770FE17
:10219000824607E0DFE000BFFEF76AFEA0EB0A0020
:1021A0000228B9D828684007F6D500BFFEF75AFEC6
:1021B00040451BD82069402812D0316821F47C3179
:1021C00041EA003030602AE018E000BFFEF750FE20
:1021D000A0EB0A0002289FD828684007F6D5E5E75B
:1021E000306820F47C3040F40030EBE7207C31682C
:1021F00021F0FE4141EA0060E4E70DE1286820F0AB
:1022000001002860FEF734FE824605E0FEF730FE4E
:10221000A0EB0A0002288DD828684007F6D4207861
:10222000C0065DD5D9F80000DFF86CB2396800F05F
:102230003800ABF1040B082810D0182803D101F0A6
:10224000030001280AD0E0690028286838D040F04F
:1022500080002860FEF70CFE824623E02868C00557
:1022600023D5E069802876D11FE0206A202821D07C
:10227000316821F0F84141EA8060306030E000BF11
:1022800094F82010DBF8002022F07C5242EA016131
:10229000CBF8001024E000BFFEF7EAFDA0EB0A0037
:1022A000022898D82868C005F6D5FEF7DBFD404522
:1022B000E6D8DAE7306820F0F84040F08040DCE70C
:1022C00020F080002860FEF7D3FD064605E000BF41
:1022D000FEF7CEFD801B02289DD82868C005F7D4E4
:1022E0002078000729D56C48616964300029804650
:1022F000016811D041F001010160FEF7B9FD064609
:1023000005E000BFFEF7B4FD801B0228C9D8D8F84D
:1023100000008007F6D510E021F001010160FEF712
:10232000A7FD064605E000BFFEF7A2FD801B0228C0
:1023300072D8D8F800008007F6D42078800623D51C
:10234000A0690028286810D040F480502860FEF76B
:102350008FFD064605E036E1FEF78AFD801B022868
:102360005AD828688004F7D50EE020F48050286001
:10237000FEF77EFD064604E0FEF77AFD801B02288C
:102380004AD828688004F7D4207840074FD5DFF872
:102390000C81D8F8001041F48071C8F80010FEF7E5
:1023A00067FD064605E000BFFEF762FD801B64285E
:1023B00032D8D8F80000C005F6D5374EA068603690
:1023C00001280AD008B1052813D0306820F0010098
:1023D0003060306820F0040002E0306840F0010016
:1023E0003060A06841F2883A90B1FEF741FD804626
:1023F0000AE0306840F004003060EEE7FEF738FD98
:10240000A0EB0801514507D830688007F6D50EE0EB
:10241000FEF72EFD804607E084E000BFFEF728FDB2
:10242000A0EB080151457DD830688007F6D4606A7A
:10243000B0B3DFF86480D9F8001008F120084FF637
:10244000F87B08F10409C1F3C2010329A8F1040AC9
:1024500069D00228286820F08070286003D0FEF739
:1024600007FD044684E0FEF703FD064605E000BFD5
:10247000FEF7FEFC801B022877D828688001F7D47D
:10248000E26A40F2F331386854F8283F884340EA62
:1024900002101843386004E0104402580048025803
:1024A000B5E0217B434622894FF4FE0C208A4FF091
:1024B000FE474902267D521E401EA1F50071C2F35F
:1024C00008088AB2761E0CEA004042EA080202437B
:1024D000504607EA06610A431A60DAF8002022F043
:1024E0000102CAF80020D9F80020266A22EA0B026D
:1024F00042EAC602C9F80020DAF80010A26921F009
:102500000C011143CAF800100168E26921F00201D0
:1025100011430160016841F480310160016841F4B8
:10252000003101E021E027E00160016841F48021F1
:102530000160016841F001010160286840F080708D
:102540002860FEF795FC044605E000BFFEF790FC0E
:10255000001B022809D828688001F7D557E000BF82
:10256000FEF786FC001B022802D90320BDE8F09F7D
:1025700028688001F4D44AE039680128D8F80000BE
:1025800021D0A26A01F0030393421CD1E26AC1F395
:1025900005118A4217D1216BC0F30802491E8A42F5
:1025A00011D1616BC0F34622491E91420BD1A16B40
:1025B000C0F30642491E914205D1E16BC0F30660AB
:1025C000491E814201D00120D0E7A16C4E46D9F8C6
:1025D0000000C0F3CC00814219D0DAF80000554663
:1025E00020F00100CAF80000FEF742FC4FEA0007A5
:1025F000FEF73EFCB842FBD0A26C306820EA0B002C
:1026000040EAC2003060286840F0010028600020E5
:10261000ACE710B5044600688069C00707D02046C3
:1026200000F047F82068416941F00101416110BDA7
:1026300070B504000D4603D094F82C0010B107E0EB
:10264000012070BD002084F82D00204600F018F80D
:10265000022084F82C002068211DFDF7B9FED4E982
:1026600000022946FDF706FF04480121026842F0F6
:102670000042026084F82C10002070BD004000521F
:10268000FEF754BA10B5044690F82C00022804D086
:1026900094F82C00012801D0012010BD022084F8FC
:1026A0002C002068FDF7C9FE012084F82C000020D2
:1026B00010BD704770B5044690F82C000D460228F6
:1026C00004D0012803D0052801D0012070BD0220CC
:1026D00084F82C002068FDF7B9FE2868022805D090
:1026E0005FF0010084F82C00002070BD0520F9E7A0
:1026F000401EB0F1807F10B501D3012010BD4FF016
:10270000E02460610F21601701F066F90020A061EC
:102710000721216110BD30B590F88410012918D02F
:10272000012280F884202421C0F88810002220246F
:1027300001680B680D6823F0005325F001050D605A
:10274000426601680B60C0F8884080F8842010461B
:1027500030BD022030BD7047704770B5044690F818
:10276000840001281DD0012284F884202420C4F88C
:10277000880020680568026822F001020260206873
:10278000826822F060620A438260204600F0E0FD29
:102790002268202100201560C4F8881084F8840085
:1027A00070BD022070BD70B5044690F88400012809
:1027B0001DD0012284F884202420C4F888002068D9
:1027C0000568026822F0010202602068826822F037
:1027D00060420A438260204600F0BAFD2268202150
:1027E00000201560C4F8881084F8840070BD0220B1
:1027F00070BD7047704770472DE9F04107680025AC
:10280000044640F60F030226F8693968BA68184290
:102810000AD183067ED501F0200302F0805C53EAE2
:102820000C0377D0616F74E1CF4BDFF840C31340E6
:1028300001EA0C0C53EA0C0C6CD05FEAC07C0CD0A3
:102840005FEAC15C09D54FF0010CC7F820C0D4F88D
:10285000907047F00107C4F89070870709D5D70733
:1028600007D027683E62D4F8906046F00406C4F8AA
:10287000906046070AD5D60708D0276804263E622E
:10288000D4F8906046F00206C4F8906006070CD5B4
:1028900001F020061E4308D0266808233362D4F8CE
:1028A000903043F00803C4F8903003050BD54B017A
:1028B00009D526684FF400633362D4F8903043F0B2
:1028C0002003C4F89030D4F89030002B3DD080061F
:1028D00009D501F0200002F08051084303D0616F58
:1028E00009B1204688472168D4F8900089684906D4
:1028F00002D410F0280F2AD0204600F00FFE2068E6
:10290000806840061ED52068083050E8001F21F07E
:10291000400100E021E040E80012002AF3D1D4F8A1
:10292000800078B192490165D4F88000FDF7AAFFD4
:1029300000280AD0D4F88000016D00E02046BDE8F0
:10294000F04108472046FFF756FFBDE8F0812046DA
:10295000FFF751FFC4F89050F7E7D4F86CC020237C
:10296000BCF1010F7ED15FEAC06C7BD55FEAC16C20
:1029700078D51020386220688068400673D5D4F876
:1029800080107C4A0868904234D07A4A18329042CB
:1029900030D0784A303290422CD0764A4832904239
:1029A00028D0744A6032904224D0724A78329042E1
:1029B00020D0704A903290421CD06E4AA832904289
:1029C00018D06D4A904215D06B4A1832904211D0FF
:1029D000694A303290420DD0674A4832904209D05D
:1029E000654A6032904205D0634A7832904201D005
:1029F000614A903240680004000CA6D0B4F85C2014
:102A00008242A2D9A4F85E00C869B0F5807F2FD0B9
:102A1000216851E8000F20F4807041E80002002A8C
:102A2000F6D12068083050E8001F21F0010140E88D
:102A30000012002AF5D12068083050E8001F21F06C
:102A4000400140E80012002AF5D1C4F88C30E56658
:102A5000216851E8000F20F0100041E80002002A30
:102A6000F6D101E040E00BE0D4F88000FDF75AFD1C
:102A70002667B4F85C00B4F85E10401A81B22FE00B
:102A8000B4F85C00B4F85E10B4F85E20401A81B26D
:102A9000002AB2D00029B0D0226852E8000F20F4FA
:102AA000907042E80007002FF6D1344F206800F103
:102AB000080050E8002F02EA070240E8002CBCF1B1
:102AC000000FF3D1C4F88C30E5666567206850E8E4
:102AD000002F22F0100240E80023002BF6D12667D9
:102AE0002046FFF738FE30E7C60209D5560207D563
:102AF0004FF4801038622046BDE8F041FFF77ABEFF
:102B000006060AD501F0800602F40002164304D03E
:102B1000A16F00297FF412AF17E7420611D54A06CC
:102B20000FD52046026852E8001F21F0400142E81C
:102B30000014002CF6D1C0F88830856700F0FAF850
:102B400003E7020206D54A0004D52046BDE8F0415D
:102B5000FFF74FBEC001C6D50029C4DA2046BDE844
:102B6000F041FFF7F9BD0000010000102001000452
:102B7000073500081000024010040240FEFFFFEF7E
:102B800010B5040003D0D4F8880010B107E001208C
:102B900010BD002084F88400204600F027F824208F
:102BA000C4F888002068016821F001010160204616
:102BB00000F0DEFC0128EBD0A06A10B1204600F046
:102BC000E9FB2068416821F49041416020688168F8
:102BD00021F02A0181602068016841F00101016053
:102BE0002046BDE8104000F039BC000010B5B6B07A
:102BF0000446142130A8FDF7A5FBC0216846FDF767
:102C0000A1FB1D492068884233D100201F9001217B
:102C10000446CDE900106846FEF754FB08B1FDF705
:102C2000CFFB1648016841F010010160006800F018
:102C30001000359011481038016841F00101016021
:102C4000006830AB022100F0010035904FF4C06005
:102C5000072283E813000A4830A9CDE93342FDF783
:102C6000DDFF002225201146FEF77AF92520FEF728
:102C700069F936B010BD000000100140F044025860
:102C8000000002582DE9F8430446D0F88800984621
:102C900016460D46202802D00220BDE8F883A5B1D3
:102CA0009EB10021C4F890102120C4F88800183487
:102CB000FEF7DEF8814654F8100CA687E687202739
:102CC000183CB0F5805F02D003E00120E5E7206901
:102CD00010B12E46002510E000260EE0802120468F
:102CE00000F01CFEC0B9DEB116F8010B2168886245
:102CF000B4F85600401EA4F85600B4F856004B46EF
:102D00004FF00002CDF800800028E7D14FF04001DD
:102D1000204600F003FE48B1C4F888700320BCE7E9
:102D200035F8020B2168C0F30800E0E7C4F88870AA
:102D30000020B2E77047FEE7F0B587B01C21684677
:102D4000FDF700FB164801260022144D02214FF02A
:102D5000100C082705604FF4C075C0E90126C76054
:102D600040248E02C0F810C00F03C0E90545C0E939
:102D7000072607230424C0E909278DE81A00032544
:102D80000393CDE9045106916946FFF751FC0028F1
:102D900001D0FDF715FB07B0F0BD00004041005227
:102DA0002000002430B587B014216846FDF7CAFA28
:102DB0002648016841F004010160016801F0040146
:102DC0000591016841F020010160016801F02001D6
:102DD0000591016841F080010160016801F0800106
:102DE0000591016841F040010160016801F0400176
:102DF0000591016841F010010160016801F01001C6
:102E00000591016841F008010160016801F00801C5
:102E10000591016841F00101016000684FF4005420
:102E20000B4D002200F00100214605902846FEF7D8
:102E300013F8002100940120CDE9010128460391F7
:102E40006946FDF7EBFE07B030BD0000E0440258D4
:102E5000000802581848002110B5164C0C224FF4F7
:102E6000E1330460C0E90131C160C0E9041281614D
:102E7000C161016241628162FFF782FE08B1FDF724
:102E80009FFA0D480021FFF78EFC08B1FDF798FA74
:102E900009480021FFF761FC08B1FDF791FA0648E7
:102EA000FFF739FC002803D0BDE81040FDF788BAD1
:102EB00010BD00000010014054000024FEE7FEE7B2
:102EC000704700002DE9F047454D044689464FF014
:102ED000000A2868C04380070AD0414E283E306867
:102EE00020F080603060FDF7C3FF0746B04608E081
:102EF0000120BDE8F08700BFFDF7BAFFC01B022824
:102F000067D8D8F800000001F6D4206829684FF48B
:102F1000FE0721F47C313E0241EA00302860207A2D
:102F2000A389B4F804C040022D4D2D495B1E227CBC
:102F3000ACF1010C1035091DA0F5007080B2521ED5
:102F4000CCF3080C07EA034340EA0C00184306EAF6
:102F50000262104328600868626920F0C0001043D4
:102F600008600A68A06922F0200202430A60281D56
:102F70000A6822F010020A6002684FF6F873E469EA
:102F80009A4342EAC40202600868B9F1000F40F0B7
:102F900010020A6011D00868B9F1010F11D040F495
:102FA00000100860D8F80000444640F08060C8F87F
:102FB0000000FDF75DFF05460DE0086840F40020C5
:102FC000EFE740F48010ECE7FDF752FF401B0228CA
:102FD00001D903208DE720680001F5D5504688E728
:102FE000284402582DE9F047454D044689464FF0E4
:102FF000000A2868C04380070AD0414E283E306846
:1030000020F080503060FDF733FF0746B04608E0FF
:103010000120BDE8F08700BFFDF72AFFC01B022892
:1030200067D8D8F800008000F6D4208829684FF4CB
:10303000FE0721F07C713E0241EA00502860207AB0
:10304000A389B4F804C040022D4D2D495B1E227C9B
:10305000ACF1010C1835091DA0F5007080B2521EAC
:10306000CCF3080C07EA034340EA0C00184306EAD5
:103070000262104328600868626920F440601043CF
:1030800008600A68A06922F4007202430A60281DE1
:103090000A6822F480720A6002684FF6F873E469E5
:1030A0009A4342EAC40202600868B9F1000F40F492
:1030B00080720A6011D00868B9F1010F11D040F098
:1030C00080700860D8F80000444640F08050C8F88E
:1030D0000000FDF7CDFE05460DE0086840F48000D5
:1030E000EFE740F40000ECE7FDF7C2FE401B0228CA
:1030F00001D903208DE720688000F5D5504688E788
:10310000284402582DE9F8431C4C102600274FF69E
:10311000FF7901251A484A462146C4E90056C4E908
:103120000257FFF7C7FA17480090401E0090FCD1E5
:1031300002211348C4E900161049B846C4E90257F1
:103140004A46FFF7B7FA04270D4803214A4684E8A8
:10315000C2010A49FFF7AEFA40F2312007494A4658
:10316000C4E902500648C4E90076FFF7A3FABDE8B7
:10317000F84303484FF44E71FFF784BAE800002487
:1031800020000024A08601007047FDF777BE0000F4
:1031900070B59CB04C216846FDF7D4F8202113A8E7
:1031A000FDF7D0F80220FDF70DFF2D4900242D4832
:1031B0000A6822F001020A600A68026842F440428A
:1031C0000260026802F440421B9202689204FCD53D
:1031D000254A136843F002031360126802F00202EA
:1031E0001B92026842F44042026002680A6842F0A0
:1031F00001020A60096801F001011B91016889045C
:10320000FCD50DF1280C022009900521C0228CE884
:103210000700C3030F9008250D9001260E90CDE9FD
:103220001054CDE9006368461294FEF731FF08B1EF
:1032300072B6FEE740201A903F210301CDE91650F7
:103240000322CDE9180313AB13A883E81600042169
:10325000FEF70EFD002801D072B6FEE71CB070BD6F
:103260002C04005818480258F44402582E48F0B56F
:103270002E4A016841F470010160106800F00F00EF
:10328000072804D2106820F00F00C01D10602849E4
:103290000020274C10340B68264D43F001030B60CF
:1032A00020600B682B400B60136803F00F03072BA3
:1032B00004D9136823F00F03DB1D13601C4C1E4A56
:1032C00018341E4B261D371D2060194C1C4D283408
:1032D0003060261D3860371D23603B1D35601C1D86
:1032E0003A60251D2E1D1860331D22602860326053
:1032F00018600A680E4B134C22F4802260330A6077
:10330000186020686FF30F00B0F1005F03D20E4920
:103310000120C1F8080143F2D2000C49024B4A03D4
:10332000803B08601A60F0BD88ED00E0002000528C
:10333000004402587FEDF6EA800201010002020219
:103340000000FF010010005C0080005100400052AE
:1033500030B5416EB9B101680D4B03F108048A68BC
:103360008968C2F34262490F5D5C615C2D01B5FB67
:10337000F1F1A0F86A10995CA25C0901B1FBF2F1CD
:10338000A0F8681030BD0121A0F86A10F8E700002D
:10339000743D000890F82810C90706D00168C36A78
:1033A0004A6822F400321A434A6090F828108907CC
:1033B00006D50168036B4A6822F480321A434A60DA
:1033C00090F82810490706D50168436B4A6822F433
:1033D00080221A434A6090F82810090706D5016830
:1033E000836B4A6822F400421A434A6090F828101E
:1033F000C90606D50168C36B8A6822F480521A4355
:103400008A6090F82810890606D50168036C8A68DE
:1034100022F400521A438A6090F82810490611D508
:103420000168436C4A6822F480121A434A60416C76
:10343000B1F5801F06D10168836C4A6822F4C0028E
:103440001A434A6090F82810090606D50168C26C34
:10345000486820F400201043486070472DE9F84385
:1034600000250446C0F89050FDF702FD8046206814
:1034700020266FF07E470068000713D500224346E0
:1034800031042046009700F049FA58B1216851E80C
:10349000000F20F0800041E80002002AF6D1C4F8B5
:1034A000886021E020680068400722D5002243465A
:1034B0004FF480012046009700F030FAC8B1206830
:1034C00050E8001F21F4907140E80012002AF6D164
:1034D0002068083050E8001F21F0010140E8001288
:1034E000002AF5D1C4F88C60032084F88450BDE82C
:1034F000F883C4F88860C4F88C60E566256700200E
:1035000084F88450F3E710B5806B0021A0F85E10BA
:10351000A0F85610FFF76FF910BD000010B5026853
:1035200052E8001F21F4907142E80013002BF6D1FD
:103530000E4B0268083252E8001F194042E800149E
:10354000002CF6D1C16E012908D1026852E8001F93
:1035500021F0100142E80013002BF6D100212022B7
:10356000C0F88C20C166416710BD0000FEFFFFEF70
:103570002DE9F04304468068D84E87B0D84B2168C7
:10358000D4E90427D4F81CC010430A68002547EA90
:103590000C073843324002430A602068E268416801
:1035A00021F44051114341602268A1699A4201D03F
:1035B000206A01439768DFF82CC3CB4ECB4807EA5B
:1035C0000C070F4397602168676ACA6A22F00F02EE
:1035D0003A43CA622268B2420ED1006800F0380055
:1035E000182873D047DCB8B3082879D010286FD1D9
:1035F00078E028287ED17BE0BD498A4209D1006865
:1036000000F00700062875D2DFE800F0546A6C6EFF
:103610007072B8498A4209D1006800F00700062894
:1036200068D2DFE800F0475D5F616365B2498A42B6
:1036300009D1006800F0070006285BD2DFE800F03F
:103640003A5052545658AD498A420BD1006800F0A6
:10365000070006284ED200E010E0DFE800F02B4122
:1036600043454749A6498A420AD1006800F038001C
:10367000182839D0B7DD2028BBD13CE001203AE042
:10368000A0498A4209D1006800F00700062831D21B
:10369000DFE800F01026282A2C2E9B498A420BD105
:1036A000006800F00700062824D2DFE800F00319C4
:1036B0001B1D1F2100201EE09A421BD18B48001DBC
:1036C000006800F00700062814D202E00CE007E0D2
:1036D00010E0DFE800F0030507090B0D02200AE007
:1036E000042008E0082006E0102004E0202002E08A
:1036F000402000E080208549DFF814829A42854A04
:103700004FF400434FEA21174FF000064ED1102826
:103710001AD006DC022809D004280BD008287CD156
:103720000DE020283ED0402877D13DE0FDF774FC25
:10373000014610E06846FDF781FC01990BE003A803
:10374000FDF71EFD049906E01068800605D5106897
:10375000C0F3C100C140002970D0606A676838F8C2
:10376000102007EB4703B1FBF2F0834255D8B0EBD2
:10377000073F52D8002308461946FCF7ABFD024626
:103780007808130E120243EA012110183A467141DB
:103790000023FCF79FFD604AA0F5407191423CD8A0
:1037A00021688FE03946D8E71946D6E7D4F81CC01F
:1037B0004FF6EF799C4546D1082819D005DC58B161
:1037C00001280CD0042875D10DE0102815D0202830
:1037D00035D040286ED134E0FEF79AFB01E0FEF7C9
:1037E000A9FB014610E06846FDF728FC01990BE0B3
:1037F00003A8FDF7C5FC049906E01068800604D50F
:103800001068C0F3C100C140C1B1636A606838F894
:103810001330B1FBF3F1490000E04BE001EB500144
:10382000B1FBF0F0A0F11001494543D84FF6F07319
:103830002168C0F342021840104343E043E0394698
:10384000E3E71946E1E7082819D005DC58B101285B
:103850000CD004282ED10DE0102815D020282BD014
:10386000402827D12AE0FEF753FB01E0FEF762FB78
:10387000014610E06846FDF7E1FB01990BE003A863
:10388000FDF77EFC049906E01068800604D51068F8
:10389000C0F3C100C140B1B1636A606838F8133049
:1038A000B1FBF3F101EB5001B1FBF0F0A0F110011D
:1038B000494505D9012506E03946EDE71946EBE70C
:1038C000216880B2C8600120A4F86A00A4F86800EA
:1038D00028466667A66707B0BDE8F083F369FFCFA7
:1038E000000C0058FFF4FF1100100140544402582E
:1038F0000044004000480040004C004000500040A0
:103900000014014000780040007C00400090D0038B
:103910005C3D000800440258FFFC0F002DE9F04711
:10392000994617460E460446089D4FF000082FE0C2
:10393000681C2DD0FDF79CFAA0EB0900A84214D812
:103940009DB120680168490722D5C169C9430907AB
:103950000DD4082505622046FFF7E0FDC4F890501D
:10396000012084F88480BDE8F0870320FBE7C0696C
:10397000C04300050CD421684FF400600862204663
:10398000FFF7CCFD2021C4F8901084F88480ECE788
:103990002068C06936EA000004D00020B842C7D0D1
:1039A0000020E0E70120F9E70148FEF725BF00000D
:1039B00054000024FEE700000FB4054B10B503A926
:1039C000044A029800F028F810BC5DF814FB0000CF
:1039D000D93C00081C000024090700284FEA1161A7
:1039E00004DB00F1E02080F80014704700F00F00C5
:1039F00000F1E02080F8141D704702E008C8121F93
:103A000008C1002AFAD170477047002001E001C1C7
:103A1000121F002AFBD170472DE9FF4F8DB09B4646
:103A20000F460446002606E025280BD05A460F997B
:103A30009047641C761C20780028F5D111B03046E0
:103A4000BDE8F08F0025A8460122984900E0054313
:103A500014F8013F203B02FA03F00842F7D1207826
:103A60002E2817D114F8010F45F004052A280ED08E
:103A70006FF02F022078A0F1300109290AD808EB55
:103A8000880102EB410100EB0108641CF2E757F8E2
:103A9000048B641C20786C280DD004DC4C2812D0D8
:103AA0006A2811D104E074280DD07A280CD10AE0DC
:103AB00045F4001507E0617845F48015814202D194
:103AC000641C05F58015641C2078692844D008DC46
:103AD0000028B3D0582867D063280FD0642808D1B5
:103AE0003AE0702865D0732812D075285AD078280B
:103AF0005AD05A460F999047761CD5E017F8040B18
:103B00008DF8000000208DF80100E946012003E057
:103B100057F8049B4FF0FF3069074FF0000501D4C0
:103B20000AE06D1C45450DDA8542FADB19F80510EF
:103B30000029F6D106E06D1C8542FCDB19F8051062
:103B40000029F8D12E4404E019F8010B5A460F99C8
:103B500090476D1EF8D2A7E00A200021CDE90801A8
:103B6000C5F3025002280CD001CFC117021E71F11B
:103B700000020CDA0023D0EB030063EB01012D22DD
:103B800008E0FF1D27F00707F7E80201EEE72A0526
:103B900004D52B228DF8282001223CE0EA073AD0F8
:103BA0002022F7E70A2000E010200021CDE90801DB
:103BB00007E01020002145F00405CDE908014FF091
:103BC0000808C5F30250022810D001CF00214FF0A1
:103BD000000A2A0720D52278702A0DD0DDE908C313
:103BE0008CF0100C5CEA030C0CD015E0FF1D27F0E4
:103BF0000707F7E80201EAE740228DF828204FF096
:103C0000010A0CE050EA010306D030238DF8283079
:103C10008DF82920022292462278582A04D024A224
:103C20000DF120090B9209E026A2F9E7DDE908234E
:103C3000FCF750FB0B9B9B5C09F8013D50EA01022D
:103C4000F4D1ADEB090020300890680701D44FF0A3
:103C500001080899884503DD0898A8EB000000E0FA
:103C600000208046002506E00AA85A46405D0F99CC
:103C700090476D1C761C5545F6DB04E030205A4613
:103C80000F999047761CB8F10001A8F10108F5DC06
:103C900005E019F8010B5A460F999047761C0899D0
:103CA000481E08900029F4DC641CC4E609280100C1
:103CB00030313233343536373839616263646566A2
:103CC0000000000030313233343536373839414264
:103CD000434445460000000013B5044801224FF656
:103CE000FF736946FEF7CEFF00981CBD5400002408
:103CF000FDF7CCF8FFF74CFAFFF754F8FFF71CF884
:103D0000FFF7A8F8FFF7FEF95FF00000A0F180428E
:103D100000F16401401C64281170F7DB5FF00004BF
:103D2000A4F1804108A00A78FFF746FE641C642CC9
:103D3000F6DB094D4FF4005421462846FDF784F880
:103D4000C820FCF7E1FEF7E7616464723A09257860
:103D50000925640D0A000000000802580100020055
:103D60000400060008000A000C00100020004000BB
:103D700080000001010101030701000008040204A2
:103D80000801010100000000010203040102030414
:103D900006070809B43D00080000002420000000C8
:103DA000FA390008D43D000820000024D80400009F
:103DB0000A3A0008000000000000000001000000B6
:103DC00010000000000000000090D0030090D0031D
:043DD00000000000EF
:040000050800029954
:00000001FF
